{
	"Decentralized CrowdFunding Application/CrowdFunding.sol": {
		"CrowdFunding": {
			"abi": [
				{
					"inputs": [
						{
							"internalType": "uint256",
							"name": "_deadLine",
							"type": "uint256"
						},
						{
							"internalType": "uint256",
							"name": "_target",
							"type": "uint256"
						}
					],
					"stateMutability": "nonpayable",
					"type": "constructor"
				},
				{
					"inputs": [
						{
							"internalType": "address",
							"name": "",
							"type": "address"
						}
					],
					"name": "Contributors",
					"outputs": [
						{
							"internalType": "uint256",
							"name": "",
							"type": "uint256"
						}
					],
					"stateMutability": "view",
					"type": "function"
				},
				{
					"inputs": [
						{
							"internalType": "string",
							"name": "_description",
							"type": "string"
						},
						{
							"internalType": "address payable",
							"name": "_recipent",
							"type": "address"
						},
						{
							"internalType": "uint256",
							"name": "_value",
							"type": "uint256"
						}
					],
					"name": "createNewRequest",
					"outputs": [],
					"stateMutability": "nonpayable",
					"type": "function"
				},
				{
					"inputs": [],
					"name": "deadLine",
					"outputs": [
						{
							"internalType": "uint256",
							"name": "",
							"type": "uint256"
						}
					],
					"stateMutability": "view",
					"type": "function"
				},
				{
					"inputs": [],
					"name": "getContractBalance",
					"outputs": [
						{
							"internalType": "uint256",
							"name": "",
							"type": "uint256"
						}
					],
					"stateMutability": "view",
					"type": "function"
				},
				{
					"inputs": [
						{
							"internalType": "uint256",
							"name": "requestNo",
							"type": "uint256"
						}
					],
					"name": "makePayment",
					"outputs": [],
					"stateMutability": "nonpayable",
					"type": "function"
				},
				{
					"inputs": [],
					"name": "manager",
					"outputs": [
						{
							"internalType": "address",
							"name": "",
							"type": "address"
						}
					],
					"stateMutability": "view",
					"type": "function"
				},
				{
					"inputs": [],
					"name": "minimumContribution",
					"outputs": [
						{
							"internalType": "uint256",
							"name": "",
							"type": "uint256"
						}
					],
					"stateMutability": "view",
					"type": "function"
				},
				{
					"inputs": [],
					"name": "noOfContributors",
					"outputs": [
						{
							"internalType": "uint256",
							"name": "",
							"type": "uint256"
						}
					],
					"stateMutability": "view",
					"type": "function"
				},
				{
					"inputs": [],
					"name": "numRequests",
					"outputs": [
						{
							"internalType": "uint256",
							"name": "",
							"type": "uint256"
						}
					],
					"stateMutability": "view",
					"type": "function"
				},
				{
					"inputs": [],
					"name": "raisedAmount",
					"outputs": [
						{
							"internalType": "uint256",
							"name": "",
							"type": "uint256"
						}
					],
					"stateMutability": "view",
					"type": "function"
				},
				{
					"inputs": [],
					"name": "reFund",
					"outputs": [],
					"stateMutability": "nonpayable",
					"type": "function"
				},
				{
					"inputs": [
						{
							"internalType": "uint256",
							"name": "",
							"type": "uint256"
						}
					],
					"name": "requests",
					"outputs": [
						{
							"internalType": "string",
							"name": "description",
							"type": "string"
						},
						{
							"internalType": "address payable",
							"name": "recipent",
							"type": "address"
						},
						{
							"internalType": "uint256",
							"name": "value",
							"type": "uint256"
						},
						{
							"internalType": "uint256",
							"name": "noOfVoters",
							"type": "uint256"
						},
						{
							"internalType": "bool",
							"name": "completed",
							"type": "bool"
						}
					],
					"stateMutability": "view",
					"type": "function"
				},
				{
					"inputs": [],
					"name": "sendEther",
					"outputs": [],
					"stateMutability": "payable",
					"type": "function"
				},
				{
					"inputs": [],
					"name": "target",
					"outputs": [
						{
							"internalType": "uint256",
							"name": "",
							"type": "uint256"
						}
					],
					"stateMutability": "view",
					"type": "function"
				},
				{
					"inputs": [
						{
							"internalType": "uint256",
							"name": "requestNo",
							"type": "uint256"
						}
					],
					"name": "voteRequest",
					"outputs": [],
					"stateMutability": "nonpayable",
					"type": "function"
				}
			],
			"devdoc": {
				"kind": "dev",
				"methods": {},
				"version": 1
			},
			"evm": {
				"assembly": "    /* \"Decentralized CrowdFunding Application/CrowdFunding.sol\":61:3021  contract CrowdFunding {... */\n  mstore(0x40, 0x80)\n    /* \"Decentralized CrowdFunding Application/CrowdFunding.sol\":623:824  constructor (uint _deadLine , uint _target) {... */\n  callvalue\n  dup1\n  iszero\n  tag_1\n  jumpi\n  0x00\n  dup1\n  revert\ntag_1:\n  pop\n  mload(0x40)\n  sub(codesize, bytecodeSize)\n  dup1\n  bytecodeSize\n  dup4\n  codecopy\n  dup2\n  dup2\n  add\n  0x40\n  mstore\n  dup2\n  add\n  swap1\n  tag_2\n  swap2\n  swap1\n  tag_3\n  jump\t// in\ntag_2:\n    /* \"Decentralized CrowdFunding Application/CrowdFunding.sol\":687:694  _target */\n  dup1\n    /* \"Decentralized CrowdFunding Application/CrowdFunding.sol\":678:684  target */\n  0x04\n    /* \"Decentralized CrowdFunding Application/CrowdFunding.sol\":678:694  target = _target */\n  dup2\n  swap1\n  sstore\n  pop\n    /* \"Decentralized CrowdFunding Application/CrowdFunding.sol\":734:743  _deadLine */\n  dup2\n    /* \"Decentralized CrowdFunding Application/CrowdFunding.sol\":716:731  block.timestamp */\n  timestamp\n    /* \"Decentralized CrowdFunding Application/CrowdFunding.sol\":716:743  block.timestamp + _deadLine */\n  tag_6\n  swap2\n  swap1\n  tag_7\n  jump\t// in\ntag_6:\n    /* \"Decentralized CrowdFunding Application/CrowdFunding.sol\":705:713  deadLine */\n  0x03\n    /* \"Decentralized CrowdFunding Application/CrowdFunding.sol\":705:743  deadLine = block.timestamp + _deadLine */\n  dup2\n  swap1\n  sstore\n  pop\n    /* \"Decentralized CrowdFunding Application/CrowdFunding.sol\":776:784  1 * 1e16 */\n  0x2386f26fc10000\n    /* \"Decentralized CrowdFunding Application/CrowdFunding.sol\":754:773  minimumContribution */\n  0x02\n    /* \"Decentralized CrowdFunding Application/CrowdFunding.sol\":754:784  minimumContribution = 1 * 1e16 */\n  dup2\n  swap1\n  sstore\n  pop\n    /* \"Decentralized CrowdFunding Application/CrowdFunding.sol\":805:815  msg.sender */\n  caller\n    /* \"Decentralized CrowdFunding Application/CrowdFunding.sol\":795:802  manager */\n  0x01\n  0x00\n    /* \"Decentralized CrowdFunding Application/CrowdFunding.sol\":795:815  manager = msg.sender */\n  0x0100\n  exp\n  dup2\n  sload\n  dup2\n  0xffffffffffffffffffffffffffffffffffffffff\n  mul\n  not\n  and\n  swap1\n  dup4\n  0xffffffffffffffffffffffffffffffffffffffff\n  and\n  mul\n  or\n  swap1\n  sstore\n  pop\n    /* \"Decentralized CrowdFunding Application/CrowdFunding.sol\":623:824  constructor (uint _deadLine , uint _target) {... */\n  pop\n  pop\n    /* \"Decentralized CrowdFunding Application/CrowdFunding.sol\":61:3021  contract CrowdFunding {... */\n  jump(tag_8)\n    /* \"#utility.yul\":88:205   */\ntag_10:\n    /* \"#utility.yul\":197:198   */\n  0x00\n    /* \"#utility.yul\":194:195   */\n  dup1\n    /* \"#utility.yul\":187:199   */\n  revert\n    /* \"#utility.yul\":334:411   */\ntag_12:\n    /* \"#utility.yul\":371:378   */\n  0x00\n    /* \"#utility.yul\":400:405   */\n  dup2\n    /* \"#utility.yul\":389:405   */\n  swap1\n  pop\n    /* \"#utility.yul\":334:411   */\n  swap2\n  swap1\n  pop\n  jump\t// out\n    /* \"#utility.yul\":417:539   */\ntag_13:\n    /* \"#utility.yul\":490:514   */\n  tag_22\n    /* \"#utility.yul\":508:513   */\n  dup2\n    /* \"#utility.yul\":490:514   */\n  tag_12\n  jump\t// in\ntag_22:\n    /* \"#utility.yul\":483:488   */\n  dup2\n    /* \"#utility.yul\":480:515   */\n  eq\n    /* \"#utility.yul\":470:533   */\n  tag_23\n  jumpi\n    /* \"#utility.yul\":529:530   */\n  0x00\n    /* \"#utility.yul\":526:527   */\n  dup1\n    /* \"#utility.yul\":519:531   */\n  revert\n    /* \"#utility.yul\":470:533   */\ntag_23:\n    /* \"#utility.yul\":417:539   */\n  pop\n  jump\t// out\n    /* \"#utility.yul\":545:688   */\ntag_14:\n    /* \"#utility.yul\":602:607   */\n  0x00\n    /* \"#utility.yul\":633:639   */\n  dup2\n    /* \"#utility.yul\":627:640   */\n  mload\n    /* \"#utility.yul\":618:640   */\n  swap1\n  pop\n    /* \"#utility.yul\":649:682   */\n  tag_25\n    /* \"#utility.yul\":676:681   */\n  dup2\n    /* \"#utility.yul\":649:682   */\n  tag_13\n  jump\t// in\ntag_25:\n    /* \"#utility.yul\":545:688   */\n  swap3\n  swap2\n  pop\n  pop\n  jump\t// out\n    /* \"#utility.yul\":694:1201   */\ntag_3:\n    /* \"#utility.yul\":773:779   */\n  0x00\n    /* \"#utility.yul\":781:787   */\n  dup1\n    /* \"#utility.yul\":830:832   */\n  0x40\n    /* \"#utility.yul\":818:827   */\n  dup4\n    /* \"#utility.yul\":809:816   */\n  dup6\n    /* \"#utility.yul\":805:828   */\n  sub\n    /* \"#utility.yul\":801:833   */\n  slt\n    /* \"#utility.yul\":798:917   */\n  iszero\n  tag_27\n  jumpi\n    /* \"#utility.yul\":836:915   */\n  tag_28\n  tag_10\n  jump\t// in\ntag_28:\n    /* \"#utility.yul\":798:917   */\ntag_27:\n    /* \"#utility.yul\":956:957   */\n  0x00\n    /* \"#utility.yul\":981:1045   */\n  tag_29\n    /* \"#utility.yul\":1037:1044   */\n  dup6\n    /* \"#utility.yul\":1028:1034   */\n  dup3\n    /* \"#utility.yul\":1017:1026   */\n  dup7\n    /* \"#utility.yul\":1013:1035   */\n  add\n    /* \"#utility.yul\":981:1045   */\n  tag_14\n  jump\t// in\ntag_29:\n    /* \"#utility.yul\":971:1045   */\n  swap3\n  pop\n    /* \"#utility.yul\":927:1055   */\n  pop\n    /* \"#utility.yul\":1094:1096   */\n  0x20\n    /* \"#utility.yul\":1120:1184   */\n  tag_30\n    /* \"#utility.yul\":1176:1183   */\n  dup6\n    /* \"#utility.yul\":1167:1173   */\n  dup3\n    /* \"#utility.yul\":1156:1165   */\n  dup7\n    /* \"#utility.yul\":1152:1174   */\n  add\n    /* \"#utility.yul\":1120:1184   */\n  tag_14\n  jump\t// in\ntag_30:\n    /* \"#utility.yul\":1110:1184   */\n  swap2\n  pop\n    /* \"#utility.yul\":1065:1194   */\n  pop\n    /* \"#utility.yul\":694:1201   */\n  swap3\n  pop\n  swap3\n  swap1\n  pop\n  jump\t// out\n    /* \"#utility.yul\":1207:1387   */\ntag_15:\n    /* \"#utility.yul\":1255:1332   */\n  0x4e487b7100000000000000000000000000000000000000000000000000000000\n    /* \"#utility.yul\":1252:1253   */\n  0x00\n    /* \"#utility.yul\":1245:1333   */\n  mstore\n    /* \"#utility.yul\":1352:1356   */\n  0x11\n    /* \"#utility.yul\":1349:1350   */\n  0x04\n    /* \"#utility.yul\":1342:1357   */\n  mstore\n    /* \"#utility.yul\":1376:1380   */\n  0x24\n    /* \"#utility.yul\":1373:1374   */\n  0x00\n    /* \"#utility.yul\":1366:1381   */\n  revert\n    /* \"#utility.yul\":1393:1584   */\ntag_7:\n    /* \"#utility.yul\":1433:1436   */\n  0x00\n    /* \"#utility.yul\":1452:1472   */\n  tag_33\n    /* \"#utility.yul\":1470:1471   */\n  dup3\n    /* \"#utility.yul\":1452:1472   */\n  tag_12\n  jump\t// in\ntag_33:\n    /* \"#utility.yul\":1447:1472   */\n  swap2\n  pop\n    /* \"#utility.yul\":1486:1506   */\n  tag_34\n    /* \"#utility.yul\":1504:1505   */\n  dup4\n    /* \"#utility.yul\":1486:1506   */\n  tag_12\n  jump\t// in\ntag_34:\n    /* \"#utility.yul\":1481:1506   */\n  swap3\n  pop\n    /* \"#utility.yul\":1529:1530   */\n  dup3\n    /* \"#utility.yul\":1526:1527   */\n  dup3\n    /* \"#utility.yul\":1522:1531   */\n  add\n    /* \"#utility.yul\":1515:1531   */\n  swap1\n  pop\n    /* \"#utility.yul\":1550:1553   */\n  dup1\n    /* \"#utility.yul\":1547:1548   */\n  dup3\n    /* \"#utility.yul\":1544:1554   */\n  gt\n    /* \"#utility.yul\":1541:1577   */\n  iszero\n  tag_35\n  jumpi\n    /* \"#utility.yul\":1557:1575   */\n  tag_36\n  tag_15\n  jump\t// in\ntag_36:\n    /* \"#utility.yul\":1541:1577   */\ntag_35:\n    /* \"#utility.yul\":1393:1584   */\n  swap3\n  swap2\n  pop\n  pop\n  jump\t// out\n    /* \"Decentralized CrowdFunding Application/CrowdFunding.sol\":61:3021  contract CrowdFunding {... */\ntag_8:\n  dataSize(sub_0)\n  dup1\n  dataOffset(sub_0)\n  0x00\n  codecopy\n  0x00\n  return\nstop\n\nsub_0: assembly {\n        /* \"Decentralized CrowdFunding Application/CrowdFunding.sol\":61:3021  contract CrowdFunding {... */\n      mstore(0x40, 0x80)\n      jumpi(tag_1, lt(calldatasize, 0x04))\n      shr(0xe0, calldataload(0x00))\n      dup1\n      0x81d12c58\n      gt\n      tag_17\n      jumpi\n      dup1\n      0xbef3a083\n      gt\n      tag_18\n      jumpi\n      dup1\n      0xbef3a083\n      eq\n      tag_13\n      jumpi\n      dup1\n      0xc59ee1dc\n      eq\n      tag_14\n      jumpi\n      dup1\n      0xd4b83992\n      eq\n      tag_15\n      jumpi\n      dup1\n      0xdfe3832a\n      eq\n      tag_16\n      jumpi\n      jump(tag_1)\n    tag_18:\n      dup1\n      0x81d12c58\n      eq\n      tag_9\n      jumpi\n      dup1\n      0x937e09b1\n      eq\n      tag_10\n      jumpi\n      dup1\n      0x9fb42b1f\n      eq\n      tag_11\n      jumpi\n      dup1\n      0xa7a594e4\n      eq\n      tag_12\n      jumpi\n      jump(tag_1)\n    tag_17:\n      dup1\n      0x4cb6f4a5\n      gt\n      tag_19\n      jumpi\n      dup1\n      0x4cb6f4a5\n      eq\n      tag_5\n      jumpi\n      dup1\n      0x4e260f6f\n      eq\n      tag_6\n      jumpi\n      dup1\n      0x5114cb52\n      eq\n      tag_7\n      jumpi\n      dup1\n      0x6f9fb98a\n      eq\n      tag_8\n      jumpi\n      jump(tag_1)\n    tag_19:\n      dup1\n      0x0e29df22\n      eq\n      tag_2\n      jumpi\n      dup1\n      0x0ff0a4df\n      eq\n      tag_3\n      jumpi\n      dup1\n      0x481c6a75\n      eq\n      tag_4\n      jumpi\n    tag_1:\n      0x00\n      dup1\n      revert\n        /* \"Decentralized CrowdFunding Application/CrowdFunding.sol\":832:1219  function sendEther () payable public {... */\n    tag_2:\n      tag_20\n      tag_21\n      jump\t// in\n    tag_20:\n      stop\n        /* \"Decentralized CrowdFunding Application/CrowdFunding.sol\":1227:1557  function reFund () public {... */\n    tag_3:\n      callvalue\n      dup1\n      iszero\n      tag_22\n      jumpi\n      0x00\n      dup1\n      revert\n    tag_22:\n      pop\n      tag_23\n      tag_24\n      jump\t// in\n    tag_23:\n      stop\n        /* \"Decentralized CrowdFunding Application/CrowdFunding.sol\":141:163  address public manager */\n    tag_4:\n      callvalue\n      dup1\n      iszero\n      tag_25\n      jumpi\n      0x00\n      dup1\n      revert\n    tag_25:\n      pop\n      tag_26\n      tag_27\n      jump\t// in\n    tag_26:\n      mload(0x40)\n      tag_28\n      swap2\n      swap1\n      tag_29\n      jump\t// in\n    tag_28:\n      mload(0x40)\n      dup1\n      swap2\n      sub\n      swap1\n      return\n        /* \"Decentralized CrowdFunding Application/CrowdFunding.sol\":2206:2579  function voteRequest (uint requestNo) public {... */\n    tag_5:\n      callvalue\n      dup1\n      iszero\n      tag_30\n      jumpi\n      0x00\n      dup1\n      revert\n    tag_30:\n      pop\n      tag_31\n      0x04\n      dup1\n      calldatasize\n      sub\n      dup2\n      add\n      swap1\n      tag_32\n      swap2\n      swap1\n      tag_33\n      jump\t// in\n    tag_32:\n      tag_34\n      jump\t// in\n    tag_31:\n      stop\n        /* \"Decentralized CrowdFunding Application/CrowdFunding.sol\":291:319  uint public noOfContributors */\n    tag_6:\n      callvalue\n      dup1\n      iszero\n      tag_35\n      jumpi\n      0x00\n      dup1\n      revert\n    tag_35:\n      pop\n      tag_36\n      tag_37\n      jump\t// in\n    tag_36:\n      mload(0x40)\n      tag_38\n      swap2\n      swap1\n      tag_39\n      jump\t// in\n    tag_38:\n      mload(0x40)\n      dup1\n      swap2\n      sub\n      swap1\n      return\n        /* \"Decentralized CrowdFunding Application/CrowdFunding.sol\":2587:3018  function makePayment (uint requestNo) public {... */\n    tag_7:\n      callvalue\n      dup1\n      iszero\n      tag_40\n      jumpi\n      0x00\n      dup1\n      revert\n    tag_40:\n      pop\n      tag_41\n      0x04\n      dup1\n      calldatasize\n      sub\n      dup2\n      add\n      swap1\n      tag_42\n      swap2\n      swap1\n      tag_33\n      jump\t// in\n    tag_42:\n      tag_43\n      jump\t// in\n    tag_41:\n      stop\n        /* \"Decentralized CrowdFunding Application/CrowdFunding.sol\":1565:1670  function getContractBalance () public view returns (uint) {... */\n    tag_8:\n      callvalue\n      dup1\n      iszero\n      tag_44\n      jumpi\n      0x00\n      dup1\n      revert\n    tag_44:\n      pop\n      tag_45\n      tag_46\n      jump\t// in\n    tag_45:\n      mload(0x40)\n      tag_47\n      swap2\n      swap1\n      tag_39\n      jump\t// in\n    tag_47:\n      mload(0x40)\n      dup1\n      swap2\n      sub\n      swap1\n      return\n        /* \"Decentralized CrowdFunding Application/CrowdFunding.sol\":543:584  mapping (uint => Request) public requests */\n    tag_9:\n      callvalue\n      dup1\n      iszero\n      tag_48\n      jumpi\n      0x00\n      dup1\n      revert\n    tag_48:\n      pop\n      tag_49\n      0x04\n      dup1\n      calldatasize\n      sub\n      dup2\n      add\n      swap1\n      tag_50\n      swap2\n      swap1\n      tag_33\n      jump\t// in\n    tag_50:\n      tag_51\n      jump\t// in\n    tag_49:\n      mload(0x40)\n      tag_52\n      swap6\n      swap5\n      swap4\n      swap3\n      swap2\n      swap1\n      tag_53\n      jump\t// in\n    tag_52:\n      mload(0x40)\n      dup1\n      swap2\n      sub\n      swap1\n      return\n        /* \"Decentralized CrowdFunding Application/CrowdFunding.sol\":170:201  uint public minimumContribution */\n    tag_10:\n      callvalue\n      dup1\n      iszero\n      tag_54\n      jumpi\n      0x00\n      dup1\n      revert\n    tag_54:\n      pop\n      tag_55\n      tag_56\n      jump\t// in\n    tag_55:\n      mload(0x40)\n      tag_57\n      swap2\n      swap1\n      tag_39\n      jump\t// in\n    tag_57:\n      mload(0x40)\n      dup1\n      swap2\n      sub\n      swap1\n      return\n        /* \"Decentralized CrowdFunding Application/CrowdFunding.sol\":591:614  uint public numRequests */\n    tag_11:\n      callvalue\n      dup1\n      iszero\n      tag_58\n      jumpi\n      0x00\n      dup1\n      revert\n    tag_58:\n      pop\n      tag_59\n      tag_60\n      jump\t// in\n    tag_59:\n      mload(0x40)\n      tag_61\n      swap2\n      swap1\n      tag_39\n      jump\t// in\n    tag_61:\n      mload(0x40)\n      dup1\n      swap2\n      sub\n      swap1\n      return\n        /* \"Decentralized CrowdFunding Application/CrowdFunding.sol\":1799:2198  function createNewRequest (string memory _description , address payable _recipent , uint _value) public {... */\n    tag_12:\n      callvalue\n      dup1\n      iszero\n      tag_62\n      jumpi\n      0x00\n      dup1\n      revert\n    tag_62:\n      pop\n      tag_63\n      0x04\n      dup1\n      calldatasize\n      sub\n      dup2\n      add\n      swap1\n      tag_64\n      swap2\n      swap1\n      tag_65\n      jump\t// in\n    tag_64:\n      tag_66\n      jump\t// in\n    tag_63:\n      stop\n        /* \"Decentralized CrowdFunding Application/CrowdFunding.sol\":208:228  uint public deadLine */\n    tag_13:\n      callvalue\n      dup1\n      iszero\n      tag_67\n      jumpi\n      0x00\n      dup1\n      revert\n    tag_67:\n      pop\n      tag_68\n      tag_69\n      jump\t// in\n    tag_68:\n      mload(0x40)\n      tag_70\n      swap2\n      swap1\n      tag_39\n      jump\t// in\n    tag_70:\n      mload(0x40)\n      dup1\n      swap2\n      sub\n      swap1\n      return\n        /* \"Decentralized CrowdFunding Application/CrowdFunding.sol\":260:284  uint public raisedAmount */\n    tag_14:\n      callvalue\n      dup1\n      iszero\n      tag_71\n      jumpi\n      0x00\n      dup1\n      revert\n    tag_71:\n      pop\n      tag_72\n      tag_73\n      jump\t// in\n    tag_72:\n      mload(0x40)\n      tag_74\n      swap2\n      swap1\n      tag_39\n      jump\t// in\n    tag_74:\n      mload(0x40)\n      dup1\n      swap2\n      sub\n      swap1\n      return\n        /* \"Decentralized CrowdFunding Application/CrowdFunding.sol\":235:253  uint public target */\n    tag_15:\n      callvalue\n      dup1\n      iszero\n      tag_75\n      jumpi\n      0x00\n      dup1\n      revert\n    tag_75:\n      pop\n      tag_76\n      tag_77\n      jump\t// in\n    tag_76:\n      mload(0x40)\n      tag_78\n      swap2\n      swap1\n      tag_39\n      jump\t// in\n    tag_78:\n      mload(0x40)\n      dup1\n      swap2\n      sub\n      swap1\n      return\n        /* \"Decentralized CrowdFunding Application/CrowdFunding.sol\":90:134  mapping(address => uint) public Contributors */\n    tag_16:\n      callvalue\n      dup1\n      iszero\n      tag_79\n      jumpi\n      0x00\n      dup1\n      revert\n    tag_79:\n      pop\n      tag_80\n      0x04\n      dup1\n      calldatasize\n      sub\n      dup2\n      add\n      swap1\n      tag_81\n      swap2\n      swap1\n      tag_82\n      jump\t// in\n    tag_81:\n      tag_83\n      jump\t// in\n    tag_80:\n      mload(0x40)\n      tag_84\n      swap2\n      swap1\n      tag_39\n      jump\t// in\n    tag_84:\n      mload(0x40)\n      dup1\n      swap2\n      sub\n      swap1\n      return\n        /* \"Decentralized CrowdFunding Application/CrowdFunding.sol\":832:1219  function sendEther () payable public {... */\n    tag_21:\n        /* \"Decentralized CrowdFunding Application/CrowdFunding.sol\":907:915  deadLine */\n      sload(0x03)\n        /* \"Decentralized CrowdFunding Application/CrowdFunding.sol\":889:904  block.timestamp */\n      timestamp\n        /* \"Decentralized CrowdFunding Application/CrowdFunding.sol\":889:915  block.timestamp < deadLine */\n      lt\n        /* \"Decentralized CrowdFunding Application/CrowdFunding.sol\":880:945  require (block.timestamp < deadLine , \"DeadLine has been Passed\") */\n      tag_86\n      jumpi\n      mload(0x40)\n      0x08c379a000000000000000000000000000000000000000000000000000000000\n      dup2\n      mstore\n      0x04\n      add\n      tag_87\n      swap1\n      tag_88\n      jump\t// in\n    tag_87:\n      mload(0x40)\n      dup1\n      swap2\n      sub\n      swap1\n      revert\n    tag_86:\n        /* \"Decentralized CrowdFunding Application/CrowdFunding.sol\":978:997  minimumContribution */\n      sload(0x02)\n        /* \"Decentralized CrowdFunding Application/CrowdFunding.sol\":965:974  msg.value */\n      callvalue\n        /* \"Decentralized CrowdFunding Application/CrowdFunding.sol\":965:997  msg.value >= minimumContribution */\n      lt\n      iszero\n        /* \"Decentralized CrowdFunding Application/CrowdFunding.sol\":956:1033  require (msg.value >= minimumContribution , \"You need to send at least 1Eth\") */\n      tag_89\n      jumpi\n      mload(0x40)\n      0x08c379a000000000000000000000000000000000000000000000000000000000\n      dup2\n      mstore\n      0x04\n      add\n      tag_90\n      swap1\n      tag_91\n      jump\t// in\n    tag_90:\n      mload(0x40)\n      dup1\n      swap2\n      sub\n      swap1\n      revert\n    tag_89:\n        /* \"Decentralized CrowdFunding Application/CrowdFunding.sol\":1076:1077  0 */\n      0x00\n        /* \"Decentralized CrowdFunding Application/CrowdFunding.sol\":1047:1059  Contributors */\n      dup1\n        /* \"Decentralized CrowdFunding Application/CrowdFunding.sol\":1047:1072  Contributors [msg.sender] */\n      0x00\n        /* \"Decentralized CrowdFunding Application/CrowdFunding.sol\":1061:1071  msg.sender */\n      caller\n        /* \"Decentralized CrowdFunding Application/CrowdFunding.sol\":1047:1072  Contributors [msg.sender] */\n      0xffffffffffffffffffffffffffffffffffffffff\n      and\n      0xffffffffffffffffffffffffffffffffffffffff\n      and\n      dup2\n      mstore\n      0x20\n      add\n      swap1\n      dup2\n      mstore\n      0x20\n      add\n      0x00\n      keccak256\n      sload\n        /* \"Decentralized CrowdFunding Application/CrowdFunding.sol\":1047:1077  Contributors [msg.sender] == 0 */\n      sub\n        /* \"Decentralized CrowdFunding Application/CrowdFunding.sol\":1044:1124  if(Contributors [msg.sender] == 0) {... */\n      tag_92\n      jumpi\n        /* \"Decentralized CrowdFunding Application/CrowdFunding.sol\":1094:1110  noOfContributors */\n      0x06\n      0x00\n        /* \"Decentralized CrowdFunding Application/CrowdFunding.sol\":1094:1112  noOfContributors++ */\n      dup2\n      sload\n      dup1\n      swap3\n      swap2\n      swap1\n      tag_93\n      swap1\n      tag_94\n      jump\t// in\n    tag_93:\n      swap2\n      swap1\n      pop\n      sstore\n      pop\n        /* \"Decentralized CrowdFunding Application/CrowdFunding.sol\":1044:1124  if(Contributors [msg.sender] == 0) {... */\n    tag_92:\n        /* \"Decentralized CrowdFunding Application/CrowdFunding.sol\":1163:1172  msg.value */\n      callvalue\n        /* \"Decentralized CrowdFunding Application/CrowdFunding.sol\":1134:1146  Contributors */\n      0x00\n        /* \"Decentralized CrowdFunding Application/CrowdFunding.sol\":1134:1159  Contributors [msg.sender] */\n      dup1\n        /* \"Decentralized CrowdFunding Application/CrowdFunding.sol\":1148:1158  msg.sender */\n      caller\n        /* \"Decentralized CrowdFunding Application/CrowdFunding.sol\":1134:1159  Contributors [msg.sender] */\n      0xffffffffffffffffffffffffffffffffffffffff\n      and\n      0xffffffffffffffffffffffffffffffffffffffff\n      and\n      dup2\n      mstore\n      0x20\n      add\n      swap1\n      dup2\n      mstore\n      0x20\n      add\n      0x00\n      keccak256\n      0x00\n        /* \"Decentralized CrowdFunding Application/CrowdFunding.sol\":1134:1172  Contributors [msg.sender] += msg.value */\n      dup3\n      dup3\n      sload\n      tag_95\n      swap2\n      swap1\n      tag_96\n      jump\t// in\n    tag_95:\n      swap3\n      pop\n      pop\n      dup2\n      swap1\n      sstore\n      pop\n        /* \"Decentralized CrowdFunding Application/CrowdFunding.sol\":1199:1208  msg.value */\n      callvalue\n        /* \"Decentralized CrowdFunding Application/CrowdFunding.sol\":1183:1195  raisedAmount */\n      0x05\n      0x00\n        /* \"Decentralized CrowdFunding Application/CrowdFunding.sol\":1183:1208  raisedAmount += msg.value */\n      dup3\n      dup3\n      sload\n      tag_97\n      swap2\n      swap1\n      tag_96\n      jump\t// in\n    tag_97:\n      swap3\n      pop\n      pop\n      dup2\n      swap1\n      sstore\n      pop\n        /* \"Decentralized CrowdFunding Application/CrowdFunding.sol\":832:1219  function sendEther () payable public {... */\n      jump\t// out\n        /* \"Decentralized CrowdFunding Application/CrowdFunding.sol\":1227:1557  function reFund () public {... */\n    tag_24:\n        /* \"Decentralized CrowdFunding Application/CrowdFunding.sol\":1291:1299  deadLine */\n      sload(0x03)\n        /* \"Decentralized CrowdFunding Application/CrowdFunding.sol\":1273:1288  block.timestamp */\n      timestamp\n        /* \"Decentralized CrowdFunding Application/CrowdFunding.sol\":1273:1299  block.timestamp > deadLine */\n      gt\n        /* \"Decentralized CrowdFunding Application/CrowdFunding.sol\":1273:1324  block.timestamp > deadLine && raisedAmount < target */\n      dup1\n      iszero\n      tag_99\n      jumpi\n      pop\n        /* \"Decentralized CrowdFunding Application/CrowdFunding.sol\":1318:1324  target */\n      sload(0x04)\n        /* \"Decentralized CrowdFunding Application/CrowdFunding.sol\":1303:1315  raisedAmount */\n      sload(0x05)\n        /* \"Decentralized CrowdFunding Application/CrowdFunding.sol\":1303:1324  raisedAmount < target */\n      lt\n        /* \"Decentralized CrowdFunding Application/CrowdFunding.sol\":1273:1324  block.timestamp > deadLine && raisedAmount < target */\n    tag_99:\n        /* \"Decentralized CrowdFunding Application/CrowdFunding.sol\":1264:1359  require (block.timestamp > deadLine && raisedAmount < target , \"You're not eligible to ReFund\") */\n      tag_100\n      jumpi\n      mload(0x40)\n      0x08c379a000000000000000000000000000000000000000000000000000000000\n      dup2\n      mstore\n      0x04\n      add\n      tag_101\n      swap1\n      tag_102\n      jump\t// in\n    tag_101:\n      mload(0x40)\n      dup1\n      swap2\n      sub\n      swap1\n      revert\n    tag_100:\n        /* \"Decentralized CrowdFunding Application/CrowdFunding.sol\":1407:1408  0 */\n      0x00\n        /* \"Decentralized CrowdFunding Application/CrowdFunding.sol\":1379:1391  Contributors */\n      dup1\n        /* \"Decentralized CrowdFunding Application/CrowdFunding.sol\":1379:1404  Contributors [msg.sender] */\n      0x00\n        /* \"Decentralized CrowdFunding Application/CrowdFunding.sol\":1393:1403  msg.sender */\n      caller\n        /* \"Decentralized CrowdFunding Application/CrowdFunding.sol\":1379:1404  Contributors [msg.sender] */\n      0xffffffffffffffffffffffffffffffffffffffff\n      and\n      0xffffffffffffffffffffffffffffffffffffffff\n      and\n      dup2\n      mstore\n      0x20\n      add\n      swap1\n      dup2\n      mstore\n      0x20\n      add\n      0x00\n      keccak256\n      sload\n        /* \"Decentralized CrowdFunding Application/CrowdFunding.sol\":1379:1408  Contributors [msg.sender] > 0 */\n      gt\n        /* \"Decentralized CrowdFunding Application/CrowdFunding.sol\":1370:1444  require (Contributors [msg.sender] > 0 , \"You have not deposit any Money\") */\n      tag_103\n      jumpi\n      mload(0x40)\n      0x08c379a000000000000000000000000000000000000000000000000000000000\n      dup2\n      mstore\n      0x04\n      add\n      tag_104\n      swap1\n      tag_105\n      jump\t// in\n    tag_104:\n      mload(0x40)\n      dup1\n      swap2\n      sub\n      swap1\n      revert\n    tag_103:\n        /* \"Decentralized CrowdFunding Application/CrowdFunding.sol\":1455:1475  address payable user */\n      0x00\n        /* \"Decentralized CrowdFunding Application/CrowdFunding.sol\":1487:1497  msg.sender */\n      caller\n        /* \"Decentralized CrowdFunding Application/CrowdFunding.sol\":1455:1498  address payable user = payable (msg.sender) */\n      swap1\n      pop\n        /* \"Decentralized CrowdFunding Application/CrowdFunding.sol\":1509:1513  user */\n      dup1\n        /* \"Decentralized CrowdFunding Application/CrowdFunding.sol\":1509:1522  user.transfer */\n      0xffffffffffffffffffffffffffffffffffffffff\n      and\n        /* \"Decentralized CrowdFunding Application/CrowdFunding.sol\":1509:1549  user.transfer(Contributors [msg.sender]) */\n      0x08fc\n        /* \"Decentralized CrowdFunding Application/CrowdFunding.sol\":1523:1535  Contributors */\n      0x00\n        /* \"Decentralized CrowdFunding Application/CrowdFunding.sol\":1523:1548  Contributors [msg.sender] */\n      dup1\n        /* \"Decentralized CrowdFunding Application/CrowdFunding.sol\":1537:1547  msg.sender */\n      caller\n        /* \"Decentralized CrowdFunding Application/CrowdFunding.sol\":1523:1548  Contributors [msg.sender] */\n      0xffffffffffffffffffffffffffffffffffffffff\n      and\n      0xffffffffffffffffffffffffffffffffffffffff\n      and\n      dup2\n      mstore\n      0x20\n      add\n      swap1\n      dup2\n      mstore\n      0x20\n      add\n      0x00\n      keccak256\n      sload\n        /* \"Decentralized CrowdFunding Application/CrowdFunding.sol\":1509:1549  user.transfer(Contributors [msg.sender]) */\n      swap1\n      dup2\n      iszero\n      mul\n      swap1\n      mload(0x40)\n      0x00\n      mload(0x40)\n      dup1\n      dup4\n      sub\n      dup2\n      dup6\n      dup9\n      dup9\n      call\n      swap4\n      pop\n      pop\n      pop\n      pop\n      iszero\n      dup1\n      iszero\n      tag_107\n      jumpi\n      returndatasize\n      0x00\n      dup1\n      returndatacopy\n      revert(0x00, returndatasize)\n    tag_107:\n      pop\n        /* \"Decentralized CrowdFunding Application/CrowdFunding.sol\":1253:1557  {... */\n      pop\n        /* \"Decentralized CrowdFunding Application/CrowdFunding.sol\":1227:1557  function reFund () public {... */\n      jump\t// out\n        /* \"Decentralized CrowdFunding Application/CrowdFunding.sol\":141:163  address public manager */\n    tag_27:\n      0x01\n      0x00\n      swap1\n      sload\n      swap1\n      0x0100\n      exp\n      swap1\n      div\n      0xffffffffffffffffffffffffffffffffffffffff\n      and\n      dup2\n      jump\t// out\n        /* \"Decentralized CrowdFunding Application/CrowdFunding.sol\":2206:2579  function voteRequest (uint requestNo) public {... */\n    tag_34:\n        /* \"Decentralized CrowdFunding Application/CrowdFunding.sol\":2299:2300  0 */\n      0x00\n        /* \"Decentralized CrowdFunding Application/CrowdFunding.sol\":2271:2283  Contributors */\n      dup1\n        /* \"Decentralized CrowdFunding Application/CrowdFunding.sol\":2271:2296  Contributors [msg.sender] */\n      0x00\n        /* \"Decentralized CrowdFunding Application/CrowdFunding.sol\":2285:2295  msg.sender */\n      caller\n        /* \"Decentralized CrowdFunding Application/CrowdFunding.sol\":2271:2296  Contributors [msg.sender] */\n      0xffffffffffffffffffffffffffffffffffffffff\n      and\n      0xffffffffffffffffffffffffffffffffffffffff\n      and\n      dup2\n      mstore\n      0x20\n      add\n      swap1\n      dup2\n      mstore\n      0x20\n      add\n      0x00\n      keccak256\n      sload\n        /* \"Decentralized CrowdFunding Application/CrowdFunding.sol\":2271:2300  Contributors [msg.sender] > 0 */\n      gt\n        /* \"Decentralized CrowdFunding Application/CrowdFunding.sol\":2262:2331  require (Contributors [msg.sender] > 0 , \"You must be a Contributor\") */\n      tag_109\n      jumpi\n      mload(0x40)\n      0x08c379a000000000000000000000000000000000000000000000000000000000\n      dup2\n      mstore\n      0x04\n      add\n      tag_110\n      swap1\n      tag_111\n      jump\t// in\n    tag_110:\n      mload(0x40)\n      dup1\n      swap2\n      sub\n      swap1\n      revert\n    tag_109:\n        /* \"Decentralized CrowdFunding Application/CrowdFunding.sol\":2342:2369  Request storage thisRequest */\n      0x00\n        /* \"Decentralized CrowdFunding Application/CrowdFunding.sol\":2372:2380  requests */\n      0x07\n        /* \"Decentralized CrowdFunding Application/CrowdFunding.sol\":2372:2392  requests [requestNo] */\n      0x00\n        /* \"Decentralized CrowdFunding Application/CrowdFunding.sol\":2382:2391  requestNo */\n      dup4\n        /* \"Decentralized CrowdFunding Application/CrowdFunding.sol\":2372:2392  requests [requestNo] */\n      dup2\n      mstore\n      0x20\n      add\n      swap1\n      dup2\n      mstore\n      0x20\n      add\n      0x00\n      keccak256\n        /* \"Decentralized CrowdFunding Application/CrowdFunding.sol\":2342:2392  Request storage thisRequest = requests [requestNo] */\n      swap1\n      pop\n        /* \"Decentralized CrowdFunding Application/CrowdFunding.sol\":2451:2456  false */\n      0x00\n        /* \"Decentralized CrowdFunding Application/CrowdFunding.sol\":2412:2456  thisRequest.validators [msg.sender] == false */\n      iszero\n      iszero\n        /* \"Decentralized CrowdFunding Application/CrowdFunding.sol\":2412:2423  thisRequest */\n      dup2\n        /* \"Decentralized CrowdFunding Application/CrowdFunding.sol\":2412:2434  thisRequest.validators */\n      0x05\n      add\n        /* \"Decentralized CrowdFunding Application/CrowdFunding.sol\":2412:2447  thisRequest.validators [msg.sender] */\n      0x00\n        /* \"Decentralized CrowdFunding Application/CrowdFunding.sol\":2436:2446  msg.sender */\n      caller\n        /* \"Decentralized CrowdFunding Application/CrowdFunding.sol\":2412:2447  thisRequest.validators [msg.sender] */\n      0xffffffffffffffffffffffffffffffffffffffff\n      and\n      0xffffffffffffffffffffffffffffffffffffffff\n      and\n      dup2\n      mstore\n      0x20\n      add\n      swap1\n      dup2\n      mstore\n      0x20\n      add\n      0x00\n      keccak256\n      0x00\n      swap1\n      sload\n      swap1\n      0x0100\n      exp\n      swap1\n      div\n      0xff\n      and\n        /* \"Decentralized CrowdFunding Application/CrowdFunding.sol\":2412:2456  thisRequest.validators [msg.sender] == false */\n      iszero\n      iszero\n      eq\n        /* \"Decentralized CrowdFunding Application/CrowdFunding.sol\":2403:2483  require (thisRequest.validators [msg.sender] == false , \"You have Already Vote\") */\n      tag_112\n      jumpi\n      mload(0x40)\n      0x08c379a000000000000000000000000000000000000000000000000000000000\n      dup2\n      mstore\n      0x04\n      add\n      tag_113\n      swap1\n      tag_114\n      jump\t// in\n    tag_113:\n      mload(0x40)\n      dup1\n      swap2\n      sub\n      swap1\n      revert\n    tag_112:\n        /* \"Decentralized CrowdFunding Application/CrowdFunding.sol\":2532:2536  true */\n      0x01\n        /* \"Decentralized CrowdFunding Application/CrowdFunding.sol\":2494:2505  thisRequest */\n      dup2\n        /* \"Decentralized CrowdFunding Application/CrowdFunding.sol\":2494:2516  thisRequest.validators */\n      0x05\n      add\n        /* \"Decentralized CrowdFunding Application/CrowdFunding.sol\":2494:2529  thisRequest.validators [msg.sender] */\n      0x00\n        /* \"Decentralized CrowdFunding Application/CrowdFunding.sol\":2518:2528  msg.sender */\n      caller\n        /* \"Decentralized CrowdFunding Application/CrowdFunding.sol\":2494:2529  thisRequest.validators [msg.sender] */\n      0xffffffffffffffffffffffffffffffffffffffff\n      and\n      0xffffffffffffffffffffffffffffffffffffffff\n      and\n      dup2\n      mstore\n      0x20\n      add\n      swap1\n      dup2\n      mstore\n      0x20\n      add\n      0x00\n      keccak256\n      0x00\n        /* \"Decentralized CrowdFunding Application/CrowdFunding.sol\":2494:2536  thisRequest.validators [msg.sender] = true */\n      0x0100\n      exp\n      dup2\n      sload\n      dup2\n      0xff\n      mul\n      not\n      and\n      swap1\n      dup4\n      iszero\n      iszero\n      mul\n      or\n      swap1\n      sstore\n      pop\n        /* \"Decentralized CrowdFunding Application/CrowdFunding.sol\":2547:2558  thisRequest */\n      dup1\n        /* \"Decentralized CrowdFunding Application/CrowdFunding.sol\":2547:2569  thisRequest.noOfVoters */\n      0x03\n      add\n      0x00\n        /* \"Decentralized CrowdFunding Application/CrowdFunding.sol\":2547:2571  thisRequest.noOfVoters++ */\n      dup2\n      sload\n      dup1\n      swap3\n      swap2\n      swap1\n      tag_115\n      swap1\n      tag_94\n      jump\t// in\n    tag_115:\n      swap2\n      swap1\n      pop\n      sstore\n      pop\n        /* \"Decentralized CrowdFunding Application/CrowdFunding.sol\":2251:2579  {... */\n      pop\n        /* \"Decentralized CrowdFunding Application/CrowdFunding.sol\":2206:2579  function voteRequest (uint requestNo) public {... */\n      pop\n      jump\t// out\n        /* \"Decentralized CrowdFunding Application/CrowdFunding.sol\":291:319  uint public noOfContributors */\n    tag_37:\n      sload(0x06)\n      dup2\n      jump\t// out\n        /* \"Decentralized CrowdFunding Application/CrowdFunding.sol\":2587:3018  function makePayment (uint requestNo) public {... */\n    tag_43:\n        /* \"Decentralized CrowdFunding Application/CrowdFunding.sol\":2668:2674  target */\n      sload(0x04)\n        /* \"Decentralized CrowdFunding Application/CrowdFunding.sol\":2652:2664  raisedAmount */\n      sload(0x05)\n        /* \"Decentralized CrowdFunding Application/CrowdFunding.sol\":2652:2674  raisedAmount >= target */\n      lt\n      iszero\n        /* \"Decentralized CrowdFunding Application/CrowdFunding.sol\":2643:2675  require (raisedAmount >= target) */\n      tag_117\n      jumpi\n      0x00\n      dup1\n      revert\n    tag_117:\n        /* \"Decentralized CrowdFunding Application/CrowdFunding.sol\":2686:2713  Request storage thisRequest */\n      0x00\n        /* \"Decentralized CrowdFunding Application/CrowdFunding.sol\":2716:2724  requests */\n      0x07\n        /* \"Decentralized CrowdFunding Application/CrowdFunding.sol\":2716:2736  requests [requestNo] */\n      0x00\n        /* \"Decentralized CrowdFunding Application/CrowdFunding.sol\":2726:2735  requestNo */\n      dup4\n        /* \"Decentralized CrowdFunding Application/CrowdFunding.sol\":2716:2736  requests [requestNo] */\n      dup2\n      mstore\n      0x20\n      add\n      swap1\n      dup2\n      mstore\n      0x20\n      add\n      0x00\n      keccak256\n        /* \"Decentralized CrowdFunding Application/CrowdFunding.sol\":2686:2736  Request storage thisRequest = requests [requestNo] */\n      swap1\n      pop\n        /* \"Decentralized CrowdFunding Application/CrowdFunding.sol\":2781:2786  false */\n      0x00\n        /* \"Decentralized CrowdFunding Application/CrowdFunding.sol\":2756:2786  thisRequest.completed == false */\n      iszero\n      iszero\n        /* \"Decentralized CrowdFunding Application/CrowdFunding.sol\":2756:2767  thisRequest */\n      dup2\n        /* \"Decentralized CrowdFunding Application/CrowdFunding.sol\":2756:2777  thisRequest.completed */\n      0x04\n      add\n      0x00\n      swap1\n      sload\n      swap1\n      0x0100\n      exp\n      swap1\n      div\n      0xff\n      and\n        /* \"Decentralized CrowdFunding Application/CrowdFunding.sol\":2756:2786  thisRequest.completed == false */\n      iszero\n      iszero\n      eq\n        /* \"Decentralized CrowdFunding Application/CrowdFunding.sol\":2747:2822  require (thisRequest.completed == false , \"The Request has been Completed\") */\n      tag_118\n      jumpi\n      mload(0x40)\n      0x08c379a000000000000000000000000000000000000000000000000000000000\n      dup2\n      mstore\n      0x04\n      add\n      tag_119\n      swap1\n      tag_120\n      jump\t// in\n    tag_119:\n      mload(0x40)\n      dup1\n      swap2\n      sub\n      swap1\n      revert\n    tag_118:\n        /* \"Decentralized CrowdFunding Application/CrowdFunding.sol\":2867:2883  noOfContributors */\n      sload(0x06)\n        /* \"Decentralized CrowdFunding Application/CrowdFunding.sol\":2842:2853  thisRequest */\n      dup2\n        /* \"Decentralized CrowdFunding Application/CrowdFunding.sol\":2842:2864  thisRequest.noOfVoters */\n      0x03\n      add\n      sload\n        /* \"Decentralized CrowdFunding Application/CrowdFunding.sol\":2842:2883  thisRequest.noOfVoters > noOfContributors */\n      gt\n        /* \"Decentralized CrowdFunding Application/CrowdFunding.sol\":2833:2912  require (thisRequest.noOfVoters > noOfContributors , \"Majority does't Support\") */\n      tag_121\n      jumpi\n      mload(0x40)\n      0x08c379a000000000000000000000000000000000000000000000000000000000\n      dup2\n      mstore\n      0x04\n      add\n      tag_122\n      swap1\n      tag_123\n      jump\t// in\n    tag_122:\n      mload(0x40)\n      dup1\n      swap2\n      sub\n      swap1\n      revert\n    tag_121:\n        /* \"Decentralized CrowdFunding Application/CrowdFunding.sol\":2923:2934  thisRequest */\n      dup1\n        /* \"Decentralized CrowdFunding Application/CrowdFunding.sol\":2923:2943  thisRequest.recipent */\n      0x01\n      add\n      0x00\n      swap1\n      sload\n      swap1\n      0x0100\n      exp\n      swap1\n      div\n      0xffffffffffffffffffffffffffffffffffffffff\n      and\n        /* \"Decentralized CrowdFunding Application/CrowdFunding.sol\":2923:2952  thisRequest.recipent.transfer */\n      0xffffffffffffffffffffffffffffffffffffffff\n      and\n        /* \"Decentralized CrowdFunding Application/CrowdFunding.sol\":2923:2971  thisRequest.recipent.transfer(thisRequest.value) */\n      0x08fc\n        /* \"Decentralized CrowdFunding Application/CrowdFunding.sol\":2953:2964  thisRequest */\n      dup3\n        /* \"Decentralized CrowdFunding Application/CrowdFunding.sol\":2953:2970  thisRequest.value */\n      0x02\n      add\n      sload\n        /* \"Decentralized CrowdFunding Application/CrowdFunding.sol\":2923:2971  thisRequest.recipent.transfer(thisRequest.value) */\n      swap1\n      dup2\n      iszero\n      mul\n      swap1\n      mload(0x40)\n      0x00\n      mload(0x40)\n      dup1\n      dup4\n      sub\n      dup2\n      dup6\n      dup9\n      dup9\n      call\n      swap4\n      pop\n      pop\n      pop\n      pop\n      iszero\n      dup1\n      iszero\n      tag_125\n      jumpi\n      returndatasize\n      0x00\n      dup1\n      returndatacopy\n      revert(0x00, returndatasize)\n    tag_125:\n      pop\n        /* \"Decentralized CrowdFunding Application/CrowdFunding.sol\":3006:3010  true */\n      0x01\n        /* \"Decentralized CrowdFunding Application/CrowdFunding.sol\":2982:2993  thisRequest */\n      dup2\n        /* \"Decentralized CrowdFunding Application/CrowdFunding.sol\":2982:3003  thisRequest.completed */\n      0x04\n      add\n      0x00\n        /* \"Decentralized CrowdFunding Application/CrowdFunding.sol\":2982:3010  thisRequest.completed = true */\n      0x0100\n      exp\n      dup2\n      sload\n      dup2\n      0xff\n      mul\n      not\n      and\n      swap1\n      dup4\n      iszero\n      iszero\n      mul\n      or\n      swap1\n      sstore\n      pop\n        /* \"Decentralized CrowdFunding Application/CrowdFunding.sol\":2632:3018  {... */\n      pop\n        /* \"Decentralized CrowdFunding Application/CrowdFunding.sol\":2587:3018  function makePayment (uint requestNo) public {... */\n      pop\n      jump\t// out\n        /* \"Decentralized CrowdFunding Application/CrowdFunding.sol\":1565:1670  function getContractBalance () public view returns (uint) {... */\n    tag_46:\n        /* \"Decentralized CrowdFunding Application/CrowdFunding.sol\":1617:1621  uint */\n      0x00\n        /* \"Decentralized CrowdFunding Application/CrowdFunding.sol\":1641:1662  address(this).balance */\n      selfbalance\n        /* \"Decentralized CrowdFunding Application/CrowdFunding.sol\":1634:1662  return address(this).balance */\n      swap1\n      pop\n        /* \"Decentralized CrowdFunding Application/CrowdFunding.sol\":1565:1670  function getContractBalance () public view returns (uint) {... */\n      swap1\n      jump\t// out\n        /* \"Decentralized CrowdFunding Application/CrowdFunding.sol\":543:584  mapping (uint => Request) public requests */\n    tag_51:\n      mstore(0x20, 0x07)\n      dup1\n      0x00\n      mstore\n      keccak256(0x00, 0x40)\n      0x00\n      swap2\n      pop\n      swap1\n      pop\n      dup1\n      0x00\n      add\n      dup1\n      sload\n      tag_127\n      swap1\n      tag_128\n      jump\t// in\n    tag_127:\n      dup1\n      0x1f\n      add\n      0x20\n      dup1\n      swap2\n      div\n      mul\n      0x20\n      add\n      mload(0x40)\n      swap1\n      dup2\n      add\n      0x40\n      mstore\n      dup1\n      swap3\n      swap2\n      swap1\n      dup2\n      dup2\n      mstore\n      0x20\n      add\n      dup3\n      dup1\n      sload\n      tag_129\n      swap1\n      tag_128\n      jump\t// in\n    tag_129:\n      dup1\n      iszero\n      tag_130\n      jumpi\n      dup1\n      0x1f\n      lt\n      tag_131\n      jumpi\n      0x0100\n      dup1\n      dup4\n      sload\n      div\n      mul\n      dup4\n      mstore\n      swap2\n      0x20\n      add\n      swap2\n      jump(tag_130)\n    tag_131:\n      dup3\n      add\n      swap2\n      swap1\n      0x00\n      mstore\n      keccak256(0x00, 0x20)\n      swap1\n    tag_132:\n      dup2\n      sload\n      dup2\n      mstore\n      swap1\n      0x01\n      add\n      swap1\n      0x20\n      add\n      dup1\n      dup4\n      gt\n      tag_132\n      jumpi\n      dup3\n      swap1\n      sub\n      0x1f\n      and\n      dup3\n      add\n      swap2\n    tag_130:\n      pop\n      pop\n      pop\n      pop\n      pop\n      swap1\n      dup1\n      0x01\n      add\n      0x00\n      swap1\n      sload\n      swap1\n      0x0100\n      exp\n      swap1\n      div\n      0xffffffffffffffffffffffffffffffffffffffff\n      and\n      swap1\n      dup1\n      0x02\n      add\n      sload\n      swap1\n      dup1\n      0x03\n      add\n      sload\n      swap1\n      dup1\n      0x04\n      add\n      0x00\n      swap1\n      sload\n      swap1\n      0x0100\n      exp\n      swap1\n      div\n      0xff\n      and\n      swap1\n      pop\n      dup6\n      jump\t// out\n        /* \"Decentralized CrowdFunding Application/CrowdFunding.sol\":170:201  uint public minimumContribution */\n    tag_56:\n      sload(0x02)\n      dup2\n      jump\t// out\n        /* \"Decentralized CrowdFunding Application/CrowdFunding.sol\":591:614  uint public numRequests */\n    tag_60:\n      sload(0x08)\n      dup2\n      jump\t// out\n        /* \"Decentralized CrowdFunding Application/CrowdFunding.sol\":1799:2198  function createNewRequest (string memory _description , address payable _recipent , uint _value) public {... */\n    tag_66:\n        /* \"Decentralized CrowdFunding Application/CrowdFunding.sol\":1914:1940  Request storage newRequest */\n      0x00\n        /* \"Decentralized CrowdFunding Application/CrowdFunding.sol\":1943:1951  requests */\n      0x07\n        /* \"Decentralized CrowdFunding Application/CrowdFunding.sol\":1943:1965  requests [numRequests] */\n      0x00\n        /* \"Decentralized CrowdFunding Application/CrowdFunding.sol\":1953:1964  numRequests */\n      sload(0x08)\n        /* \"Decentralized CrowdFunding Application/CrowdFunding.sol\":1943:1965  requests [numRequests] */\n      dup2\n      mstore\n      0x20\n      add\n      swap1\n      dup2\n      mstore\n      0x20\n      add\n      0x00\n      keccak256\n        /* \"Decentralized CrowdFunding Application/CrowdFunding.sol\":1914:1965  Request storage newRequest = requests [numRequests] */\n      swap1\n      pop\n        /* \"Decentralized CrowdFunding Application/CrowdFunding.sol\":1976:1987  numRequests */\n      0x08\n      0x00\n        /* \"Decentralized CrowdFunding Application/CrowdFunding.sol\":1976:1989  numRequests++ */\n      dup2\n      sload\n      dup1\n      swap3\n      swap2\n      swap1\n      tag_134\n      swap1\n      tag_94\n      jump\t// in\n    tag_134:\n      swap2\n      swap1\n      pop\n      sstore\n      pop\n        /* \"Decentralized CrowdFunding Application/CrowdFunding.sol\":2025:2037  _description */\n      dup4\n        /* \"Decentralized CrowdFunding Application/CrowdFunding.sol\":2000:2010  newRequest */\n      dup2\n        /* \"Decentralized CrowdFunding Application/CrowdFunding.sol\":2000:2022  newRequest.description */\n      0x00\n      add\n        /* \"Decentralized CrowdFunding Application/CrowdFunding.sol\":2000:2037  newRequest.description = _description */\n      swap1\n      dup2\n      tag_135\n      swap2\n      swap1\n      tag_136\n      jump\t// in\n    tag_135:\n      pop\n        /* \"Decentralized CrowdFunding Application/CrowdFunding.sol\":2070:2079  _recipent */\n      dup3\n        /* \"Decentralized CrowdFunding Application/CrowdFunding.sol\":2048:2058  newRequest */\n      dup2\n        /* \"Decentralized CrowdFunding Application/CrowdFunding.sol\":2048:2067  newRequest.recipent */\n      0x01\n      add\n      0x00\n        /* \"Decentralized CrowdFunding Application/CrowdFunding.sol\":2048:2079  newRequest.recipent = _recipent */\n      0x0100\n      exp\n      dup2\n      sload\n      dup2\n      0xffffffffffffffffffffffffffffffffffffffff\n      mul\n      not\n      and\n      swap1\n      dup4\n      0xffffffffffffffffffffffffffffffffffffffff\n      and\n      mul\n      or\n      swap1\n      sstore\n      pop\n        /* \"Decentralized CrowdFunding Application/CrowdFunding.sol\":2109:2115  _value */\n      dup2\n        /* \"Decentralized CrowdFunding Application/CrowdFunding.sol\":2090:2100  newRequest */\n      dup2\n        /* \"Decentralized CrowdFunding Application/CrowdFunding.sol\":2090:2106  newRequest.value */\n      0x02\n      add\n        /* \"Decentralized CrowdFunding Application/CrowdFunding.sol\":2090:2115  newRequest.value = _value */\n      dup2\n      swap1\n      sstore\n      pop\n        /* \"Decentralized CrowdFunding Application/CrowdFunding.sol\":2150:2151  0 */\n      0x00\n        /* \"Decentralized CrowdFunding Application/CrowdFunding.sol\":2126:2136  newRequest */\n      dup2\n        /* \"Decentralized CrowdFunding Application/CrowdFunding.sol\":2126:2147  newRequest.noOfVoters */\n      0x03\n      add\n        /* \"Decentralized CrowdFunding Application/CrowdFunding.sol\":2126:2151  newRequest.noOfVoters = 0 */\n      dup2\n      swap1\n      sstore\n      pop\n        /* \"Decentralized CrowdFunding Application/CrowdFunding.sol\":2185:2190  false */\n      0x00\n        /* \"Decentralized CrowdFunding Application/CrowdFunding.sol\":2162:2172  newRequest */\n      dup2\n        /* \"Decentralized CrowdFunding Application/CrowdFunding.sol\":2162:2182  newRequest.completed */\n      0x04\n      add\n      0x00\n        /* \"Decentralized CrowdFunding Application/CrowdFunding.sol\":2162:2190  newRequest.completed = false */\n      0x0100\n      exp\n      dup2\n      sload\n      dup2\n      0xff\n      mul\n      not\n      and\n      swap1\n      dup4\n      iszero\n      iszero\n      mul\n      or\n      swap1\n      sstore\n      pop\n        /* \"Decentralized CrowdFunding Application/CrowdFunding.sol\":1903:2198  {... */\n      pop\n        /* \"Decentralized CrowdFunding Application/CrowdFunding.sol\":1799:2198  function createNewRequest (string memory _description , address payable _recipent , uint _value) public {... */\n      pop\n      pop\n      pop\n      jump\t// out\n        /* \"Decentralized CrowdFunding Application/CrowdFunding.sol\":208:228  uint public deadLine */\n    tag_69:\n      sload(0x03)\n      dup2\n      jump\t// out\n        /* \"Decentralized CrowdFunding Application/CrowdFunding.sol\":260:284  uint public raisedAmount */\n    tag_73:\n      sload(0x05)\n      dup2\n      jump\t// out\n        /* \"Decentralized CrowdFunding Application/CrowdFunding.sol\":235:253  uint public target */\n    tag_77:\n      sload(0x04)\n      dup2\n      jump\t// out\n        /* \"Decentralized CrowdFunding Application/CrowdFunding.sol\":90:134  mapping(address => uint) public Contributors */\n    tag_83:\n      mstore(0x20, 0x00)\n      dup1\n      0x00\n      mstore\n      keccak256(0x00, 0x40)\n      0x00\n      swap2\n      pop\n      swap1\n      pop\n      sload\n      dup2\n      jump\t// out\n        /* \"#utility.yul\":7:133   */\n    tag_137:\n        /* \"#utility.yul\":44:51   */\n      0x00\n        /* \"#utility.yul\":84:126   */\n      0xffffffffffffffffffffffffffffffffffffffff\n        /* \"#utility.yul\":77:82   */\n      dup3\n        /* \"#utility.yul\":73:127   */\n      and\n        /* \"#utility.yul\":62:127   */\n      swap1\n      pop\n        /* \"#utility.yul\":7:133   */\n      swap2\n      swap1\n      pop\n      jump\t// out\n        /* \"#utility.yul\":139:235   */\n    tag_138:\n        /* \"#utility.yul\":176:183   */\n      0x00\n        /* \"#utility.yul\":205:229   */\n      tag_205\n        /* \"#utility.yul\":223:228   */\n      dup3\n        /* \"#utility.yul\":205:229   */\n      tag_137\n      jump\t// in\n    tag_205:\n        /* \"#utility.yul\":194:229   */\n      swap1\n      pop\n        /* \"#utility.yul\":139:235   */\n      swap2\n      swap1\n      pop\n      jump\t// out\n        /* \"#utility.yul\":241:359   */\n    tag_139:\n        /* \"#utility.yul\":328:352   */\n      tag_207\n        /* \"#utility.yul\":346:351   */\n      dup2\n        /* \"#utility.yul\":328:352   */\n      tag_138\n      jump\t// in\n    tag_207:\n        /* \"#utility.yul\":323:326   */\n      dup3\n        /* \"#utility.yul\":316:353   */\n      mstore\n        /* \"#utility.yul\":241:359   */\n      pop\n      pop\n      jump\t// out\n        /* \"#utility.yul\":365:587   */\n    tag_29:\n        /* \"#utility.yul\":458:462   */\n      0x00\n        /* \"#utility.yul\":496:498   */\n      0x20\n        /* \"#utility.yul\":485:494   */\n      dup3\n        /* \"#utility.yul\":481:499   */\n      add\n        /* \"#utility.yul\":473:499   */\n      swap1\n      pop\n        /* \"#utility.yul\":509:580   */\n      tag_209\n        /* \"#utility.yul\":577:578   */\n      0x00\n        /* \"#utility.yul\":566:575   */\n      dup4\n        /* \"#utility.yul\":562:579   */\n      add\n        /* \"#utility.yul\":553:559   */\n      dup5\n        /* \"#utility.yul\":509:580   */\n      tag_139\n      jump\t// in\n    tag_209:\n        /* \"#utility.yul\":365:587   */\n      swap3\n      swap2\n      pop\n      pop\n      jump\t// out\n        /* \"#utility.yul\":593:668   */\n    tag_140:\n        /* \"#utility.yul\":626:632   */\n      0x00\n        /* \"#utility.yul\":659:661   */\n      0x40\n        /* \"#utility.yul\":653:662   */\n      mload\n        /* \"#utility.yul\":643:662   */\n      swap1\n      pop\n        /* \"#utility.yul\":593:668   */\n      swap1\n      jump\t// out\n        /* \"#utility.yul\":674:791   */\n    tag_141:\n        /* \"#utility.yul\":783:784   */\n      0x00\n        /* \"#utility.yul\":780:781   */\n      dup1\n        /* \"#utility.yul\":773:785   */\n      revert\n        /* \"#utility.yul\":797:914   */\n    tag_142:\n        /* \"#utility.yul\":906:907   */\n      0x00\n        /* \"#utility.yul\":903:904   */\n      dup1\n        /* \"#utility.yul\":896:908   */\n      revert\n        /* \"#utility.yul\":920:997   */\n    tag_143:\n        /* \"#utility.yul\":957:964   */\n      0x00\n        /* \"#utility.yul\":986:991   */\n      dup2\n        /* \"#utility.yul\":975:991   */\n      swap1\n      pop\n        /* \"#utility.yul\":920:997   */\n      swap2\n      swap1\n      pop\n      jump\t// out\n        /* \"#utility.yul\":1003:1125   */\n    tag_144:\n        /* \"#utility.yul\":1076:1100   */\n      tag_215\n        /* \"#utility.yul\":1094:1099   */\n      dup2\n        /* \"#utility.yul\":1076:1100   */\n      tag_143\n      jump\t// in\n    tag_215:\n        /* \"#utility.yul\":1069:1074   */\n      dup2\n        /* \"#utility.yul\":1066:1101   */\n      eq\n        /* \"#utility.yul\":1056:1119   */\n      tag_216\n      jumpi\n        /* \"#utility.yul\":1115:1116   */\n      0x00\n        /* \"#utility.yul\":1112:1113   */\n      dup1\n        /* \"#utility.yul\":1105:1117   */\n      revert\n        /* \"#utility.yul\":1056:1119   */\n    tag_216:\n        /* \"#utility.yul\":1003:1125   */\n      pop\n      jump\t// out\n        /* \"#utility.yul\":1131:1270   */\n    tag_145:\n        /* \"#utility.yul\":1177:1182   */\n      0x00\n        /* \"#utility.yul\":1215:1221   */\n      dup2\n        /* \"#utility.yul\":1202:1222   */\n      calldataload\n        /* \"#utility.yul\":1193:1222   */\n      swap1\n      pop\n        /* \"#utility.yul\":1231:1264   */\n      tag_218\n        /* \"#utility.yul\":1258:1263   */\n      dup2\n        /* \"#utility.yul\":1231:1264   */\n      tag_144\n      jump\t// in\n    tag_218:\n        /* \"#utility.yul\":1131:1270   */\n      swap3\n      swap2\n      pop\n      pop\n      jump\t// out\n        /* \"#utility.yul\":1276:1605   */\n    tag_33:\n        /* \"#utility.yul\":1335:1341   */\n      0x00\n        /* \"#utility.yul\":1384:1386   */\n      0x20\n        /* \"#utility.yul\":1372:1381   */\n      dup3\n        /* \"#utility.yul\":1363:1370   */\n      dup5\n        /* \"#utility.yul\":1359:1382   */\n      sub\n        /* \"#utility.yul\":1355:1387   */\n      slt\n        /* \"#utility.yul\":1352:1471   */\n      iszero\n      tag_220\n      jumpi\n        /* \"#utility.yul\":1390:1469   */\n      tag_221\n      tag_141\n      jump\t// in\n    tag_221:\n        /* \"#utility.yul\":1352:1471   */\n    tag_220:\n        /* \"#utility.yul\":1510:1511   */\n      0x00\n        /* \"#utility.yul\":1535:1588   */\n      tag_222\n        /* \"#utility.yul\":1580:1587   */\n      dup5\n        /* \"#utility.yul\":1571:1577   */\n      dup3\n        /* \"#utility.yul\":1560:1569   */\n      dup6\n        /* \"#utility.yul\":1556:1578   */\n      add\n        /* \"#utility.yul\":1535:1588   */\n      tag_145\n      jump\t// in\n    tag_222:\n        /* \"#utility.yul\":1525:1588   */\n      swap2\n      pop\n        /* \"#utility.yul\":1481:1598   */\n      pop\n        /* \"#utility.yul\":1276:1605   */\n      swap3\n      swap2\n      pop\n      pop\n      jump\t// out\n        /* \"#utility.yul\":1611:1729   */\n    tag_146:\n        /* \"#utility.yul\":1698:1722   */\n      tag_224\n        /* \"#utility.yul\":1716:1721   */\n      dup2\n        /* \"#utility.yul\":1698:1722   */\n      tag_143\n      jump\t// in\n    tag_224:\n        /* \"#utility.yul\":1693:1696   */\n      dup3\n        /* \"#utility.yul\":1686:1723   */\n      mstore\n        /* \"#utility.yul\":1611:1729   */\n      pop\n      pop\n      jump\t// out\n        /* \"#utility.yul\":1735:1957   */\n    tag_39:\n        /* \"#utility.yul\":1828:1832   */\n      0x00\n        /* \"#utility.yul\":1866:1868   */\n      0x20\n        /* \"#utility.yul\":1855:1864   */\n      dup3\n        /* \"#utility.yul\":1851:1869   */\n      add\n        /* \"#utility.yul\":1843:1869   */\n      swap1\n      pop\n        /* \"#utility.yul\":1879:1950   */\n      tag_226\n        /* \"#utility.yul\":1947:1948   */\n      0x00\n        /* \"#utility.yul\":1936:1945   */\n      dup4\n        /* \"#utility.yul\":1932:1949   */\n      add\n        /* \"#utility.yul\":1923:1929   */\n      dup5\n        /* \"#utility.yul\":1879:1950   */\n      tag_146\n      jump\t// in\n    tag_226:\n        /* \"#utility.yul\":1735:1957   */\n      swap3\n      swap2\n      pop\n      pop\n      jump\t// out\n        /* \"#utility.yul\":1963:2062   */\n    tag_147:\n        /* \"#utility.yul\":2015:2021   */\n      0x00\n        /* \"#utility.yul\":2049:2054   */\n      dup2\n        /* \"#utility.yul\":2043:2055   */\n      mload\n        /* \"#utility.yul\":2033:2055   */\n      swap1\n      pop\n        /* \"#utility.yul\":1963:2062   */\n      swap2\n      swap1\n      pop\n      jump\t// out\n        /* \"#utility.yul\":2068:2237   */\n    tag_148:\n        /* \"#utility.yul\":2152:2163   */\n      0x00\n        /* \"#utility.yul\":2186:2192   */\n      dup3\n        /* \"#utility.yul\":2181:2184   */\n      dup3\n        /* \"#utility.yul\":2174:2193   */\n      mstore\n        /* \"#utility.yul\":2226:2230   */\n      0x20\n        /* \"#utility.yul\":2221:2224   */\n      dup3\n        /* \"#utility.yul\":2217:2231   */\n      add\n        /* \"#utility.yul\":2202:2231   */\n      swap1\n      pop\n        /* \"#utility.yul\":2068:2237   */\n      swap3\n      swap2\n      pop\n      pop\n      jump\t// out\n        /* \"#utility.yul\":2243:2382   */\n    tag_149:\n        /* \"#utility.yul\":2332:2338   */\n      dup3\n        /* \"#utility.yul\":2327:2330   */\n      dup2\n        /* \"#utility.yul\":2322:2325   */\n      dup4\n        /* \"#utility.yul\":2316:2339   */\n      mcopy\n        /* \"#utility.yul\":2373:2374   */\n      0x00\n        /* \"#utility.yul\":2364:2370   */\n      dup4\n        /* \"#utility.yul\":2359:2362   */\n      dup4\n        /* \"#utility.yul\":2355:2371   */\n      add\n        /* \"#utility.yul\":2348:2375   */\n      mstore\n        /* \"#utility.yul\":2243:2382   */\n      pop\n      pop\n      pop\n      jump\t// out\n        /* \"#utility.yul\":2388:2490   */\n    tag_150:\n        /* \"#utility.yul\":2429:2435   */\n      0x00\n        /* \"#utility.yul\":2480:2482   */\n      0x1f\n        /* \"#utility.yul\":2476:2483   */\n      not\n        /* \"#utility.yul\":2471:2473   */\n      0x1f\n        /* \"#utility.yul\":2464:2469   */\n      dup4\n        /* \"#utility.yul\":2460:2474   */\n      add\n        /* \"#utility.yul\":2456:2484   */\n      and\n        /* \"#utility.yul\":2446:2484   */\n      swap1\n      pop\n        /* \"#utility.yul\":2388:2490   */\n      swap2\n      swap1\n      pop\n      jump\t// out\n        /* \"#utility.yul\":2496:2873   */\n    tag_151:\n        /* \"#utility.yul\":2584:2587   */\n      0x00\n        /* \"#utility.yul\":2612:2651   */\n      tag_232\n        /* \"#utility.yul\":2645:2650   */\n      dup3\n        /* \"#utility.yul\":2612:2651   */\n      tag_147\n      jump\t// in\n    tag_232:\n        /* \"#utility.yul\":2667:2738   */\n      tag_233\n        /* \"#utility.yul\":2731:2737   */\n      dup2\n        /* \"#utility.yul\":2726:2729   */\n      dup6\n        /* \"#utility.yul\":2667:2738   */\n      tag_148\n      jump\t// in\n    tag_233:\n        /* \"#utility.yul\":2660:2738   */\n      swap4\n      pop\n        /* \"#utility.yul\":2747:2812   */\n      tag_234\n        /* \"#utility.yul\":2805:2811   */\n      dup2\n        /* \"#utility.yul\":2800:2803   */\n      dup6\n        /* \"#utility.yul\":2793:2797   */\n      0x20\n        /* \"#utility.yul\":2786:2791   */\n      dup7\n        /* \"#utility.yul\":2782:2798   */\n      add\n        /* \"#utility.yul\":2747:2812   */\n      tag_149\n      jump\t// in\n    tag_234:\n        /* \"#utility.yul\":2837:2866   */\n      tag_235\n        /* \"#utility.yul\":2859:2865   */\n      dup2\n        /* \"#utility.yul\":2837:2866   */\n      tag_150\n      jump\t// in\n    tag_235:\n        /* \"#utility.yul\":2832:2835   */\n      dup5\n        /* \"#utility.yul\":2828:2867   */\n      add\n        /* \"#utility.yul\":2821:2867   */\n      swap2\n      pop\n        /* \"#utility.yul\":2588:2873   */\n      pop\n        /* \"#utility.yul\":2496:2873   */\n      swap3\n      swap2\n      pop\n      pop\n      jump\t// out\n        /* \"#utility.yul\":2879:2983   */\n    tag_152:\n        /* \"#utility.yul\":2924:2931   */\n      0x00\n        /* \"#utility.yul\":2953:2977   */\n      tag_237\n        /* \"#utility.yul\":2971:2976   */\n      dup3\n        /* \"#utility.yul\":2953:2977   */\n      tag_137\n      jump\t// in\n    tag_237:\n        /* \"#utility.yul\":2942:2977   */\n      swap1\n      pop\n        /* \"#utility.yul\":2879:2983   */\n      swap2\n      swap1\n      pop\n      jump\t// out\n        /* \"#utility.yul\":2989:3131   */\n    tag_153:\n        /* \"#utility.yul\":3092:3124   */\n      tag_239\n        /* \"#utility.yul\":3118:3123   */\n      dup2\n        /* \"#utility.yul\":3092:3124   */\n      tag_152\n      jump\t// in\n    tag_239:\n        /* \"#utility.yul\":3087:3090   */\n      dup3\n        /* \"#utility.yul\":3080:3125   */\n      mstore\n        /* \"#utility.yul\":2989:3131   */\n      pop\n      pop\n      jump\t// out\n        /* \"#utility.yul\":3137:3227   */\n    tag_154:\n        /* \"#utility.yul\":3171:3178   */\n      0x00\n        /* \"#utility.yul\":3214:3219   */\n      dup2\n        /* \"#utility.yul\":3207:3220   */\n      iszero\n        /* \"#utility.yul\":3200:3221   */\n      iszero\n        /* \"#utility.yul\":3189:3221   */\n      swap1\n      pop\n        /* \"#utility.yul\":3137:3227   */\n      swap2\n      swap1\n      pop\n      jump\t// out\n        /* \"#utility.yul\":3233:3342   */\n    tag_155:\n        /* \"#utility.yul\":3314:3335   */\n      tag_242\n        /* \"#utility.yul\":3329:3334   */\n      dup2\n        /* \"#utility.yul\":3314:3335   */\n      tag_154\n      jump\t// in\n    tag_242:\n        /* \"#utility.yul\":3309:3312   */\n      dup3\n        /* \"#utility.yul\":3302:3336   */\n      mstore\n        /* \"#utility.yul\":3233:3342   */\n      pop\n      pop\n      jump\t// out\n        /* \"#utility.yul\":3348:4123   */\n    tag_53:\n        /* \"#utility.yul\":3583:3587   */\n      0x00\n        /* \"#utility.yul\":3621:3624   */\n      0xa0\n        /* \"#utility.yul\":3610:3619   */\n      dup3\n        /* \"#utility.yul\":3606:3625   */\n      add\n        /* \"#utility.yul\":3598:3625   */\n      swap1\n      pop\n        /* \"#utility.yul\":3671:3680   */\n      dup2\n        /* \"#utility.yul\":3665:3669   */\n      dup2\n        /* \"#utility.yul\":3661:3681   */\n      sub\n        /* \"#utility.yul\":3657:3658   */\n      0x00\n        /* \"#utility.yul\":3646:3655   */\n      dup4\n        /* \"#utility.yul\":3642:3659   */\n      add\n        /* \"#utility.yul\":3635:3682   */\n      mstore\n        /* \"#utility.yul\":3699:3777   */\n      tag_244\n        /* \"#utility.yul\":3772:3776   */\n      dup2\n        /* \"#utility.yul\":3763:3769   */\n      dup9\n        /* \"#utility.yul\":3699:3777   */\n      tag_151\n      jump\t// in\n    tag_244:\n        /* \"#utility.yul\":3691:3777   */\n      swap1\n      pop\n        /* \"#utility.yul\":3787:3875   */\n      tag_245\n        /* \"#utility.yul\":3871:3873   */\n      0x20\n        /* \"#utility.yul\":3860:3869   */\n      dup4\n        /* \"#utility.yul\":3856:3874   */\n      add\n        /* \"#utility.yul\":3847:3853   */\n      dup8\n        /* \"#utility.yul\":3787:3875   */\n      tag_153\n      jump\t// in\n    tag_245:\n        /* \"#utility.yul\":3885:3957   */\n      tag_246\n        /* \"#utility.yul\":3953:3955   */\n      0x40\n        /* \"#utility.yul\":3942:3951   */\n      dup4\n        /* \"#utility.yul\":3938:3956   */\n      add\n        /* \"#utility.yul\":3929:3935   */\n      dup7\n        /* \"#utility.yul\":3885:3957   */\n      tag_146\n      jump\t// in\n    tag_246:\n        /* \"#utility.yul\":3967:4039   */\n      tag_247\n        /* \"#utility.yul\":4035:4037   */\n      0x60\n        /* \"#utility.yul\":4024:4033   */\n      dup4\n        /* \"#utility.yul\":4020:4038   */\n      add\n        /* \"#utility.yul\":4011:4017   */\n      dup6\n        /* \"#utility.yul\":3967:4039   */\n      tag_146\n      jump\t// in\n    tag_247:\n        /* \"#utility.yul\":4049:4116   */\n      tag_248\n        /* \"#utility.yul\":4111:4114   */\n      0x80\n        /* \"#utility.yul\":4100:4109   */\n      dup4\n        /* \"#utility.yul\":4096:4115   */\n      add\n        /* \"#utility.yul\":4087:4093   */\n      dup5\n        /* \"#utility.yul\":4049:4116   */\n      tag_155\n      jump\t// in\n    tag_248:\n        /* \"#utility.yul\":3348:4123   */\n      swap7\n      swap6\n      pop\n      pop\n      pop\n      pop\n      pop\n      pop\n      jump\t// out\n        /* \"#utility.yul\":4129:4246   */\n    tag_156:\n        /* \"#utility.yul\":4238:4239   */\n      0x00\n        /* \"#utility.yul\":4235:4236   */\n      dup1\n        /* \"#utility.yul\":4228:4240   */\n      revert\n        /* \"#utility.yul\":4252:4369   */\n    tag_157:\n        /* \"#utility.yul\":4361:4362   */\n      0x00\n        /* \"#utility.yul\":4358:4359   */\n      dup1\n        /* \"#utility.yul\":4351:4363   */\n      revert\n        /* \"#utility.yul\":4375:4555   */\n    tag_158:\n        /* \"#utility.yul\":4423:4500   */\n      0x4e487b7100000000000000000000000000000000000000000000000000000000\n        /* \"#utility.yul\":4420:4421   */\n      0x00\n        /* \"#utility.yul\":4413:4501   */\n      mstore\n        /* \"#utility.yul\":4520:4524   */\n      0x41\n        /* \"#utility.yul\":4517:4518   */\n      0x04\n        /* \"#utility.yul\":4510:4525   */\n      mstore\n        /* \"#utility.yul\":4544:4548   */\n      0x24\n        /* \"#utility.yul\":4541:4542   */\n      0x00\n        /* \"#utility.yul\":4534:4549   */\n      revert\n        /* \"#utility.yul\":4561:4842   */\n    tag_159:\n        /* \"#utility.yul\":4644:4671   */\n      tag_253\n        /* \"#utility.yul\":4666:4670   */\n      dup3\n        /* \"#utility.yul\":4644:4671   */\n      tag_150\n      jump\t// in\n    tag_253:\n        /* \"#utility.yul\":4636:4642   */\n      dup2\n        /* \"#utility.yul\":4632:4672   */\n      add\n        /* \"#utility.yul\":4774:4780   */\n      dup2\n        /* \"#utility.yul\":4762:4772   */\n      dup2\n        /* \"#utility.yul\":4759:4781   */\n      lt\n        /* \"#utility.yul\":4738:4756   */\n      0xffffffffffffffff\n        /* \"#utility.yul\":4726:4736   */\n      dup3\n        /* \"#utility.yul\":4723:4757   */\n      gt\n        /* \"#utility.yul\":4720:4782   */\n      or\n        /* \"#utility.yul\":4717:4805   */\n      iszero\n      tag_254\n      jumpi\n        /* \"#utility.yul\":4785:4803   */\n      tag_255\n      tag_158\n      jump\t// in\n    tag_255:\n        /* \"#utility.yul\":4717:4805   */\n    tag_254:\n        /* \"#utility.yul\":4825:4835   */\n      dup1\n        /* \"#utility.yul\":4821:4823   */\n      0x40\n        /* \"#utility.yul\":4814:4836   */\n      mstore\n        /* \"#utility.yul\":4604:4842   */\n      pop\n        /* \"#utility.yul\":4561:4842   */\n      pop\n      pop\n      jump\t// out\n        /* \"#utility.yul\":4848:4977   */\n    tag_160:\n        /* \"#utility.yul\":4882:4888   */\n      0x00\n        /* \"#utility.yul\":4909:4929   */\n      tag_257\n      tag_140\n      jump\t// in\n    tag_257:\n        /* \"#utility.yul\":4899:4929   */\n      swap1\n      pop\n        /* \"#utility.yul\":4938:4971   */\n      tag_258\n        /* \"#utility.yul\":4966:4970   */\n      dup3\n        /* \"#utility.yul\":4958:4964   */\n      dup3\n        /* \"#utility.yul\":4938:4971   */\n      tag_159\n      jump\t// in\n    tag_258:\n        /* \"#utility.yul\":4848:4977   */\n      swap2\n      swap1\n      pop\n      jump\t// out\n        /* \"#utility.yul\":4983:5291   */\n    tag_161:\n        /* \"#utility.yul\":5045:5049   */\n      0x00\n        /* \"#utility.yul\":5135:5153   */\n      0xffffffffffffffff\n        /* \"#utility.yul\":5127:5133   */\n      dup3\n        /* \"#utility.yul\":5124:5154   */\n      gt\n        /* \"#utility.yul\":5121:5177   */\n      iszero\n      tag_260\n      jumpi\n        /* \"#utility.yul\":5157:5175   */\n      tag_261\n      tag_158\n      jump\t// in\n    tag_261:\n        /* \"#utility.yul\":5121:5177   */\n    tag_260:\n        /* \"#utility.yul\":5195:5224   */\n      tag_262\n        /* \"#utility.yul\":5217:5223   */\n      dup3\n        /* \"#utility.yul\":5195:5224   */\n      tag_150\n      jump\t// in\n    tag_262:\n        /* \"#utility.yul\":5187:5224   */\n      swap1\n      pop\n        /* \"#utility.yul\":5279:5283   */\n      0x20\n        /* \"#utility.yul\":5273:5277   */\n      dup2\n        /* \"#utility.yul\":5269:5284   */\n      add\n        /* \"#utility.yul\":5261:5284   */\n      swap1\n      pop\n        /* \"#utility.yul\":4983:5291   */\n      swap2\n      swap1\n      pop\n      jump\t// out\n        /* \"#utility.yul\":5297:5445   */\n    tag_162:\n        /* \"#utility.yul\":5395:5401   */\n      dup3\n        /* \"#utility.yul\":5390:5393   */\n      dup2\n        /* \"#utility.yul\":5385:5388   */\n      dup4\n        /* \"#utility.yul\":5372:5402   */\n      calldatacopy\n        /* \"#utility.yul\":5436:5437   */\n      0x00\n        /* \"#utility.yul\":5427:5433   */\n      dup4\n        /* \"#utility.yul\":5422:5425   */\n      dup4\n        /* \"#utility.yul\":5418:5434   */\n      add\n        /* \"#utility.yul\":5411:5438   */\n      mstore\n        /* \"#utility.yul\":5297:5445   */\n      pop\n      pop\n      pop\n      jump\t// out\n        /* \"#utility.yul\":5451:5876   */\n    tag_163:\n        /* \"#utility.yul\":5529:5534   */\n      0x00\n        /* \"#utility.yul\":5554:5620   */\n      tag_265\n        /* \"#utility.yul\":5570:5619   */\n      tag_266\n        /* \"#utility.yul\":5612:5618   */\n      dup5\n        /* \"#utility.yul\":5570:5619   */\n      tag_161\n      jump\t// in\n    tag_266:\n        /* \"#utility.yul\":5554:5620   */\n      tag_160\n      jump\t// in\n    tag_265:\n        /* \"#utility.yul\":5545:5620   */\n      swap1\n      pop\n        /* \"#utility.yul\":5643:5649   */\n      dup3\n        /* \"#utility.yul\":5636:5641   */\n      dup2\n        /* \"#utility.yul\":5629:5650   */\n      mstore\n        /* \"#utility.yul\":5681:5685   */\n      0x20\n        /* \"#utility.yul\":5674:5679   */\n      dup2\n        /* \"#utility.yul\":5670:5686   */\n      add\n        /* \"#utility.yul\":5719:5722   */\n      dup5\n        /* \"#utility.yul\":5710:5716   */\n      dup5\n        /* \"#utility.yul\":5705:5708   */\n      dup5\n        /* \"#utility.yul\":5701:5717   */\n      add\n        /* \"#utility.yul\":5698:5723   */\n      gt\n        /* \"#utility.yul\":5695:5807   */\n      iszero\n      tag_267\n      jumpi\n        /* \"#utility.yul\":5726:5805   */\n      tag_268\n      tag_157\n      jump\t// in\n    tag_268:\n        /* \"#utility.yul\":5695:5807   */\n    tag_267:\n        /* \"#utility.yul\":5816:5870   */\n      tag_269\n        /* \"#utility.yul\":5863:5869   */\n      dup5\n        /* \"#utility.yul\":5858:5861   */\n      dup3\n        /* \"#utility.yul\":5853:5856   */\n      dup6\n        /* \"#utility.yul\":5816:5870   */\n      tag_162\n      jump\t// in\n    tag_269:\n        /* \"#utility.yul\":5535:5876   */\n      pop\n        /* \"#utility.yul\":5451:5876   */\n      swap4\n      swap3\n      pop\n      pop\n      pop\n      jump\t// out\n        /* \"#utility.yul\":5896:6236   */\n    tag_164:\n        /* \"#utility.yul\":5952:5957   */\n      0x00\n        /* \"#utility.yul\":6001:6004   */\n      dup3\n        /* \"#utility.yul\":5994:5998   */\n      0x1f\n        /* \"#utility.yul\":5986:5992   */\n      dup4\n        /* \"#utility.yul\":5982:5999   */\n      add\n        /* \"#utility.yul\":5978:6005   */\n      slt\n        /* \"#utility.yul\":5968:6090   */\n      tag_271\n      jumpi\n        /* \"#utility.yul\":6009:6088   */\n      tag_272\n      tag_156\n      jump\t// in\n    tag_272:\n        /* \"#utility.yul\":5968:6090   */\n    tag_271:\n        /* \"#utility.yul\":6126:6132   */\n      dup2\n        /* \"#utility.yul\":6113:6133   */\n      calldataload\n        /* \"#utility.yul\":6151:6230   */\n      tag_273\n        /* \"#utility.yul\":6226:6229   */\n      dup5\n        /* \"#utility.yul\":6218:6224   */\n      dup3\n        /* \"#utility.yul\":6211:6215   */\n      0x20\n        /* \"#utility.yul\":6203:6209   */\n      dup7\n        /* \"#utility.yul\":6199:6216   */\n      add\n        /* \"#utility.yul\":6151:6230   */\n      tag_163\n      jump\t// in\n    tag_273:\n        /* \"#utility.yul\":6142:6230   */\n      swap2\n      pop\n        /* \"#utility.yul\":5958:6236   */\n      pop\n        /* \"#utility.yul\":5896:6236   */\n      swap3\n      swap2\n      pop\n      pop\n      jump\t// out\n        /* \"#utility.yul\":6242:6380   */\n    tag_165:\n        /* \"#utility.yul\":6323:6355   */\n      tag_275\n        /* \"#utility.yul\":6349:6354   */\n      dup2\n        /* \"#utility.yul\":6323:6355   */\n      tag_152\n      jump\t// in\n    tag_275:\n        /* \"#utility.yul\":6316:6321   */\n      dup2\n        /* \"#utility.yul\":6313:6356   */\n      eq\n        /* \"#utility.yul\":6303:6374   */\n      tag_276\n      jumpi\n        /* \"#utility.yul\":6370:6371   */\n      0x00\n        /* \"#utility.yul\":6367:6368   */\n      dup1\n        /* \"#utility.yul\":6360:6372   */\n      revert\n        /* \"#utility.yul\":6303:6374   */\n    tag_276:\n        /* \"#utility.yul\":6242:6380   */\n      pop\n      jump\t// out\n        /* \"#utility.yul\":6386:6541   */\n    tag_166:\n        /* \"#utility.yul\":6440:6445   */\n      0x00\n        /* \"#utility.yul\":6478:6484   */\n      dup2\n        /* \"#utility.yul\":6465:6485   */\n      calldataload\n        /* \"#utility.yul\":6456:6485   */\n      swap1\n      pop\n        /* \"#utility.yul\":6494:6535   */\n      tag_278\n        /* \"#utility.yul\":6529:6534   */\n      dup2\n        /* \"#utility.yul\":6494:6535   */\n      tag_165\n      jump\t// in\n    tag_278:\n        /* \"#utility.yul\":6386:6541   */\n      swap3\n      swap2\n      pop\n      pop\n      jump\t// out\n        /* \"#utility.yul\":6547:7362   */\n    tag_65:\n        /* \"#utility.yul\":6642:6648   */\n      0x00\n        /* \"#utility.yul\":6650:6656   */\n      dup1\n        /* \"#utility.yul\":6658:6664   */\n      0x00\n        /* \"#utility.yul\":6707:6709   */\n      0x60\n        /* \"#utility.yul\":6695:6704   */\n      dup5\n        /* \"#utility.yul\":6686:6693   */\n      dup7\n        /* \"#utility.yul\":6682:6705   */\n      sub\n        /* \"#utility.yul\":6678:6710   */\n      slt\n        /* \"#utility.yul\":6675:6794   */\n      iszero\n      tag_280\n      jumpi\n        /* \"#utility.yul\":6713:6792   */\n      tag_281\n      tag_141\n      jump\t// in\n    tag_281:\n        /* \"#utility.yul\":6675:6794   */\n    tag_280:\n        /* \"#utility.yul\":6861:6862   */\n      0x00\n        /* \"#utility.yul\":6850:6859   */\n      dup5\n        /* \"#utility.yul\":6846:6863   */\n      add\n        /* \"#utility.yul\":6833:6864   */\n      calldataload\n        /* \"#utility.yul\":6891:6909   */\n      0xffffffffffffffff\n        /* \"#utility.yul\":6883:6889   */\n      dup2\n        /* \"#utility.yul\":6880:6910   */\n      gt\n        /* \"#utility.yul\":6877:6994   */\n      iszero\n      tag_282\n      jumpi\n        /* \"#utility.yul\":6913:6992   */\n      tag_283\n      tag_142\n      jump\t// in\n    tag_283:\n        /* \"#utility.yul\":6877:6994   */\n    tag_282:\n        /* \"#utility.yul\":7018:7081   */\n      tag_284\n        /* \"#utility.yul\":7073:7080   */\n      dup7\n        /* \"#utility.yul\":7064:7070   */\n      dup3\n        /* \"#utility.yul\":7053:7062   */\n      dup8\n        /* \"#utility.yul\":7049:7071   */\n      add\n        /* \"#utility.yul\":7018:7081   */\n      tag_164\n      jump\t// in\n    tag_284:\n        /* \"#utility.yul\":7008:7081   */\n      swap4\n      pop\n        /* \"#utility.yul\":6804:7091   */\n      pop\n        /* \"#utility.yul\":7130:7132   */\n      0x20\n        /* \"#utility.yul\":7156:7217   */\n      tag_285\n        /* \"#utility.yul\":7209:7216   */\n      dup7\n        /* \"#utility.yul\":7200:7206   */\n      dup3\n        /* \"#utility.yul\":7189:7198   */\n      dup8\n        /* \"#utility.yul\":7185:7207   */\n      add\n        /* \"#utility.yul\":7156:7217   */\n      tag_166\n      jump\t// in\n    tag_285:\n        /* \"#utility.yul\":7146:7217   */\n      swap3\n      pop\n        /* \"#utility.yul\":7101:7227   */\n      pop\n        /* \"#utility.yul\":7266:7268   */\n      0x40\n        /* \"#utility.yul\":7292:7345   */\n      tag_286\n        /* \"#utility.yul\":7337:7344   */\n      dup7\n        /* \"#utility.yul\":7328:7334   */\n      dup3\n        /* \"#utility.yul\":7317:7326   */\n      dup8\n        /* \"#utility.yul\":7313:7335   */\n      add\n        /* \"#utility.yul\":7292:7345   */\n      tag_145\n      jump\t// in\n    tag_286:\n        /* \"#utility.yul\":7282:7345   */\n      swap2\n      pop\n        /* \"#utility.yul\":7237:7355   */\n      pop\n        /* \"#utility.yul\":6547:7362   */\n      swap3\n      pop\n      swap3\n      pop\n      swap3\n      jump\t// out\n        /* \"#utility.yul\":7368:7490   */\n    tag_167:\n        /* \"#utility.yul\":7441:7465   */\n      tag_288\n        /* \"#utility.yul\":7459:7464   */\n      dup2\n        /* \"#utility.yul\":7441:7465   */\n      tag_138\n      jump\t// in\n    tag_288:\n        /* \"#utility.yul\":7434:7439   */\n      dup2\n        /* \"#utility.yul\":7431:7466   */\n      eq\n        /* \"#utility.yul\":7421:7484   */\n      tag_289\n      jumpi\n        /* \"#utility.yul\":7480:7481   */\n      0x00\n        /* \"#utility.yul\":7477:7478   */\n      dup1\n        /* \"#utility.yul\":7470:7482   */\n      revert\n        /* \"#utility.yul\":7421:7484   */\n    tag_289:\n        /* \"#utility.yul\":7368:7490   */\n      pop\n      jump\t// out\n        /* \"#utility.yul\":7496:7635   */\n    tag_168:\n        /* \"#utility.yul\":7542:7547   */\n      0x00\n        /* \"#utility.yul\":7580:7586   */\n      dup2\n        /* \"#utility.yul\":7567:7587   */\n      calldataload\n        /* \"#utility.yul\":7558:7587   */\n      swap1\n      pop\n        /* \"#utility.yul\":7596:7629   */\n      tag_291\n        /* \"#utility.yul\":7623:7628   */\n      dup2\n        /* \"#utility.yul\":7596:7629   */\n      tag_167\n      jump\t// in\n    tag_291:\n        /* \"#utility.yul\":7496:7635   */\n      swap3\n      swap2\n      pop\n      pop\n      jump\t// out\n        /* \"#utility.yul\":7641:7970   */\n    tag_82:\n        /* \"#utility.yul\":7700:7706   */\n      0x00\n        /* \"#utility.yul\":7749:7751   */\n      0x20\n        /* \"#utility.yul\":7737:7746   */\n      dup3\n        /* \"#utility.yul\":7728:7735   */\n      dup5\n        /* \"#utility.yul\":7724:7747   */\n      sub\n        /* \"#utility.yul\":7720:7752   */\n      slt\n        /* \"#utility.yul\":7717:7836   */\n      iszero\n      tag_293\n      jumpi\n        /* \"#utility.yul\":7755:7834   */\n      tag_294\n      tag_141\n      jump\t// in\n    tag_294:\n        /* \"#utility.yul\":7717:7836   */\n    tag_293:\n        /* \"#utility.yul\":7875:7876   */\n      0x00\n        /* \"#utility.yul\":7900:7953   */\n      tag_295\n        /* \"#utility.yul\":7945:7952   */\n      dup5\n        /* \"#utility.yul\":7936:7942   */\n      dup3\n        /* \"#utility.yul\":7925:7934   */\n      dup6\n        /* \"#utility.yul\":7921:7943   */\n      add\n        /* \"#utility.yul\":7900:7953   */\n      tag_168\n      jump\t// in\n    tag_295:\n        /* \"#utility.yul\":7890:7953   */\n      swap2\n      pop\n        /* \"#utility.yul\":7846:7963   */\n      pop\n        /* \"#utility.yul\":7641:7970   */\n      swap3\n      swap2\n      pop\n      pop\n      jump\t// out\n        /* \"#utility.yul\":7976:8150   */\n    tag_169:\n        /* \"#utility.yul\":8116:8142   */\n      0x446561644c696e6520686173206265656e205061737365640000000000000000\n        /* \"#utility.yul\":8112:8113   */\n      0x00\n        /* \"#utility.yul\":8104:8110   */\n      dup3\n        /* \"#utility.yul\":8100:8114   */\n      add\n        /* \"#utility.yul\":8093:8143   */\n      mstore\n        /* \"#utility.yul\":7976:8150   */\n      pop\n      jump\t// out\n        /* \"#utility.yul\":8156:8522   */\n    tag_170:\n        /* \"#utility.yul\":8298:8301   */\n      0x00\n        /* \"#utility.yul\":8319:8386   */\n      tag_298\n        /* \"#utility.yul\":8383:8385   */\n      0x18\n        /* \"#utility.yul\":8378:8381   */\n      dup4\n        /* \"#utility.yul\":8319:8386   */\n      tag_148\n      jump\t// in\n    tag_298:\n        /* \"#utility.yul\":8312:8386   */\n      swap2\n      pop\n        /* \"#utility.yul\":8395:8488   */\n      tag_299\n        /* \"#utility.yul\":8484:8487   */\n      dup3\n        /* \"#utility.yul\":8395:8488   */\n      tag_169\n      jump\t// in\n    tag_299:\n        /* \"#utility.yul\":8513:8515   */\n      0x20\n        /* \"#utility.yul\":8508:8511   */\n      dup3\n        /* \"#utility.yul\":8504:8516   */\n      add\n        /* \"#utility.yul\":8497:8516   */\n      swap1\n      pop\n        /* \"#utility.yul\":8156:8522   */\n      swap2\n      swap1\n      pop\n      jump\t// out\n        /* \"#utility.yul\":8528:8947   */\n    tag_88:\n        /* \"#utility.yul\":8694:8698   */\n      0x00\n        /* \"#utility.yul\":8732:8734   */\n      0x20\n        /* \"#utility.yul\":8721:8730   */\n      dup3\n        /* \"#utility.yul\":8717:8735   */\n      add\n        /* \"#utility.yul\":8709:8735   */\n      swap1\n      pop\n        /* \"#utility.yul\":8781:8790   */\n      dup2\n        /* \"#utility.yul\":8775:8779   */\n      dup2\n        /* \"#utility.yul\":8771:8791   */\n      sub\n        /* \"#utility.yul\":8767:8768   */\n      0x00\n        /* \"#utility.yul\":8756:8765   */\n      dup4\n        /* \"#utility.yul\":8752:8769   */\n      add\n        /* \"#utility.yul\":8745:8792   */\n      mstore\n        /* \"#utility.yul\":8809:8940   */\n      tag_301\n        /* \"#utility.yul\":8935:8939   */\n      dup2\n        /* \"#utility.yul\":8809:8940   */\n      tag_170\n      jump\t// in\n    tag_301:\n        /* \"#utility.yul\":8801:8940   */\n      swap1\n      pop\n        /* \"#utility.yul\":8528:8947   */\n      swap2\n      swap1\n      pop\n      jump\t// out\n        /* \"#utility.yul\":8953:9133   */\n    tag_171:\n        /* \"#utility.yul\":9093:9125   */\n      0x596f75206e65656420746f2073656e64206174206c6561737420314574680000\n        /* \"#utility.yul\":9089:9090   */\n      0x00\n        /* \"#utility.yul\":9081:9087   */\n      dup3\n        /* \"#utility.yul\":9077:9091   */\n      add\n        /* \"#utility.yul\":9070:9126   */\n      mstore\n        /* \"#utility.yul\":8953:9133   */\n      pop\n      jump\t// out\n        /* \"#utility.yul\":9139:9505   */\n    tag_172:\n        /* \"#utility.yul\":9281:9284   */\n      0x00\n        /* \"#utility.yul\":9302:9369   */\n      tag_304\n        /* \"#utility.yul\":9366:9368   */\n      0x1e\n        /* \"#utility.yul\":9361:9364   */\n      dup4\n        /* \"#utility.yul\":9302:9369   */\n      tag_148\n      jump\t// in\n    tag_304:\n        /* \"#utility.yul\":9295:9369   */\n      swap2\n      pop\n        /* \"#utility.yul\":9378:9471   */\n      tag_305\n        /* \"#utility.yul\":9467:9470   */\n      dup3\n        /* \"#utility.yul\":9378:9471   */\n      tag_171\n      jump\t// in\n    tag_305:\n        /* \"#utility.yul\":9496:9498   */\n      0x20\n        /* \"#utility.yul\":9491:9494   */\n      dup3\n        /* \"#utility.yul\":9487:9499   */\n      add\n        /* \"#utility.yul\":9480:9499   */\n      swap1\n      pop\n        /* \"#utility.yul\":9139:9505   */\n      swap2\n      swap1\n      pop\n      jump\t// out\n        /* \"#utility.yul\":9511:9930   */\n    tag_91:\n        /* \"#utility.yul\":9677:9681   */\n      0x00\n        /* \"#utility.yul\":9715:9717   */\n      0x20\n        /* \"#utility.yul\":9704:9713   */\n      dup3\n        /* \"#utility.yul\":9700:9718   */\n      add\n        /* \"#utility.yul\":9692:9718   */\n      swap1\n      pop\n        /* \"#utility.yul\":9764:9773   */\n      dup2\n        /* \"#utility.yul\":9758:9762   */\n      dup2\n        /* \"#utility.yul\":9754:9774   */\n      sub\n        /* \"#utility.yul\":9750:9751   */\n      0x00\n        /* \"#utility.yul\":9739:9748   */\n      dup4\n        /* \"#utility.yul\":9735:9752   */\n      add\n        /* \"#utility.yul\":9728:9775   */\n      mstore\n        /* \"#utility.yul\":9792:9923   */\n      tag_307\n        /* \"#utility.yul\":9918:9922   */\n      dup2\n        /* \"#utility.yul\":9792:9923   */\n      tag_172\n      jump\t// in\n    tag_307:\n        /* \"#utility.yul\":9784:9923   */\n      swap1\n      pop\n        /* \"#utility.yul\":9511:9930   */\n      swap2\n      swap1\n      pop\n      jump\t// out\n        /* \"#utility.yul\":9936:10116   */\n    tag_173:\n        /* \"#utility.yul\":9984:10061   */\n      0x4e487b7100000000000000000000000000000000000000000000000000000000\n        /* \"#utility.yul\":9981:9982   */\n      0x00\n        /* \"#utility.yul\":9974:10062   */\n      mstore\n        /* \"#utility.yul\":10081:10085   */\n      0x11\n        /* \"#utility.yul\":10078:10079   */\n      0x04\n        /* \"#utility.yul\":10071:10086   */\n      mstore\n        /* \"#utility.yul\":10105:10109   */\n      0x24\n        /* \"#utility.yul\":10102:10103   */\n      0x00\n        /* \"#utility.yul\":10095:10110   */\n      revert\n        /* \"#utility.yul\":10122:10355   */\n    tag_94:\n        /* \"#utility.yul\":10161:10164   */\n      0x00\n        /* \"#utility.yul\":10184:10208   */\n      tag_310\n        /* \"#utility.yul\":10202:10207   */\n      dup3\n        /* \"#utility.yul\":10184:10208   */\n      tag_143\n      jump\t// in\n    tag_310:\n        /* \"#utility.yul\":10175:10208   */\n      swap2\n      pop\n        /* \"#utility.yul\":10230:10296   */\n      0xffffffffffffffffffffffffffffffffffffffffffffffffffffffffffffffff\n        /* \"#utility.yul\":10223:10228   */\n      dup3\n        /* \"#utility.yul\":10220:10297   */\n      sub\n        /* \"#utility.yul\":10217:10320   */\n      tag_311\n      jumpi\n        /* \"#utility.yul\":10300:10318   */\n      tag_312\n      tag_173\n      jump\t// in\n    tag_312:\n        /* \"#utility.yul\":10217:10320   */\n    tag_311:\n        /* \"#utility.yul\":10347:10348   */\n      0x01\n        /* \"#utility.yul\":10340:10345   */\n      dup3\n        /* \"#utility.yul\":10336:10349   */\n      add\n        /* \"#utility.yul\":10329:10349   */\n      swap1\n      pop\n        /* \"#utility.yul\":10122:10355   */\n      swap2\n      swap1\n      pop\n      jump\t// out\n        /* \"#utility.yul\":10361:10552   */\n    tag_96:\n        /* \"#utility.yul\":10401:10404   */\n      0x00\n        /* \"#utility.yul\":10420:10440   */\n      tag_314\n        /* \"#utility.yul\":10438:10439   */\n      dup3\n        /* \"#utility.yul\":10420:10440   */\n      tag_143\n      jump\t// in\n    tag_314:\n        /* \"#utility.yul\":10415:10440   */\n      swap2\n      pop\n        /* \"#utility.yul\":10454:10474   */\n      tag_315\n        /* \"#utility.yul\":10472:10473   */\n      dup4\n        /* \"#utility.yul\":10454:10474   */\n      tag_143\n      jump\t// in\n    tag_315:\n        /* \"#utility.yul\":10449:10474   */\n      swap3\n      pop\n        /* \"#utility.yul\":10497:10498   */\n      dup3\n        /* \"#utility.yul\":10494:10495   */\n      dup3\n        /* \"#utility.yul\":10490:10499   */\n      add\n        /* \"#utility.yul\":10483:10499   */\n      swap1\n      pop\n        /* \"#utility.yul\":10518:10521   */\n      dup1\n        /* \"#utility.yul\":10515:10516   */\n      dup3\n        /* \"#utility.yul\":10512:10522   */\n      gt\n        /* \"#utility.yul\":10509:10545   */\n      iszero\n      tag_316\n      jumpi\n        /* \"#utility.yul\":10525:10543   */\n      tag_317\n      tag_173\n      jump\t// in\n    tag_317:\n        /* \"#utility.yul\":10509:10545   */\n    tag_316:\n        /* \"#utility.yul\":10361:10552   */\n      swap3\n      swap2\n      pop\n      pop\n      jump\t// out\n        /* \"#utility.yul\":10558:10737   */\n    tag_174:\n        /* \"#utility.yul\":10698:10729   */\n      0x596f75277265206e6f7420656c696769626c6520746f20526546756e64000000\n        /* \"#utility.yul\":10694:10695   */\n      0x00\n        /* \"#utility.yul\":10686:10692   */\n      dup3\n        /* \"#utility.yul\":10682:10696   */\n      add\n        /* \"#utility.yul\":10675:10730   */\n      mstore\n        /* \"#utility.yul\":10558:10737   */\n      pop\n      jump\t// out\n        /* \"#utility.yul\":10743:11109   */\n    tag_175:\n        /* \"#utility.yul\":10885:10888   */\n      0x00\n        /* \"#utility.yul\":10906:10973   */\n      tag_320\n        /* \"#utility.yul\":10970:10972   */\n      0x1d\n        /* \"#utility.yul\":10965:10968   */\n      dup4\n        /* \"#utility.yul\":10906:10973   */\n      tag_148\n      jump\t// in\n    tag_320:\n        /* \"#utility.yul\":10899:10973   */\n      swap2\n      pop\n        /* \"#utility.yul\":10982:11075   */\n      tag_321\n        /* \"#utility.yul\":11071:11074   */\n      dup3\n        /* \"#utility.yul\":10982:11075   */\n      tag_174\n      jump\t// in\n    tag_321:\n        /* \"#utility.yul\":11100:11102   */\n      0x20\n        /* \"#utility.yul\":11095:11098   */\n      dup3\n        /* \"#utility.yul\":11091:11103   */\n      add\n        /* \"#utility.yul\":11084:11103   */\n      swap1\n      pop\n        /* \"#utility.yul\":10743:11109   */\n      swap2\n      swap1\n      pop\n      jump\t// out\n        /* \"#utility.yul\":11115:11534   */\n    tag_102:\n        /* \"#utility.yul\":11281:11285   */\n      0x00\n        /* \"#utility.yul\":11319:11321   */\n      0x20\n        /* \"#utility.yul\":11308:11317   */\n      dup3\n        /* \"#utility.yul\":11304:11322   */\n      add\n        /* \"#utility.yul\":11296:11322   */\n      swap1\n      pop\n        /* \"#utility.yul\":11368:11377   */\n      dup2\n        /* \"#utility.yul\":11362:11366   */\n      dup2\n        /* \"#utility.yul\":11358:11378   */\n      sub\n        /* \"#utility.yul\":11354:11355   */\n      0x00\n        /* \"#utility.yul\":11343:11352   */\n      dup4\n        /* \"#utility.yul\":11339:11356   */\n      add\n        /* \"#utility.yul\":11332:11379   */\n      mstore\n        /* \"#utility.yul\":11396:11527   */\n      tag_323\n        /* \"#utility.yul\":11522:11526   */\n      dup2\n        /* \"#utility.yul\":11396:11527   */\n      tag_175\n      jump\t// in\n    tag_323:\n        /* \"#utility.yul\":11388:11527   */\n      swap1\n      pop\n        /* \"#utility.yul\":11115:11534   */\n      swap2\n      swap1\n      pop\n      jump\t// out\n        /* \"#utility.yul\":11540:11720   */\n    tag_176:\n        /* \"#utility.yul\":11680:11712   */\n      0x596f752068617665206e6f74206465706f73697420616e79204d6f6e65790000\n        /* \"#utility.yul\":11676:11677   */\n      0x00\n        /* \"#utility.yul\":11668:11674   */\n      dup3\n        /* \"#utility.yul\":11664:11678   */\n      add\n        /* \"#utility.yul\":11657:11713   */\n      mstore\n        /* \"#utility.yul\":11540:11720   */\n      pop\n      jump\t// out\n        /* \"#utility.yul\":11726:12092   */\n    tag_177:\n        /* \"#utility.yul\":11868:11871   */\n      0x00\n        /* \"#utility.yul\":11889:11956   */\n      tag_326\n        /* \"#utility.yul\":11953:11955   */\n      0x1e\n        /* \"#utility.yul\":11948:11951   */\n      dup4\n        /* \"#utility.yul\":11889:11956   */\n      tag_148\n      jump\t// in\n    tag_326:\n        /* \"#utility.yul\":11882:11956   */\n      swap2\n      pop\n        /* \"#utility.yul\":11965:12058   */\n      tag_327\n        /* \"#utility.yul\":12054:12057   */\n      dup3\n        /* \"#utility.yul\":11965:12058   */\n      tag_176\n      jump\t// in\n    tag_327:\n        /* \"#utility.yul\":12083:12085   */\n      0x20\n        /* \"#utility.yul\":12078:12081   */\n      dup3\n        /* \"#utility.yul\":12074:12086   */\n      add\n        /* \"#utility.yul\":12067:12086   */\n      swap1\n      pop\n        /* \"#utility.yul\":11726:12092   */\n      swap2\n      swap1\n      pop\n      jump\t// out\n        /* \"#utility.yul\":12098:12517   */\n    tag_105:\n        /* \"#utility.yul\":12264:12268   */\n      0x00\n        /* \"#utility.yul\":12302:12304   */\n      0x20\n        /* \"#utility.yul\":12291:12300   */\n      dup3\n        /* \"#utility.yul\":12287:12305   */\n      add\n        /* \"#utility.yul\":12279:12305   */\n      swap1\n      pop\n        /* \"#utility.yul\":12351:12360   */\n      dup2\n        /* \"#utility.yul\":12345:12349   */\n      dup2\n        /* \"#utility.yul\":12341:12361   */\n      sub\n        /* \"#utility.yul\":12337:12338   */\n      0x00\n        /* \"#utility.yul\":12326:12335   */\n      dup4\n        /* \"#utility.yul\":12322:12339   */\n      add\n        /* \"#utility.yul\":12315:12362   */\n      mstore\n        /* \"#utility.yul\":12379:12510   */\n      tag_329\n        /* \"#utility.yul\":12505:12509   */\n      dup2\n        /* \"#utility.yul\":12379:12510   */\n      tag_177\n      jump\t// in\n    tag_329:\n        /* \"#utility.yul\":12371:12510   */\n      swap1\n      pop\n        /* \"#utility.yul\":12098:12517   */\n      swap2\n      swap1\n      pop\n      jump\t// out\n        /* \"#utility.yul\":12523:12698   */\n    tag_178:\n        /* \"#utility.yul\":12663:12690   */\n      0x596f75206d757374206265206120436f6e7472696275746f7200000000000000\n        /* \"#utility.yul\":12659:12660   */\n      0x00\n        /* \"#utility.yul\":12651:12657   */\n      dup3\n        /* \"#utility.yul\":12647:12661   */\n      add\n        /* \"#utility.yul\":12640:12691   */\n      mstore\n        /* \"#utility.yul\":12523:12698   */\n      pop\n      jump\t// out\n        /* \"#utility.yul\":12704:13070   */\n    tag_179:\n        /* \"#utility.yul\":12846:12849   */\n      0x00\n        /* \"#utility.yul\":12867:12934   */\n      tag_332\n        /* \"#utility.yul\":12931:12933   */\n      0x19\n        /* \"#utility.yul\":12926:12929   */\n      dup4\n        /* \"#utility.yul\":12867:12934   */\n      tag_148\n      jump\t// in\n    tag_332:\n        /* \"#utility.yul\":12860:12934   */\n      swap2\n      pop\n        /* \"#utility.yul\":12943:13036   */\n      tag_333\n        /* \"#utility.yul\":13032:13035   */\n      dup3\n        /* \"#utility.yul\":12943:13036   */\n      tag_178\n      jump\t// in\n    tag_333:\n        /* \"#utility.yul\":13061:13063   */\n      0x20\n        /* \"#utility.yul\":13056:13059   */\n      dup3\n        /* \"#utility.yul\":13052:13064   */\n      add\n        /* \"#utility.yul\":13045:13064   */\n      swap1\n      pop\n        /* \"#utility.yul\":12704:13070   */\n      swap2\n      swap1\n      pop\n      jump\t// out\n        /* \"#utility.yul\":13076:13495   */\n    tag_111:\n        /* \"#utility.yul\":13242:13246   */\n      0x00\n        /* \"#utility.yul\":13280:13282   */\n      0x20\n        /* \"#utility.yul\":13269:13278   */\n      dup3\n        /* \"#utility.yul\":13265:13283   */\n      add\n        /* \"#utility.yul\":13257:13283   */\n      swap1\n      pop\n        /* \"#utility.yul\":13329:13338   */\n      dup2\n        /* \"#utility.yul\":13323:13327   */\n      dup2\n        /* \"#utility.yul\":13319:13339   */\n      sub\n        /* \"#utility.yul\":13315:13316   */\n      0x00\n        /* \"#utility.yul\":13304:13313   */\n      dup4\n        /* \"#utility.yul\":13300:13317   */\n      add\n        /* \"#utility.yul\":13293:13340   */\n      mstore\n        /* \"#utility.yul\":13357:13488   */\n      tag_335\n        /* \"#utility.yul\":13483:13487   */\n      dup2\n        /* \"#utility.yul\":13357:13488   */\n      tag_179\n      jump\t// in\n    tag_335:\n        /* \"#utility.yul\":13349:13488   */\n      swap1\n      pop\n        /* \"#utility.yul\":13076:13495   */\n      swap2\n      swap1\n      pop\n      jump\t// out\n        /* \"#utility.yul\":13501:13672   */\n    tag_180:\n        /* \"#utility.yul\":13641:13664   */\n      0x596f75206861766520416c726561647920566f74650000000000000000000000\n        /* \"#utility.yul\":13637:13638   */\n      0x00\n        /* \"#utility.yul\":13629:13635   */\n      dup3\n        /* \"#utility.yul\":13625:13639   */\n      add\n        /* \"#utility.yul\":13618:13665   */\n      mstore\n        /* \"#utility.yul\":13501:13672   */\n      pop\n      jump\t// out\n        /* \"#utility.yul\":13678:14044   */\n    tag_181:\n        /* \"#utility.yul\":13820:13823   */\n      0x00\n        /* \"#utility.yul\":13841:13908   */\n      tag_338\n        /* \"#utility.yul\":13905:13907   */\n      0x15\n        /* \"#utility.yul\":13900:13903   */\n      dup4\n        /* \"#utility.yul\":13841:13908   */\n      tag_148\n      jump\t// in\n    tag_338:\n        /* \"#utility.yul\":13834:13908   */\n      swap2\n      pop\n        /* \"#utility.yul\":13917:14010   */\n      tag_339\n        /* \"#utility.yul\":14006:14009   */\n      dup3\n        /* \"#utility.yul\":13917:14010   */\n      tag_180\n      jump\t// in\n    tag_339:\n        /* \"#utility.yul\":14035:14037   */\n      0x20\n        /* \"#utility.yul\":14030:14033   */\n      dup3\n        /* \"#utility.yul\":14026:14038   */\n      add\n        /* \"#utility.yul\":14019:14038   */\n      swap1\n      pop\n        /* \"#utility.yul\":13678:14044   */\n      swap2\n      swap1\n      pop\n      jump\t// out\n        /* \"#utility.yul\":14050:14469   */\n    tag_114:\n        /* \"#utility.yul\":14216:14220   */\n      0x00\n        /* \"#utility.yul\":14254:14256   */\n      0x20\n        /* \"#utility.yul\":14243:14252   */\n      dup3\n        /* \"#utility.yul\":14239:14257   */\n      add\n        /* \"#utility.yul\":14231:14257   */\n      swap1\n      pop\n        /* \"#utility.yul\":14303:14312   */\n      dup2\n        /* \"#utility.yul\":14297:14301   */\n      dup2\n        /* \"#utility.yul\":14293:14313   */\n      sub\n        /* \"#utility.yul\":14289:14290   */\n      0x00\n        /* \"#utility.yul\":14278:14287   */\n      dup4\n        /* \"#utility.yul\":14274:14291   */\n      add\n        /* \"#utility.yul\":14267:14314   */\n      mstore\n        /* \"#utility.yul\":14331:14462   */\n      tag_341\n        /* \"#utility.yul\":14457:14461   */\n      dup2\n        /* \"#utility.yul\":14331:14462   */\n      tag_181\n      jump\t// in\n    tag_341:\n        /* \"#utility.yul\":14323:14462   */\n      swap1\n      pop\n        /* \"#utility.yul\":14050:14469   */\n      swap2\n      swap1\n      pop\n      jump\t// out\n        /* \"#utility.yul\":14475:14655   */\n    tag_182:\n        /* \"#utility.yul\":14615:14647   */\n      0x546865205265717565737420686173206265656e20436f6d706c657465640000\n        /* \"#utility.yul\":14611:14612   */\n      0x00\n        /* \"#utility.yul\":14603:14609   */\n      dup3\n        /* \"#utility.yul\":14599:14613   */\n      add\n        /* \"#utility.yul\":14592:14648   */\n      mstore\n        /* \"#utility.yul\":14475:14655   */\n      pop\n      jump\t// out\n        /* \"#utility.yul\":14661:15027   */\n    tag_183:\n        /* \"#utility.yul\":14803:14806   */\n      0x00\n        /* \"#utility.yul\":14824:14891   */\n      tag_344\n        /* \"#utility.yul\":14888:14890   */\n      0x1e\n        /* \"#utility.yul\":14883:14886   */\n      dup4\n        /* \"#utility.yul\":14824:14891   */\n      tag_148\n      jump\t// in\n    tag_344:\n        /* \"#utility.yul\":14817:14891   */\n      swap2\n      pop\n        /* \"#utility.yul\":14900:14993   */\n      tag_345\n        /* \"#utility.yul\":14989:14992   */\n      dup3\n        /* \"#utility.yul\":14900:14993   */\n      tag_182\n      jump\t// in\n    tag_345:\n        /* \"#utility.yul\":15018:15020   */\n      0x20\n        /* \"#utility.yul\":15013:15016   */\n      dup3\n        /* \"#utility.yul\":15009:15021   */\n      add\n        /* \"#utility.yul\":15002:15021   */\n      swap1\n      pop\n        /* \"#utility.yul\":14661:15027   */\n      swap2\n      swap1\n      pop\n      jump\t// out\n        /* \"#utility.yul\":15033:15452   */\n    tag_120:\n        /* \"#utility.yul\":15199:15203   */\n      0x00\n        /* \"#utility.yul\":15237:15239   */\n      0x20\n        /* \"#utility.yul\":15226:15235   */\n      dup3\n        /* \"#utility.yul\":15222:15240   */\n      add\n        /* \"#utility.yul\":15214:15240   */\n      swap1\n      pop\n        /* \"#utility.yul\":15286:15295   */\n      dup2\n        /* \"#utility.yul\":15280:15284   */\n      dup2\n        /* \"#utility.yul\":15276:15296   */\n      sub\n        /* \"#utility.yul\":15272:15273   */\n      0x00\n        /* \"#utility.yul\":15261:15270   */\n      dup4\n        /* \"#utility.yul\":15257:15274   */\n      add\n        /* \"#utility.yul\":15250:15297   */\n      mstore\n        /* \"#utility.yul\":15314:15445   */\n      tag_347\n        /* \"#utility.yul\":15440:15444   */\n      dup2\n        /* \"#utility.yul\":15314:15445   */\n      tag_183\n      jump\t// in\n    tag_347:\n        /* \"#utility.yul\":15306:15445   */\n      swap1\n      pop\n        /* \"#utility.yul\":15033:15452   */\n      swap2\n      swap1\n      pop\n      jump\t// out\n        /* \"#utility.yul\":15458:15631   */\n    tag_184:\n        /* \"#utility.yul\":15598:15623   */\n      0x4d616a6f7269747920646f6573277420537570706f7274000000000000000000\n        /* \"#utility.yul\":15594:15595   */\n      0x00\n        /* \"#utility.yul\":15586:15592   */\n      dup3\n        /* \"#utility.yul\":15582:15596   */\n      add\n        /* \"#utility.yul\":15575:15624   */\n      mstore\n        /* \"#utility.yul\":15458:15631   */\n      pop\n      jump\t// out\n        /* \"#utility.yul\":15637:16003   */\n    tag_185:\n        /* \"#utility.yul\":15779:15782   */\n      0x00\n        /* \"#utility.yul\":15800:15867   */\n      tag_350\n        /* \"#utility.yul\":15864:15866   */\n      0x17\n        /* \"#utility.yul\":15859:15862   */\n      dup4\n        /* \"#utility.yul\":15800:15867   */\n      tag_148\n      jump\t// in\n    tag_350:\n        /* \"#utility.yul\":15793:15867   */\n      swap2\n      pop\n        /* \"#utility.yul\":15876:15969   */\n      tag_351\n        /* \"#utility.yul\":15965:15968   */\n      dup3\n        /* \"#utility.yul\":15876:15969   */\n      tag_184\n      jump\t// in\n    tag_351:\n        /* \"#utility.yul\":15994:15996   */\n      0x20\n        /* \"#utility.yul\":15989:15992   */\n      dup3\n        /* \"#utility.yul\":15985:15997   */\n      add\n        /* \"#utility.yul\":15978:15997   */\n      swap1\n      pop\n        /* \"#utility.yul\":15637:16003   */\n      swap2\n      swap1\n      pop\n      jump\t// out\n        /* \"#utility.yul\":16009:16428   */\n    tag_123:\n        /* \"#utility.yul\":16175:16179   */\n      0x00\n        /* \"#utility.yul\":16213:16215   */\n      0x20\n        /* \"#utility.yul\":16202:16211   */\n      dup3\n        /* \"#utility.yul\":16198:16216   */\n      add\n        /* \"#utility.yul\":16190:16216   */\n      swap1\n      pop\n        /* \"#utility.yul\":16262:16271   */\n      dup2\n        /* \"#utility.yul\":16256:16260   */\n      dup2\n        /* \"#utility.yul\":16252:16272   */\n      sub\n        /* \"#utility.yul\":16248:16249   */\n      0x00\n        /* \"#utility.yul\":16237:16246   */\n      dup4\n        /* \"#utility.yul\":16233:16250   */\n      add\n        /* \"#utility.yul\":16226:16273   */\n      mstore\n        /* \"#utility.yul\":16290:16421   */\n      tag_353\n        /* \"#utility.yul\":16416:16420   */\n      dup2\n        /* \"#utility.yul\":16290:16421   */\n      tag_185\n      jump\t// in\n    tag_353:\n        /* \"#utility.yul\":16282:16421   */\n      swap1\n      pop\n        /* \"#utility.yul\":16009:16428   */\n      swap2\n      swap1\n      pop\n      jump\t// out\n        /* \"#utility.yul\":16434:16614   */\n    tag_186:\n        /* \"#utility.yul\":16482:16559   */\n      0x4e487b7100000000000000000000000000000000000000000000000000000000\n        /* \"#utility.yul\":16479:16480   */\n      0x00\n        /* \"#utility.yul\":16472:16560   */\n      mstore\n        /* \"#utility.yul\":16579:16583   */\n      0x22\n        /* \"#utility.yul\":16576:16577   */\n      0x04\n        /* \"#utility.yul\":16569:16584   */\n      mstore\n        /* \"#utility.yul\":16603:16607   */\n      0x24\n        /* \"#utility.yul\":16600:16601   */\n      0x00\n        /* \"#utility.yul\":16593:16608   */\n      revert\n        /* \"#utility.yul\":16620:16940   */\n    tag_128:\n        /* \"#utility.yul\":16664:16670   */\n      0x00\n        /* \"#utility.yul\":16701:16702   */\n      0x02\n        /* \"#utility.yul\":16695:16699   */\n      dup3\n        /* \"#utility.yul\":16691:16703   */\n      div\n        /* \"#utility.yul\":16681:16703   */\n      swap1\n      pop\n        /* \"#utility.yul\":16748:16749   */\n      0x01\n        /* \"#utility.yul\":16742:16746   */\n      dup3\n        /* \"#utility.yul\":16738:16750   */\n      and\n        /* \"#utility.yul\":16769:16787   */\n      dup1\n        /* \"#utility.yul\":16759:16840   */\n      tag_356\n      jumpi\n        /* \"#utility.yul\":16825:16829   */\n      0x7f\n        /* \"#utility.yul\":16817:16823   */\n      dup3\n        /* \"#utility.yul\":16813:16830   */\n      and\n        /* \"#utility.yul\":16803:16830   */\n      swap2\n      pop\n        /* \"#utility.yul\":16759:16840   */\n    tag_356:\n        /* \"#utility.yul\":16887:16889   */\n      0x20\n        /* \"#utility.yul\":16879:16885   */\n      dup3\n        /* \"#utility.yul\":16876:16890   */\n      lt\n        /* \"#utility.yul\":16856:16874   */\n      dup2\n        /* \"#utility.yul\":16853:16891   */\n      sub\n        /* \"#utility.yul\":16850:16934   */\n      tag_357\n      jumpi\n        /* \"#utility.yul\":16906:16924   */\n      tag_358\n      tag_186\n      jump\t// in\n    tag_358:\n        /* \"#utility.yul\":16850:16934   */\n    tag_357:\n        /* \"#utility.yul\":16671:16940   */\n      pop\n        /* \"#utility.yul\":16620:16940   */\n      swap2\n      swap1\n      pop\n      jump\t// out\n        /* \"#utility.yul\":16946:17087   */\n    tag_187:\n        /* \"#utility.yul\":16995:16999   */\n      0x00\n        /* \"#utility.yul\":17018:17021   */\n      dup2\n        /* \"#utility.yul\":17010:17021   */\n      swap1\n      pop\n        /* \"#utility.yul\":17041:17044   */\n      dup2\n        /* \"#utility.yul\":17038:17039   */\n      0x00\n        /* \"#utility.yul\":17031:17045   */\n      mstore\n        /* \"#utility.yul\":17075:17079   */\n      0x20\n        /* \"#utility.yul\":17072:17073   */\n      0x00\n        /* \"#utility.yul\":17062:17080   */\n      keccak256\n        /* \"#utility.yul\":17054:17080   */\n      swap1\n      pop\n        /* \"#utility.yul\":16946:17087   */\n      swap2\n      swap1\n      pop\n      jump\t// out\n        /* \"#utility.yul\":17093:17186   */\n    tag_188:\n        /* \"#utility.yul\":17130:17136   */\n      0x00\n        /* \"#utility.yul\":17177:17179   */\n      0x20\n        /* \"#utility.yul\":17172:17174   */\n      0x1f\n        /* \"#utility.yul\":17165:17170   */\n      dup4\n        /* \"#utility.yul\":17161:17175   */\n      add\n        /* \"#utility.yul\":17157:17180   */\n      div\n        /* \"#utility.yul\":17147:17180   */\n      swap1\n      pop\n        /* \"#utility.yul\":17093:17186   */\n      swap2\n      swap1\n      pop\n      jump\t// out\n        /* \"#utility.yul\":17192:17299   */\n    tag_189:\n        /* \"#utility.yul\":17236:17244   */\n      0x00\n        /* \"#utility.yul\":17286:17291   */\n      dup3\n        /* \"#utility.yul\":17280:17284   */\n      dup3\n        /* \"#utility.yul\":17276:17292   */\n      shl\n        /* \"#utility.yul\":17255:17292   */\n      swap1\n      pop\n        /* \"#utility.yul\":17192:17299   */\n      swap3\n      swap2\n      pop\n      pop\n      jump\t// out\n        /* \"#utility.yul\":17305:17698   */\n    tag_190:\n        /* \"#utility.yul\":17374:17380   */\n      0x00\n        /* \"#utility.yul\":17424:17425   */\n      0x08\n        /* \"#utility.yul\":17412:17422   */\n      dup4\n        /* \"#utility.yul\":17408:17426   */\n      mul\n        /* \"#utility.yul\":17447:17544   */\n      tag_363\n        /* \"#utility.yul\":17477:17543   */\n      0xffffffffffffffffffffffffffffffffffffffffffffffffffffffffffffffff\n        /* \"#utility.yul\":17466:17475   */\n      dup3\n        /* \"#utility.yul\":17447:17544   */\n      tag_189\n      jump\t// in\n    tag_363:\n        /* \"#utility.yul\":17565:17604   */\n      tag_364\n        /* \"#utility.yul\":17595:17603   */\n      dup7\n        /* \"#utility.yul\":17584:17593   */\n      dup4\n        /* \"#utility.yul\":17565:17604   */\n      tag_189\n      jump\t// in\n    tag_364:\n        /* \"#utility.yul\":17553:17604   */\n      swap6\n      pop\n        /* \"#utility.yul\":17637:17641   */\n      dup1\n        /* \"#utility.yul\":17633:17642   */\n      not\n        /* \"#utility.yul\":17626:17631   */\n      dup5\n        /* \"#utility.yul\":17622:17643   */\n      and\n        /* \"#utility.yul\":17613:17643   */\n      swap4\n      pop\n        /* \"#utility.yul\":17686:17690   */\n      dup1\n        /* \"#utility.yul\":17676:17684   */\n      dup7\n        /* \"#utility.yul\":17672:17691   */\n      and\n        /* \"#utility.yul\":17665:17670   */\n      dup5\n        /* \"#utility.yul\":17662:17692   */\n      or\n        /* \"#utility.yul\":17652:17692   */\n      swap3\n      pop\n        /* \"#utility.yul\":17381:17698   */\n      pop\n      pop\n        /* \"#utility.yul\":17305:17698   */\n      swap4\n      swap3\n      pop\n      pop\n      pop\n      jump\t// out\n        /* \"#utility.yul\":17704:17764   */\n    tag_191:\n        /* \"#utility.yul\":17732:17735   */\n      0x00\n        /* \"#utility.yul\":17753:17758   */\n      dup2\n        /* \"#utility.yul\":17746:17758   */\n      swap1\n      pop\n        /* \"#utility.yul\":17704:17764   */\n      swap2\n      swap1\n      pop\n      jump\t// out\n        /* \"#utility.yul\":17770:17912   */\n    tag_192:\n        /* \"#utility.yul\":17820:17829   */\n      0x00\n        /* \"#utility.yul\":17853:17906   */\n      tag_367\n        /* \"#utility.yul\":17871:17905   */\n      tag_368\n        /* \"#utility.yul\":17880:17904   */\n      tag_369\n        /* \"#utility.yul\":17898:17903   */\n      dup5\n        /* \"#utility.yul\":17880:17904   */\n      tag_143\n      jump\t// in\n    tag_369:\n        /* \"#utility.yul\":17871:17905   */\n      tag_191\n      jump\t// in\n    tag_368:\n        /* \"#utility.yul\":17853:17906   */\n      tag_143\n      jump\t// in\n    tag_367:\n        /* \"#utility.yul\":17840:17906   */\n      swap1\n      pop\n        /* \"#utility.yul\":17770:17912   */\n      swap2\n      swap1\n      pop\n      jump\t// out\n        /* \"#utility.yul\":17918:17993   */\n    tag_193:\n        /* \"#utility.yul\":17961:17964   */\n      0x00\n        /* \"#utility.yul\":17982:17987   */\n      dup2\n        /* \"#utility.yul\":17975:17987   */\n      swap1\n      pop\n        /* \"#utility.yul\":17918:17993   */\n      swap2\n      swap1\n      pop\n      jump\t// out\n        /* \"#utility.yul\":17999:18268   */\n    tag_194:\n        /* \"#utility.yul\":18109:18148   */\n      tag_372\n        /* \"#utility.yul\":18140:18147   */\n      dup4\n        /* \"#utility.yul\":18109:18148   */\n      tag_192\n      jump\t// in\n    tag_372:\n        /* \"#utility.yul\":18170:18261   */\n      tag_373\n        /* \"#utility.yul\":18219:18260   */\n      tag_374\n        /* \"#utility.yul\":18243:18259   */\n      dup3\n        /* \"#utility.yul\":18219:18260   */\n      tag_193\n      jump\t// in\n    tag_374:\n        /* \"#utility.yul\":18211:18217   */\n      dup5\n        /* \"#utility.yul\":18204:18208   */\n      dup5\n        /* \"#utility.yul\":18198:18209   */\n      sload\n        /* \"#utility.yul\":18170:18261   */\n      tag_190\n      jump\t// in\n    tag_373:\n        /* \"#utility.yul\":18164:18168   */\n      dup3\n        /* \"#utility.yul\":18157:18262   */\n      sstore\n        /* \"#utility.yul\":18075:18268   */\n      pop\n        /* \"#utility.yul\":17999:18268   */\n      pop\n      pop\n      pop\n      jump\t// out\n        /* \"#utility.yul\":18274:18347   */\n    tag_195:\n        /* \"#utility.yul\":18319:18322   */\n      0x00\n        /* \"#utility.yul\":18274:18347   */\n      swap1\n      jump\t// out\n        /* \"#utility.yul\":18353:18542   */\n    tag_196:\n        /* \"#utility.yul\":18430:18462   */\n      tag_377\n      tag_195\n      jump\t// in\n    tag_377:\n        /* \"#utility.yul\":18471:18536   */\n      tag_378\n        /* \"#utility.yul\":18529:18535   */\n      dup2\n        /* \"#utility.yul\":18521:18527   */\n      dup5\n        /* \"#utility.yul\":18515:18519   */\n      dup5\n        /* \"#utility.yul\":18471:18536   */\n      tag_194\n      jump\t// in\n    tag_378:\n        /* \"#utility.yul\":18406:18542   */\n      pop\n        /* \"#utility.yul\":18353:18542   */\n      pop\n      pop\n      jump\t// out\n        /* \"#utility.yul\":18548:18734   */\n    tag_197:\n        /* \"#utility.yul\":18608:18728   */\n    tag_380:\n        /* \"#utility.yul\":18625:18628   */\n      dup2\n        /* \"#utility.yul\":18618:18623   */\n      dup2\n        /* \"#utility.yul\":18615:18629   */\n      lt\n        /* \"#utility.yul\":18608:18728   */\n      iszero\n      tag_382\n      jumpi\n        /* \"#utility.yul\":18679:18718   */\n      tag_383\n        /* \"#utility.yul\":18716:18717   */\n      0x00\n        /* \"#utility.yul\":18709:18714   */\n      dup3\n        /* \"#utility.yul\":18679:18718   */\n      tag_196\n      jump\t// in\n    tag_383:\n        /* \"#utility.yul\":18652:18653   */\n      0x01\n        /* \"#utility.yul\":18645:18650   */\n      dup2\n        /* \"#utility.yul\":18641:18654   */\n      add\n        /* \"#utility.yul\":18632:18654   */\n      swap1\n      pop\n        /* \"#utility.yul\":18608:18728   */\n      jump(tag_380)\n    tag_382:\n        /* \"#utility.yul\":18548:18734   */\n      pop\n      pop\n      jump\t// out\n        /* \"#utility.yul\":18740:19283   */\n    tag_198:\n        /* \"#utility.yul\":18841:18843   */\n      0x1f\n        /* \"#utility.yul\":18836:18839   */\n      dup3\n        /* \"#utility.yul\":18833:18844   */\n      gt\n        /* \"#utility.yul\":18830:19276   */\n      iszero\n      tag_385\n      jumpi\n        /* \"#utility.yul\":18875:18913   */\n      tag_386\n        /* \"#utility.yul\":18907:18912   */\n      dup2\n        /* \"#utility.yul\":18875:18913   */\n      tag_187\n      jump\t// in\n    tag_386:\n        /* \"#utility.yul\":18959:18988   */\n      tag_387\n        /* \"#utility.yul\":18977:18987   */\n      dup5\n        /* \"#utility.yul\":18959:18988   */\n      tag_188\n      jump\t// in\n    tag_387:\n        /* \"#utility.yul\":18949:18957   */\n      dup2\n        /* \"#utility.yul\":18945:18989   */\n      add\n        /* \"#utility.yul\":19142:19144   */\n      0x20\n        /* \"#utility.yul\":19130:19140   */\n      dup6\n        /* \"#utility.yul\":19127:19145   */\n      lt\n        /* \"#utility.yul\":19124:19173   */\n      iszero\n      tag_388\n      jumpi\n        /* \"#utility.yul\":19163:19171   */\n      dup2\n        /* \"#utility.yul\":19148:19171   */\n      swap1\n      pop\n        /* \"#utility.yul\":19124:19173   */\n    tag_388:\n        /* \"#utility.yul\":19186:19266   */\n      tag_389\n        /* \"#utility.yul\":19242:19264   */\n      tag_390\n        /* \"#utility.yul\":19260:19263   */\n      dup6\n        /* \"#utility.yul\":19242:19264   */\n      tag_188\n      jump\t// in\n    tag_390:\n        /* \"#utility.yul\":19232:19240   */\n      dup4\n        /* \"#utility.yul\":19228:19265   */\n      add\n        /* \"#utility.yul\":19215:19226   */\n      dup3\n        /* \"#utility.yul\":19186:19266   */\n      tag_197\n      jump\t// in\n    tag_389:\n        /* \"#utility.yul\":18845:19276   */\n      pop\n      pop\n        /* \"#utility.yul\":18830:19276   */\n    tag_385:\n        /* \"#utility.yul\":18740:19283   */\n      pop\n      pop\n      pop\n      jump\t// out\n        /* \"#utility.yul\":19289:19406   */\n    tag_199:\n        /* \"#utility.yul\":19343:19351   */\n      0x00\n        /* \"#utility.yul\":19393:19398   */\n      dup3\n        /* \"#utility.yul\":19387:19391   */\n      dup3\n        /* \"#utility.yul\":19383:19399   */\n      shr\n        /* \"#utility.yul\":19362:19399   */\n      swap1\n      pop\n        /* \"#utility.yul\":19289:19406   */\n      swap3\n      swap2\n      pop\n      pop\n      jump\t// out\n        /* \"#utility.yul\":19412:19581   */\n    tag_200:\n        /* \"#utility.yul\":19456:19462   */\n      0x00\n        /* \"#utility.yul\":19489:19540   */\n      tag_393\n        /* \"#utility.yul\":19537:19538   */\n      0x00\n        /* \"#utility.yul\":19533:19539   */\n      not\n        /* \"#utility.yul\":19525:19530   */\n      dup5\n        /* \"#utility.yul\":19522:19523   */\n      0x08\n        /* \"#utility.yul\":19518:19531   */\n      mul\n        /* \"#utility.yul\":19489:19540   */\n      tag_199\n      jump\t// in\n    tag_393:\n        /* \"#utility.yul\":19485:19541   */\n      not\n        /* \"#utility.yul\":19570:19574   */\n      dup1\n        /* \"#utility.yul\":19564:19568   */\n      dup4\n        /* \"#utility.yul\":19560:19575   */\n      and\n        /* \"#utility.yul\":19550:19575   */\n      swap2\n      pop\n        /* \"#utility.yul\":19463:19581   */\n      pop\n        /* \"#utility.yul\":19412:19581   */\n      swap3\n      swap2\n      pop\n      pop\n      jump\t// out\n        /* \"#utility.yul\":19586:19881   */\n    tag_201:\n        /* \"#utility.yul\":19662:19666   */\n      0x00\n        /* \"#utility.yul\":19808:19837   */\n      tag_395\n        /* \"#utility.yul\":19833:19836   */\n      dup4\n        /* \"#utility.yul\":19827:19831   */\n      dup4\n        /* \"#utility.yul\":19808:19837   */\n      tag_200\n      jump\t// in\n    tag_395:\n        /* \"#utility.yul\":19800:19837   */\n      swap2\n      pop\n        /* \"#utility.yul\":19870:19873   */\n      dup3\n        /* \"#utility.yul\":19867:19868   */\n      0x02\n        /* \"#utility.yul\":19863:19874   */\n      mul\n        /* \"#utility.yul\":19857:19861   */\n      dup3\n        /* \"#utility.yul\":19854:19875   */\n      or\n        /* \"#utility.yul\":19846:19875   */\n      swap1\n      pop\n        /* \"#utility.yul\":19586:19881   */\n      swap3\n      swap2\n      pop\n      pop\n      jump\t// out\n        /* \"#utility.yul\":19886:21281   */\n    tag_136:\n        /* \"#utility.yul\":20003:20040   */\n      tag_397\n        /* \"#utility.yul\":20036:20039   */\n      dup3\n        /* \"#utility.yul\":20003:20040   */\n      tag_147\n      jump\t// in\n    tag_397:\n        /* \"#utility.yul\":20105:20123   */\n      0xffffffffffffffff\n        /* \"#utility.yul\":20097:20103   */\n      dup2\n        /* \"#utility.yul\":20094:20124   */\n      gt\n        /* \"#utility.yul\":20091:20147   */\n      iszero\n      tag_398\n      jumpi\n        /* \"#utility.yul\":20127:20145   */\n      tag_399\n      tag_158\n      jump\t// in\n    tag_399:\n        /* \"#utility.yul\":20091:20147   */\n    tag_398:\n        /* \"#utility.yul\":20171:20209   */\n      tag_400\n        /* \"#utility.yul\":20203:20207   */\n      dup3\n        /* \"#utility.yul\":20197:20208   */\n      sload\n        /* \"#utility.yul\":20171:20209   */\n      tag_128\n      jump\t// in\n    tag_400:\n        /* \"#utility.yul\":20256:20323   */\n      tag_401\n        /* \"#utility.yul\":20316:20322   */\n      dup3\n        /* \"#utility.yul\":20308:20314   */\n      dup3\n        /* \"#utility.yul\":20302:20306   */\n      dup6\n        /* \"#utility.yul\":20256:20323   */\n      tag_198\n      jump\t// in\n    tag_401:\n        /* \"#utility.yul\":20350:20351   */\n      0x00\n        /* \"#utility.yul\":20374:20378   */\n      0x20\n        /* \"#utility.yul\":20361:20378   */\n      swap1\n      pop\n        /* \"#utility.yul\":20406:20408   */\n      0x1f\n        /* \"#utility.yul\":20398:20404   */\n      dup4\n        /* \"#utility.yul\":20395:20409   */\n      gt\n        /* \"#utility.yul\":20423:20424   */\n      0x01\n        /* \"#utility.yul\":20418:21036   */\n      dup2\n      eq\n      tag_403\n      jumpi\n        /* \"#utility.yul\":21080:21081   */\n      0x00\n        /* \"#utility.yul\":21097:21103   */\n      dup5\n        /* \"#utility.yul\":21094:21171   */\n      iszero\n      tag_404\n      jumpi\n        /* \"#utility.yul\":21146:21155   */\n      dup3\n        /* \"#utility.yul\":21141:21144   */\n      dup8\n        /* \"#utility.yul\":21137:21156   */\n      add\n        /* \"#utility.yul\":21131:21157   */\n      mload\n        /* \"#utility.yul\":21122:21157   */\n      swap1\n      pop\n        /* \"#utility.yul\":21094:21171   */\n    tag_404:\n        /* \"#utility.yul\":21197:21264   */\n      tag_405\n        /* \"#utility.yul\":21257:21263   */\n      dup6\n        /* \"#utility.yul\":21250:21255   */\n      dup3\n        /* \"#utility.yul\":21197:21264   */\n      tag_201\n      jump\t// in\n    tag_405:\n        /* \"#utility.yul\":21191:21195   */\n      dup7\n        /* \"#utility.yul\":21184:21265   */\n      sstore\n        /* \"#utility.yul\":21053:21275   */\n      pop\n        /* \"#utility.yul\":20388:21275   */\n      jump(tag_402)\n        /* \"#utility.yul\":20418:21036   */\n    tag_403:\n        /* \"#utility.yul\":20470:20474   */\n      0x1f\n        /* \"#utility.yul\":20466:20475   */\n      not\n        /* \"#utility.yul\":20458:20464   */\n      dup5\n        /* \"#utility.yul\":20454:20476   */\n      and\n        /* \"#utility.yul\":20504:20541   */\n      tag_406\n        /* \"#utility.yul\":20536:20540   */\n      dup7\n        /* \"#utility.yul\":20504:20541   */\n      tag_187\n      jump\t// in\n    tag_406:\n        /* \"#utility.yul\":20563:20564   */\n      0x00\n        /* \"#utility.yul\":20577:20785   */\n    tag_407:\n        /* \"#utility.yul\":20591:20598   */\n      dup3\n        /* \"#utility.yul\":20588:20589   */\n      dup2\n        /* \"#utility.yul\":20585:20599   */\n      lt\n        /* \"#utility.yul\":20577:20785   */\n      iszero\n      tag_409\n      jumpi\n        /* \"#utility.yul\":20670:20679   */\n      dup5\n        /* \"#utility.yul\":20665:20668   */\n      dup10\n        /* \"#utility.yul\":20661:20680   */\n      add\n        /* \"#utility.yul\":20655:20681   */\n      mload\n        /* \"#utility.yul\":20647:20653   */\n      dup3\n        /* \"#utility.yul\":20640:20682   */\n      sstore\n        /* \"#utility.yul\":20721:20722   */\n      0x01\n        /* \"#utility.yul\":20713:20719   */\n      dup3\n        /* \"#utility.yul\":20709:20723   */\n      add\n        /* \"#utility.yul\":20699:20723   */\n      swap2\n      pop\n        /* \"#utility.yul\":20768:20770   */\n      0x20\n        /* \"#utility.yul\":20757:20766   */\n      dup6\n        /* \"#utility.yul\":20753:20771   */\n      add\n        /* \"#utility.yul\":20740:20771   */\n      swap5\n      pop\n        /* \"#utility.yul\":20614:20618   */\n      0x20\n        /* \"#utility.yul\":20611:20612   */\n      dup2\n        /* \"#utility.yul\":20607:20619   */\n      add\n        /* \"#utility.yul\":20602:20619   */\n      swap1\n      pop\n        /* \"#utility.yul\":20577:20785   */\n      jump(tag_407)\n    tag_409:\n        /* \"#utility.yul\":20813:20819   */\n      dup7\n        /* \"#utility.yul\":20804:20811   */\n      dup4\n        /* \"#utility.yul\":20801:20820   */\n      lt\n        /* \"#utility.yul\":20798:20977   */\n      iszero\n      tag_410\n      jumpi\n        /* \"#utility.yul\":20871:20880   */\n      dup5\n        /* \"#utility.yul\":20866:20869   */\n      dup10\n        /* \"#utility.yul\":20862:20881   */\n      add\n        /* \"#utility.yul\":20856:20882   */\n      mload\n        /* \"#utility.yul\":20914:20962   */\n      tag_411\n        /* \"#utility.yul\":20956:20960   */\n      0x1f\n        /* \"#utility.yul\":20948:20954   */\n      dup10\n        /* \"#utility.yul\":20944:20961   */\n      and\n        /* \"#utility.yul\":20933:20942   */\n      dup3\n        /* \"#utility.yul\":20914:20962   */\n      tag_200\n      jump\t// in\n    tag_411:\n        /* \"#utility.yul\":20906:20912   */\n      dup4\n        /* \"#utility.yul\":20899:20963   */\n      sstore\n        /* \"#utility.yul\":20821:20977   */\n      pop\n        /* \"#utility.yul\":20798:20977   */\n    tag_410:\n        /* \"#utility.yul\":21023:21024   */\n      0x01\n        /* \"#utility.yul\":21019:21020   */\n      0x02\n        /* \"#utility.yul\":21011:21017   */\n      dup9\n        /* \"#utility.yul\":21007:21021   */\n      mul\n        /* \"#utility.yul\":21003:21025   */\n      add\n        /* \"#utility.yul\":20997:21001   */\n      dup9\n        /* \"#utility.yul\":20990:21026   */\n      sstore\n        /* \"#utility.yul\":20425:21036   */\n      pop\n      pop\n      pop\n        /* \"#utility.yul\":20388:21275   */\n    tag_402:\n      pop\n        /* \"#utility.yul\":19978:21281   */\n      pop\n      pop\n      pop\n        /* \"#utility.yul\":19886:21281   */\n      pop\n      pop\n      jump\t// out\n\n    auxdata: 0xa2646970667358221220ebcbf6bfe2c562b74631d6cc6293cec04ab68fbc56f831376ea881f2cc5561c264736f6c63430008190033\n}\n",
				"bytecode": {
					"linkReferences": {},
					"object": "608060405234801561000f575f80fd5b50604051611744380380611744833981810160405281019061003191906100d6565b8060048190555081426100449190610141565b600381905550662386f26fc100006002819055503360015f6101000a81548173ffffffffffffffffffffffffffffffffffffffff021916908373ffffffffffffffffffffffffffffffffffffffff1602179055505050610174565b5f80fd5b5f819050919050565b6100b5816100a3565b81146100bf575f80fd5b50565b5f815190506100d0816100ac565b92915050565b5f80604083850312156100ec576100eb61009f565b5b5f6100f9858286016100c2565b925050602061010a858286016100c2565b9150509250929050565b7f4e487b71000000000000000000000000000000000000000000000000000000005f52601160045260245ffd5b5f61014b826100a3565b9150610156836100a3565b925082820190508082111561016e5761016d610114565b5b92915050565b6115c3806101815f395ff3fe6080604052600436106100e7575f3560e01c806381d12c5811610089578063bef3a08311610058578063bef3a08314610295578063c59ee1dc146102bf578063d4b83992146102e9578063dfe3832a14610313576100e7565b806381d12c58146101d9578063937e09b1146102195780639fb42b1f14610243578063a7a594e41461026d576100e7565b80634cb6f4a5116100c55780634cb6f4a5146101355780634e260f6f1461015d5780635114cb52146101875780636f9fb98a146101af576100e7565b80630e29df22146100eb5780630ff0a4df146100f5578063481c6a751461010b575b5f80fd5b6100f361034f565b005b348015610100575f80fd5b5061010961049f565b005b348015610116575f80fd5b5061011f6105f7565b60405161012c9190610b14565b60405180910390f35b348015610140575f80fd5b5061015b60048036038101906101569190610b71565b61061c565b005b348015610168575f80fd5b506101716107b3565b60405161017e9190610bab565b60405180910390f35b348015610192575f80fd5b506101ad60048036038101906101a89190610b71565b6107b9565b005b3480156101ba575f80fd5b506101c3610906565b6040516101d09190610bab565b60405180910390f35b3480156101e4575f80fd5b506101ff60048036038101906101fa9190610b71565b61090d565b604051610210959493929190610c6e565b60405180910390f35b348015610224575f80fd5b5061022d6109f0565b60405161023a9190610bab565b60405180910390f35b34801561024e575f80fd5b506102576109f6565b6040516102649190610bab565b60405180910390f35b348015610278575f80fd5b50610293600480360381019061028e9190610e1c565b6109fc565b005b3480156102a0575f80fd5b506102a9610aaf565b6040516102b69190610bab565b60405180910390f35b3480156102ca575f80fd5b506102d3610ab5565b6040516102e09190610bab565b60405180910390f35b3480156102f4575f80fd5b506102fd610abb565b60405161030a9190610bab565b60405180910390f35b34801561031e575f80fd5b5061033960048036038101906103349190610eb2565b610ac1565b6040516103469190610bab565b60405180910390f35b6003544210610393576040517f08c379a000000000000000000000000000000000000000000000000000000000815260040161038a90610f27565b60405180910390fd5b6002543410156103d8576040517f08c379a00000000000000000000000000000000000000000000000000000000081526004016103cf90610f8f565b60405180910390fd5b5f805f3373ffffffffffffffffffffffffffffffffffffffff1673ffffffffffffffffffffffffffffffffffffffff1681526020019081526020015f2054036104335760065f81548092919061042d90610fda565b91905055505b345f803373ffffffffffffffffffffffffffffffffffffffff1673ffffffffffffffffffffffffffffffffffffffff1681526020019081526020015f205f82825461047e9190611021565b925050819055503460055f8282546104969190611021565b92505081905550565b600354421180156104b35750600454600554105b6104f2576040517f08c379a00000000000000000000000000000000000000000000000000000000081526004016104e99061109e565b60405180910390fd5b5f805f3373ffffffffffffffffffffffffffffffffffffffff1673ffffffffffffffffffffffffffffffffffffffff1681526020019081526020015f205411610570576040517f08c379a000000000000000000000000000000000000000000000000000000000815260040161056790611106565b60405180910390fd5b5f3390508073ffffffffffffffffffffffffffffffffffffffff166108fc5f803373ffffffffffffffffffffffffffffffffffffffff1673ffffffffffffffffffffffffffffffffffffffff1681526020019081526020015f205490811502906040515f60405180830381858888f193505050501580156105f3573d5f803e3d5ffd5b5050565b60015f9054906101000a900473ffffffffffffffffffffffffffffffffffffffff1681565b5f805f3373ffffffffffffffffffffffffffffffffffffffff1673ffffffffffffffffffffffffffffffffffffffff1681526020019081526020015f20541161069a576040517f08c379a00000000000000000000000000000000000000000000000000000000081526004016106919061116e565b60405180910390fd5b5f60075f8381526020019081526020015f2090505f1515816005015f3373ffffffffffffffffffffffffffffffffffffffff1673ffffffffffffffffffffffffffffffffffffffff1681526020019081526020015f205f9054906101000a900460ff1615151461073f576040517f08c379a0000000000000000000000000000000000000000000000000000000008152600401610736906111d6565b60405180910390fd5b6001816005015f3373ffffffffffffffffffffffffffffffffffffffff1673ffffffffffffffffffffffffffffffffffffffff1681526020019081526020015f205f6101000a81548160ff021916908315150217905550806003015f8154809291906107aa90610fda565b91905055505050565b60065481565b60045460055410156107c9575f80fd5b5f60075f8381526020019081526020015f2090505f1515816004015f9054906101000a900460ff16151514610833576040517f08c379a000000000000000000000000000000000000000000000000000000000815260040161082a9061123e565b60405180910390fd5b60065481600301541161087b576040517f08c379a0000000000000000000000000000000000000000000000000000000008152600401610872906112a6565b60405180910390fd5b806001015f9054906101000a900473ffffffffffffffffffffffffffffffffffffffff1673ffffffffffffffffffffffffffffffffffffffff166108fc826002015490811502906040515f60405180830381858888f193505050501580156108e5573d5f803e3d5ffd5b506001816004015f6101000a81548160ff0219169083151502179055505050565b5f47905090565b6007602052805f5260405f205f91509050805f01805461092c906112f1565b80601f0160208091040260200160405190810160405280929190818152602001828054610958906112f1565b80156109a35780601f1061097a576101008083540402835291602001916109a3565b820191905f5260205f20905b81548152906001019060200180831161098657829003601f168201915b505050505090806001015f9054906101000a900473ffffffffffffffffffffffffffffffffffffffff1690806002015490806003015490806004015f9054906101000a900460ff16905085565b60025481565b60085481565b5f60075f60085481526020019081526020015f20905060085f815480929190610a2490610fda565b919050555083815f019081610a3991906114be565b5082816001015f6101000a81548173ffffffffffffffffffffffffffffffffffffffff021916908373ffffffffffffffffffffffffffffffffffffffff1602179055508181600201819055505f81600301819055505f816004015f6101000a81548160ff02191690831515021790555050505050565b60035481565b60055481565b60045481565b5f602052805f5260405f205f915090505481565b5f73ffffffffffffffffffffffffffffffffffffffff82169050919050565b5f610afe82610ad5565b9050919050565b610b0e81610af4565b82525050565b5f602082019050610b275f830184610b05565b92915050565b5f604051905090565b5f80fd5b5f80fd5b5f819050919050565b610b5081610b3e565b8114610b5a575f80fd5b50565b5f81359050610b6b81610b47565b92915050565b5f60208284031215610b8657610b85610b36565b5b5f610b9384828501610b5d565b91505092915050565b610ba581610b3e565b82525050565b5f602082019050610bbe5f830184610b9c565b92915050565b5f81519050919050565b5f82825260208201905092915050565b8281835e5f83830152505050565b5f601f19601f8301169050919050565b5f610c0682610bc4565b610c108185610bce565b9350610c20818560208601610bde565b610c2981610bec565b840191505092915050565b5f610c3e82610ad5565b9050919050565b610c4e81610c34565b82525050565b5f8115159050919050565b610c6881610c54565b82525050565b5f60a0820190508181035f830152610c868188610bfc565b9050610c956020830187610c45565b610ca26040830186610b9c565b610caf6060830185610b9c565b610cbc6080830184610c5f565b9695505050505050565b5f80fd5b5f80fd5b7f4e487b71000000000000000000000000000000000000000000000000000000005f52604160045260245ffd5b610d0482610bec565b810181811067ffffffffffffffff82111715610d2357610d22610cce565b5b80604052505050565b5f610d35610b2d565b9050610d418282610cfb565b919050565b5f67ffffffffffffffff821115610d6057610d5f610cce565b5b610d6982610bec565b9050602081019050919050565b828183375f83830152505050565b5f610d96610d9184610d46565b610d2c565b905082815260208101848484011115610db257610db1610cca565b5b610dbd848285610d76565b509392505050565b5f82601f830112610dd957610dd8610cc6565b5b8135610de9848260208601610d84565b91505092915050565b610dfb81610c34565b8114610e05575f80fd5b50565b5f81359050610e1681610df2565b92915050565b5f805f60608486031215610e3357610e32610b36565b5b5f84013567ffffffffffffffff811115610e5057610e4f610b3a565b5b610e5c86828701610dc5565b9350506020610e6d86828701610e08565b9250506040610e7e86828701610b5d565b9150509250925092565b610e9181610af4565b8114610e9b575f80fd5b50565b5f81359050610eac81610e88565b92915050565b5f60208284031215610ec757610ec6610b36565b5b5f610ed484828501610e9e565b91505092915050565b7f446561644c696e6520686173206265656e2050617373656400000000000000005f82015250565b5f610f11601883610bce565b9150610f1c82610edd565b602082019050919050565b5f6020820190508181035f830152610f3e81610f05565b9050919050565b7f596f75206e65656420746f2073656e64206174206c65617374203145746800005f82015250565b5f610f79601e83610bce565b9150610f8482610f45565b602082019050919050565b5f6020820190508181035f830152610fa681610f6d565b9050919050565b7f4e487b71000000000000000000000000000000000000000000000000000000005f52601160045260245ffd5b5f610fe482610b3e565b91507fffffffffffffffffffffffffffffffffffffffffffffffffffffffffffffffff820361101657611015610fad565b5b600182019050919050565b5f61102b82610b3e565b915061103683610b3e565b925082820190508082111561104e5761104d610fad565b5b92915050565b7f596f75277265206e6f7420656c696769626c6520746f20526546756e640000005f82015250565b5f611088601d83610bce565b915061109382611054565b602082019050919050565b5f6020820190508181035f8301526110b58161107c565b9050919050565b7f596f752068617665206e6f74206465706f73697420616e79204d6f6e657900005f82015250565b5f6110f0601e83610bce565b91506110fb826110bc565b602082019050919050565b5f6020820190508181035f83015261111d816110e4565b9050919050565b7f596f75206d757374206265206120436f6e7472696275746f72000000000000005f82015250565b5f611158601983610bce565b915061116382611124565b602082019050919050565b5f6020820190508181035f8301526111858161114c565b9050919050565b7f596f75206861766520416c726561647920566f746500000000000000000000005f82015250565b5f6111c0601583610bce565b91506111cb8261118c565b602082019050919050565b5f6020820190508181035f8301526111ed816111b4565b9050919050565b7f546865205265717565737420686173206265656e20436f6d706c6574656400005f82015250565b5f611228601e83610bce565b9150611233826111f4565b602082019050919050565b5f6020820190508181035f8301526112558161121c565b9050919050565b7f4d616a6f7269747920646f6573277420537570706f72740000000000000000005f82015250565b5f611290601783610bce565b915061129b8261125c565b602082019050919050565b5f6020820190508181035f8301526112bd81611284565b9050919050565b7f4e487b71000000000000000000000000000000000000000000000000000000005f52602260045260245ffd5b5f600282049050600182168061130857607f821691505b60208210810361131b5761131a6112c4565b5b50919050565b5f819050815f5260205f209050919050565b5f6020601f8301049050919050565b5f82821b905092915050565b5f6008830261137d7fffffffffffffffffffffffffffffffffffffffffffffffffffffffffffffffff82611342565b6113878683611342565b95508019841693508086168417925050509392505050565b5f819050919050565b5f6113c26113bd6113b884610b3e565b61139f565b610b3e565b9050919050565b5f819050919050565b6113db836113a8565b6113ef6113e7826113c9565b84845461134e565b825550505050565b5f90565b6114036113f7565b61140e8184846113d2565b505050565b5b81811015611431576114265f826113fb565b600181019050611414565b5050565b601f8211156114765761144781611321565b61145084611333565b8101602085101561145f578190505b61147361146b85611333565b830182611413565b50505b505050565b5f82821c905092915050565b5f6114965f198460080261147b565b1980831691505092915050565b5f6114ae8383611487565b9150826002028217905092915050565b6114c782610bc4565b67ffffffffffffffff8111156114e0576114df610cce565b5b6114ea82546112f1565b6114f5828285611435565b5f60209050601f831160018114611526575f8415611514578287015190505b61151e85826114a3565b865550611585565b601f19841661153486611321565b5f5b8281101561155b57848901518255600182019150602085019450602081019050611536565b868310156115785784890151611574601f891682611487565b8355505b6001600288020188555050505b50505050505056fea2646970667358221220ebcbf6bfe2c562b74631d6cc6293cec04ab68fbc56f831376ea881f2cc5561c264736f6c63430008190033",
					"opcodes": "PUSH1 0x80 PUSH1 0x40 MSTORE CALLVALUE DUP1 ISZERO PUSH2 0xF JUMPI PUSH0 DUP1 REVERT JUMPDEST POP PUSH1 0x40 MLOAD PUSH2 0x1744 CODESIZE SUB DUP1 PUSH2 0x1744 DUP4 CODECOPY DUP2 DUP2 ADD PUSH1 0x40 MSTORE DUP2 ADD SWAP1 PUSH2 0x31 SWAP2 SWAP1 PUSH2 0xD6 JUMP JUMPDEST DUP1 PUSH1 0x4 DUP2 SWAP1 SSTORE POP DUP2 TIMESTAMP PUSH2 0x44 SWAP2 SWAP1 PUSH2 0x141 JUMP JUMPDEST PUSH1 0x3 DUP2 SWAP1 SSTORE POP PUSH7 0x2386F26FC10000 PUSH1 0x2 DUP2 SWAP1 SSTORE POP CALLER PUSH1 0x1 PUSH0 PUSH2 0x100 EXP DUP2 SLOAD DUP2 PUSH20 0xFFFFFFFFFFFFFFFFFFFFFFFFFFFFFFFFFFFFFFFF MUL NOT AND SWAP1 DUP4 PUSH20 0xFFFFFFFFFFFFFFFFFFFFFFFFFFFFFFFFFFFFFFFF AND MUL OR SWAP1 SSTORE POP POP POP PUSH2 0x174 JUMP JUMPDEST PUSH0 DUP1 REVERT JUMPDEST PUSH0 DUP2 SWAP1 POP SWAP2 SWAP1 POP JUMP JUMPDEST PUSH2 0xB5 DUP2 PUSH2 0xA3 JUMP JUMPDEST DUP2 EQ PUSH2 0xBF JUMPI PUSH0 DUP1 REVERT JUMPDEST POP JUMP JUMPDEST PUSH0 DUP2 MLOAD SWAP1 POP PUSH2 0xD0 DUP2 PUSH2 0xAC JUMP JUMPDEST SWAP3 SWAP2 POP POP JUMP JUMPDEST PUSH0 DUP1 PUSH1 0x40 DUP4 DUP6 SUB SLT ISZERO PUSH2 0xEC JUMPI PUSH2 0xEB PUSH2 0x9F JUMP JUMPDEST JUMPDEST PUSH0 PUSH2 0xF9 DUP6 DUP3 DUP7 ADD PUSH2 0xC2 JUMP JUMPDEST SWAP3 POP POP PUSH1 0x20 PUSH2 0x10A DUP6 DUP3 DUP7 ADD PUSH2 0xC2 JUMP JUMPDEST SWAP2 POP POP SWAP3 POP SWAP3 SWAP1 POP JUMP JUMPDEST PUSH32 0x4E487B7100000000000000000000000000000000000000000000000000000000 PUSH0 MSTORE PUSH1 0x11 PUSH1 0x4 MSTORE PUSH1 0x24 PUSH0 REVERT JUMPDEST PUSH0 PUSH2 0x14B DUP3 PUSH2 0xA3 JUMP JUMPDEST SWAP2 POP PUSH2 0x156 DUP4 PUSH2 0xA3 JUMP JUMPDEST SWAP3 POP DUP3 DUP3 ADD SWAP1 POP DUP1 DUP3 GT ISZERO PUSH2 0x16E JUMPI PUSH2 0x16D PUSH2 0x114 JUMP JUMPDEST JUMPDEST SWAP3 SWAP2 POP POP JUMP JUMPDEST PUSH2 0x15C3 DUP1 PUSH2 0x181 PUSH0 CODECOPY PUSH0 RETURN INVALID PUSH1 0x80 PUSH1 0x40 MSTORE PUSH1 0x4 CALLDATASIZE LT PUSH2 0xE7 JUMPI PUSH0 CALLDATALOAD PUSH1 0xE0 SHR DUP1 PUSH4 0x81D12C58 GT PUSH2 0x89 JUMPI DUP1 PUSH4 0xBEF3A083 GT PUSH2 0x58 JUMPI DUP1 PUSH4 0xBEF3A083 EQ PUSH2 0x295 JUMPI DUP1 PUSH4 0xC59EE1DC EQ PUSH2 0x2BF JUMPI DUP1 PUSH4 0xD4B83992 EQ PUSH2 0x2E9 JUMPI DUP1 PUSH4 0xDFE3832A EQ PUSH2 0x313 JUMPI PUSH2 0xE7 JUMP JUMPDEST DUP1 PUSH4 0x81D12C58 EQ PUSH2 0x1D9 JUMPI DUP1 PUSH4 0x937E09B1 EQ PUSH2 0x219 JUMPI DUP1 PUSH4 0x9FB42B1F EQ PUSH2 0x243 JUMPI DUP1 PUSH4 0xA7A594E4 EQ PUSH2 0x26D JUMPI PUSH2 0xE7 JUMP JUMPDEST DUP1 PUSH4 0x4CB6F4A5 GT PUSH2 0xC5 JUMPI DUP1 PUSH4 0x4CB6F4A5 EQ PUSH2 0x135 JUMPI DUP1 PUSH4 0x4E260F6F EQ PUSH2 0x15D JUMPI DUP1 PUSH4 0x5114CB52 EQ PUSH2 0x187 JUMPI DUP1 PUSH4 0x6F9FB98A EQ PUSH2 0x1AF JUMPI PUSH2 0xE7 JUMP JUMPDEST DUP1 PUSH4 0xE29DF22 EQ PUSH2 0xEB JUMPI DUP1 PUSH4 0xFF0A4DF EQ PUSH2 0xF5 JUMPI DUP1 PUSH4 0x481C6A75 EQ PUSH2 0x10B JUMPI JUMPDEST PUSH0 DUP1 REVERT JUMPDEST PUSH2 0xF3 PUSH2 0x34F JUMP JUMPDEST STOP JUMPDEST CALLVALUE DUP1 ISZERO PUSH2 0x100 JUMPI PUSH0 DUP1 REVERT JUMPDEST POP PUSH2 0x109 PUSH2 0x49F JUMP JUMPDEST STOP JUMPDEST CALLVALUE DUP1 ISZERO PUSH2 0x116 JUMPI PUSH0 DUP1 REVERT JUMPDEST POP PUSH2 0x11F PUSH2 0x5F7 JUMP JUMPDEST PUSH1 0x40 MLOAD PUSH2 0x12C SWAP2 SWAP1 PUSH2 0xB14 JUMP JUMPDEST PUSH1 0x40 MLOAD DUP1 SWAP2 SUB SWAP1 RETURN JUMPDEST CALLVALUE DUP1 ISZERO PUSH2 0x140 JUMPI PUSH0 DUP1 REVERT JUMPDEST POP PUSH2 0x15B PUSH1 0x4 DUP1 CALLDATASIZE SUB DUP2 ADD SWAP1 PUSH2 0x156 SWAP2 SWAP1 PUSH2 0xB71 JUMP JUMPDEST PUSH2 0x61C JUMP JUMPDEST STOP JUMPDEST CALLVALUE DUP1 ISZERO PUSH2 0x168 JUMPI PUSH0 DUP1 REVERT JUMPDEST POP PUSH2 0x171 PUSH2 0x7B3 JUMP JUMPDEST PUSH1 0x40 MLOAD PUSH2 0x17E SWAP2 SWAP1 PUSH2 0xBAB JUMP JUMPDEST PUSH1 0x40 MLOAD DUP1 SWAP2 SUB SWAP1 RETURN JUMPDEST CALLVALUE DUP1 ISZERO PUSH2 0x192 JUMPI PUSH0 DUP1 REVERT JUMPDEST POP PUSH2 0x1AD PUSH1 0x4 DUP1 CALLDATASIZE SUB DUP2 ADD SWAP1 PUSH2 0x1A8 SWAP2 SWAP1 PUSH2 0xB71 JUMP JUMPDEST PUSH2 0x7B9 JUMP JUMPDEST STOP JUMPDEST CALLVALUE DUP1 ISZERO PUSH2 0x1BA JUMPI PUSH0 DUP1 REVERT JUMPDEST POP PUSH2 0x1C3 PUSH2 0x906 JUMP JUMPDEST PUSH1 0x40 MLOAD PUSH2 0x1D0 SWAP2 SWAP1 PUSH2 0xBAB JUMP JUMPDEST PUSH1 0x40 MLOAD DUP1 SWAP2 SUB SWAP1 RETURN JUMPDEST CALLVALUE DUP1 ISZERO PUSH2 0x1E4 JUMPI PUSH0 DUP1 REVERT JUMPDEST POP PUSH2 0x1FF PUSH1 0x4 DUP1 CALLDATASIZE SUB DUP2 ADD SWAP1 PUSH2 0x1FA SWAP2 SWAP1 PUSH2 0xB71 JUMP JUMPDEST PUSH2 0x90D JUMP JUMPDEST PUSH1 0x40 MLOAD PUSH2 0x210 SWAP6 SWAP5 SWAP4 SWAP3 SWAP2 SWAP1 PUSH2 0xC6E JUMP JUMPDEST PUSH1 0x40 MLOAD DUP1 SWAP2 SUB SWAP1 RETURN JUMPDEST CALLVALUE DUP1 ISZERO PUSH2 0x224 JUMPI PUSH0 DUP1 REVERT JUMPDEST POP PUSH2 0x22D PUSH2 0x9F0 JUMP JUMPDEST PUSH1 0x40 MLOAD PUSH2 0x23A SWAP2 SWAP1 PUSH2 0xBAB JUMP JUMPDEST PUSH1 0x40 MLOAD DUP1 SWAP2 SUB SWAP1 RETURN JUMPDEST CALLVALUE DUP1 ISZERO PUSH2 0x24E JUMPI PUSH0 DUP1 REVERT JUMPDEST POP PUSH2 0x257 PUSH2 0x9F6 JUMP JUMPDEST PUSH1 0x40 MLOAD PUSH2 0x264 SWAP2 SWAP1 PUSH2 0xBAB JUMP JUMPDEST PUSH1 0x40 MLOAD DUP1 SWAP2 SUB SWAP1 RETURN JUMPDEST CALLVALUE DUP1 ISZERO PUSH2 0x278 JUMPI PUSH0 DUP1 REVERT JUMPDEST POP PUSH2 0x293 PUSH1 0x4 DUP1 CALLDATASIZE SUB DUP2 ADD SWAP1 PUSH2 0x28E SWAP2 SWAP1 PUSH2 0xE1C JUMP JUMPDEST PUSH2 0x9FC JUMP JUMPDEST STOP JUMPDEST CALLVALUE DUP1 ISZERO PUSH2 0x2A0 JUMPI PUSH0 DUP1 REVERT JUMPDEST POP PUSH2 0x2A9 PUSH2 0xAAF JUMP JUMPDEST PUSH1 0x40 MLOAD PUSH2 0x2B6 SWAP2 SWAP1 PUSH2 0xBAB JUMP JUMPDEST PUSH1 0x40 MLOAD DUP1 SWAP2 SUB SWAP1 RETURN JUMPDEST CALLVALUE DUP1 ISZERO PUSH2 0x2CA JUMPI PUSH0 DUP1 REVERT JUMPDEST POP PUSH2 0x2D3 PUSH2 0xAB5 JUMP JUMPDEST PUSH1 0x40 MLOAD PUSH2 0x2E0 SWAP2 SWAP1 PUSH2 0xBAB JUMP JUMPDEST PUSH1 0x40 MLOAD DUP1 SWAP2 SUB SWAP1 RETURN JUMPDEST CALLVALUE DUP1 ISZERO PUSH2 0x2F4 JUMPI PUSH0 DUP1 REVERT JUMPDEST POP PUSH2 0x2FD PUSH2 0xABB JUMP JUMPDEST PUSH1 0x40 MLOAD PUSH2 0x30A SWAP2 SWAP1 PUSH2 0xBAB JUMP JUMPDEST PUSH1 0x40 MLOAD DUP1 SWAP2 SUB SWAP1 RETURN JUMPDEST CALLVALUE DUP1 ISZERO PUSH2 0x31E JUMPI PUSH0 DUP1 REVERT JUMPDEST POP PUSH2 0x339 PUSH1 0x4 DUP1 CALLDATASIZE SUB DUP2 ADD SWAP1 PUSH2 0x334 SWAP2 SWAP1 PUSH2 0xEB2 JUMP JUMPDEST PUSH2 0xAC1 JUMP JUMPDEST PUSH1 0x40 MLOAD PUSH2 0x346 SWAP2 SWAP1 PUSH2 0xBAB JUMP JUMPDEST PUSH1 0x40 MLOAD DUP1 SWAP2 SUB SWAP1 RETURN JUMPDEST PUSH1 0x3 SLOAD TIMESTAMP LT PUSH2 0x393 JUMPI PUSH1 0x40 MLOAD PUSH32 0x8C379A000000000000000000000000000000000000000000000000000000000 DUP2 MSTORE PUSH1 0x4 ADD PUSH2 0x38A SWAP1 PUSH2 0xF27 JUMP JUMPDEST PUSH1 0x40 MLOAD DUP1 SWAP2 SUB SWAP1 REVERT JUMPDEST PUSH1 0x2 SLOAD CALLVALUE LT ISZERO PUSH2 0x3D8 JUMPI PUSH1 0x40 MLOAD PUSH32 0x8C379A000000000000000000000000000000000000000000000000000000000 DUP2 MSTORE PUSH1 0x4 ADD PUSH2 0x3CF SWAP1 PUSH2 0xF8F JUMP JUMPDEST PUSH1 0x40 MLOAD DUP1 SWAP2 SUB SWAP1 REVERT JUMPDEST PUSH0 DUP1 PUSH0 CALLER PUSH20 0xFFFFFFFFFFFFFFFFFFFFFFFFFFFFFFFFFFFFFFFF AND PUSH20 0xFFFFFFFFFFFFFFFFFFFFFFFFFFFFFFFFFFFFFFFF AND DUP2 MSTORE PUSH1 0x20 ADD SWAP1 DUP2 MSTORE PUSH1 0x20 ADD PUSH0 KECCAK256 SLOAD SUB PUSH2 0x433 JUMPI PUSH1 0x6 PUSH0 DUP2 SLOAD DUP1 SWAP3 SWAP2 SWAP1 PUSH2 0x42D SWAP1 PUSH2 0xFDA JUMP JUMPDEST SWAP2 SWAP1 POP SSTORE POP JUMPDEST CALLVALUE PUSH0 DUP1 CALLER PUSH20 0xFFFFFFFFFFFFFFFFFFFFFFFFFFFFFFFFFFFFFFFF AND PUSH20 0xFFFFFFFFFFFFFFFFFFFFFFFFFFFFFFFFFFFFFFFF AND DUP2 MSTORE PUSH1 0x20 ADD SWAP1 DUP2 MSTORE PUSH1 0x20 ADD PUSH0 KECCAK256 PUSH0 DUP3 DUP3 SLOAD PUSH2 0x47E SWAP2 SWAP1 PUSH2 0x1021 JUMP JUMPDEST SWAP3 POP POP DUP2 SWAP1 SSTORE POP CALLVALUE PUSH1 0x5 PUSH0 DUP3 DUP3 SLOAD PUSH2 0x496 SWAP2 SWAP1 PUSH2 0x1021 JUMP JUMPDEST SWAP3 POP POP DUP2 SWAP1 SSTORE POP JUMP JUMPDEST PUSH1 0x3 SLOAD TIMESTAMP GT DUP1 ISZERO PUSH2 0x4B3 JUMPI POP PUSH1 0x4 SLOAD PUSH1 0x5 SLOAD LT JUMPDEST PUSH2 0x4F2 JUMPI PUSH1 0x40 MLOAD PUSH32 0x8C379A000000000000000000000000000000000000000000000000000000000 DUP2 MSTORE PUSH1 0x4 ADD PUSH2 0x4E9 SWAP1 PUSH2 0x109E JUMP JUMPDEST PUSH1 0x40 MLOAD DUP1 SWAP2 SUB SWAP1 REVERT JUMPDEST PUSH0 DUP1 PUSH0 CALLER PUSH20 0xFFFFFFFFFFFFFFFFFFFFFFFFFFFFFFFFFFFFFFFF AND PUSH20 0xFFFFFFFFFFFFFFFFFFFFFFFFFFFFFFFFFFFFFFFF AND DUP2 MSTORE PUSH1 0x20 ADD SWAP1 DUP2 MSTORE PUSH1 0x20 ADD PUSH0 KECCAK256 SLOAD GT PUSH2 0x570 JUMPI PUSH1 0x40 MLOAD PUSH32 0x8C379A000000000000000000000000000000000000000000000000000000000 DUP2 MSTORE PUSH1 0x4 ADD PUSH2 0x567 SWAP1 PUSH2 0x1106 JUMP JUMPDEST PUSH1 0x40 MLOAD DUP1 SWAP2 SUB SWAP1 REVERT JUMPDEST PUSH0 CALLER SWAP1 POP DUP1 PUSH20 0xFFFFFFFFFFFFFFFFFFFFFFFFFFFFFFFFFFFFFFFF AND PUSH2 0x8FC PUSH0 DUP1 CALLER PUSH20 0xFFFFFFFFFFFFFFFFFFFFFFFFFFFFFFFFFFFFFFFF AND PUSH20 0xFFFFFFFFFFFFFFFFFFFFFFFFFFFFFFFFFFFFFFFF AND DUP2 MSTORE PUSH1 0x20 ADD SWAP1 DUP2 MSTORE PUSH1 0x20 ADD PUSH0 KECCAK256 SLOAD SWAP1 DUP2 ISZERO MUL SWAP1 PUSH1 0x40 MLOAD PUSH0 PUSH1 0x40 MLOAD DUP1 DUP4 SUB DUP2 DUP6 DUP9 DUP9 CALL SWAP4 POP POP POP POP ISZERO DUP1 ISZERO PUSH2 0x5F3 JUMPI RETURNDATASIZE PUSH0 DUP1 RETURNDATACOPY RETURNDATASIZE PUSH0 REVERT JUMPDEST POP POP JUMP JUMPDEST PUSH1 0x1 PUSH0 SWAP1 SLOAD SWAP1 PUSH2 0x100 EXP SWAP1 DIV PUSH20 0xFFFFFFFFFFFFFFFFFFFFFFFFFFFFFFFFFFFFFFFF AND DUP2 JUMP JUMPDEST PUSH0 DUP1 PUSH0 CALLER PUSH20 0xFFFFFFFFFFFFFFFFFFFFFFFFFFFFFFFFFFFFFFFF AND PUSH20 0xFFFFFFFFFFFFFFFFFFFFFFFFFFFFFFFFFFFFFFFF AND DUP2 MSTORE PUSH1 0x20 ADD SWAP1 DUP2 MSTORE PUSH1 0x20 ADD PUSH0 KECCAK256 SLOAD GT PUSH2 0x69A JUMPI PUSH1 0x40 MLOAD PUSH32 0x8C379A000000000000000000000000000000000000000000000000000000000 DUP2 MSTORE PUSH1 0x4 ADD PUSH2 0x691 SWAP1 PUSH2 0x116E JUMP JUMPDEST PUSH1 0x40 MLOAD DUP1 SWAP2 SUB SWAP1 REVERT JUMPDEST PUSH0 PUSH1 0x7 PUSH0 DUP4 DUP2 MSTORE PUSH1 0x20 ADD SWAP1 DUP2 MSTORE PUSH1 0x20 ADD PUSH0 KECCAK256 SWAP1 POP PUSH0 ISZERO ISZERO DUP2 PUSH1 0x5 ADD PUSH0 CALLER PUSH20 0xFFFFFFFFFFFFFFFFFFFFFFFFFFFFFFFFFFFFFFFF AND PUSH20 0xFFFFFFFFFFFFFFFFFFFFFFFFFFFFFFFFFFFFFFFF AND DUP2 MSTORE PUSH1 0x20 ADD SWAP1 DUP2 MSTORE PUSH1 0x20 ADD PUSH0 KECCAK256 PUSH0 SWAP1 SLOAD SWAP1 PUSH2 0x100 EXP SWAP1 DIV PUSH1 0xFF AND ISZERO ISZERO EQ PUSH2 0x73F JUMPI PUSH1 0x40 MLOAD PUSH32 0x8C379A000000000000000000000000000000000000000000000000000000000 DUP2 MSTORE PUSH1 0x4 ADD PUSH2 0x736 SWAP1 PUSH2 0x11D6 JUMP JUMPDEST PUSH1 0x40 MLOAD DUP1 SWAP2 SUB SWAP1 REVERT JUMPDEST PUSH1 0x1 DUP2 PUSH1 0x5 ADD PUSH0 CALLER PUSH20 0xFFFFFFFFFFFFFFFFFFFFFFFFFFFFFFFFFFFFFFFF AND PUSH20 0xFFFFFFFFFFFFFFFFFFFFFFFFFFFFFFFFFFFFFFFF AND DUP2 MSTORE PUSH1 0x20 ADD SWAP1 DUP2 MSTORE PUSH1 0x20 ADD PUSH0 KECCAK256 PUSH0 PUSH2 0x100 EXP DUP2 SLOAD DUP2 PUSH1 0xFF MUL NOT AND SWAP1 DUP4 ISZERO ISZERO MUL OR SWAP1 SSTORE POP DUP1 PUSH1 0x3 ADD PUSH0 DUP2 SLOAD DUP1 SWAP3 SWAP2 SWAP1 PUSH2 0x7AA SWAP1 PUSH2 0xFDA JUMP JUMPDEST SWAP2 SWAP1 POP SSTORE POP POP POP JUMP JUMPDEST PUSH1 0x6 SLOAD DUP2 JUMP JUMPDEST PUSH1 0x4 SLOAD PUSH1 0x5 SLOAD LT ISZERO PUSH2 0x7C9 JUMPI PUSH0 DUP1 REVERT JUMPDEST PUSH0 PUSH1 0x7 PUSH0 DUP4 DUP2 MSTORE PUSH1 0x20 ADD SWAP1 DUP2 MSTORE PUSH1 0x20 ADD PUSH0 KECCAK256 SWAP1 POP PUSH0 ISZERO ISZERO DUP2 PUSH1 0x4 ADD PUSH0 SWAP1 SLOAD SWAP1 PUSH2 0x100 EXP SWAP1 DIV PUSH1 0xFF AND ISZERO ISZERO EQ PUSH2 0x833 JUMPI PUSH1 0x40 MLOAD PUSH32 0x8C379A000000000000000000000000000000000000000000000000000000000 DUP2 MSTORE PUSH1 0x4 ADD PUSH2 0x82A SWAP1 PUSH2 0x123E JUMP JUMPDEST PUSH1 0x40 MLOAD DUP1 SWAP2 SUB SWAP1 REVERT JUMPDEST PUSH1 0x6 SLOAD DUP2 PUSH1 0x3 ADD SLOAD GT PUSH2 0x87B JUMPI PUSH1 0x40 MLOAD PUSH32 0x8C379A000000000000000000000000000000000000000000000000000000000 DUP2 MSTORE PUSH1 0x4 ADD PUSH2 0x872 SWAP1 PUSH2 0x12A6 JUMP JUMPDEST PUSH1 0x40 MLOAD DUP1 SWAP2 SUB SWAP1 REVERT JUMPDEST DUP1 PUSH1 0x1 ADD PUSH0 SWAP1 SLOAD SWAP1 PUSH2 0x100 EXP SWAP1 DIV PUSH20 0xFFFFFFFFFFFFFFFFFFFFFFFFFFFFFFFFFFFFFFFF AND PUSH20 0xFFFFFFFFFFFFFFFFFFFFFFFFFFFFFFFFFFFFFFFF AND PUSH2 0x8FC DUP3 PUSH1 0x2 ADD SLOAD SWAP1 DUP2 ISZERO MUL SWAP1 PUSH1 0x40 MLOAD PUSH0 PUSH1 0x40 MLOAD DUP1 DUP4 SUB DUP2 DUP6 DUP9 DUP9 CALL SWAP4 POP POP POP POP ISZERO DUP1 ISZERO PUSH2 0x8E5 JUMPI RETURNDATASIZE PUSH0 DUP1 RETURNDATACOPY RETURNDATASIZE PUSH0 REVERT JUMPDEST POP PUSH1 0x1 DUP2 PUSH1 0x4 ADD PUSH0 PUSH2 0x100 EXP DUP2 SLOAD DUP2 PUSH1 0xFF MUL NOT AND SWAP1 DUP4 ISZERO ISZERO MUL OR SWAP1 SSTORE POP POP POP JUMP JUMPDEST PUSH0 SELFBALANCE SWAP1 POP SWAP1 JUMP JUMPDEST PUSH1 0x7 PUSH1 0x20 MSTORE DUP1 PUSH0 MSTORE PUSH1 0x40 PUSH0 KECCAK256 PUSH0 SWAP2 POP SWAP1 POP DUP1 PUSH0 ADD DUP1 SLOAD PUSH2 0x92C SWAP1 PUSH2 0x12F1 JUMP JUMPDEST DUP1 PUSH1 0x1F ADD PUSH1 0x20 DUP1 SWAP2 DIV MUL PUSH1 0x20 ADD PUSH1 0x40 MLOAD SWAP1 DUP2 ADD PUSH1 0x40 MSTORE DUP1 SWAP3 SWAP2 SWAP1 DUP2 DUP2 MSTORE PUSH1 0x20 ADD DUP3 DUP1 SLOAD PUSH2 0x958 SWAP1 PUSH2 0x12F1 JUMP JUMPDEST DUP1 ISZERO PUSH2 0x9A3 JUMPI DUP1 PUSH1 0x1F LT PUSH2 0x97A JUMPI PUSH2 0x100 DUP1 DUP4 SLOAD DIV MUL DUP4 MSTORE SWAP2 PUSH1 0x20 ADD SWAP2 PUSH2 0x9A3 JUMP JUMPDEST DUP3 ADD SWAP2 SWAP1 PUSH0 MSTORE PUSH1 0x20 PUSH0 KECCAK256 SWAP1 JUMPDEST DUP2 SLOAD DUP2 MSTORE SWAP1 PUSH1 0x1 ADD SWAP1 PUSH1 0x20 ADD DUP1 DUP4 GT PUSH2 0x986 JUMPI DUP3 SWAP1 SUB PUSH1 0x1F AND DUP3 ADD SWAP2 JUMPDEST POP POP POP POP POP SWAP1 DUP1 PUSH1 0x1 ADD PUSH0 SWAP1 SLOAD SWAP1 PUSH2 0x100 EXP SWAP1 DIV PUSH20 0xFFFFFFFFFFFFFFFFFFFFFFFFFFFFFFFFFFFFFFFF AND SWAP1 DUP1 PUSH1 0x2 ADD SLOAD SWAP1 DUP1 PUSH1 0x3 ADD SLOAD SWAP1 DUP1 PUSH1 0x4 ADD PUSH0 SWAP1 SLOAD SWAP1 PUSH2 0x100 EXP SWAP1 DIV PUSH1 0xFF AND SWAP1 POP DUP6 JUMP JUMPDEST PUSH1 0x2 SLOAD DUP2 JUMP JUMPDEST PUSH1 0x8 SLOAD DUP2 JUMP JUMPDEST PUSH0 PUSH1 0x7 PUSH0 PUSH1 0x8 SLOAD DUP2 MSTORE PUSH1 0x20 ADD SWAP1 DUP2 MSTORE PUSH1 0x20 ADD PUSH0 KECCAK256 SWAP1 POP PUSH1 0x8 PUSH0 DUP2 SLOAD DUP1 SWAP3 SWAP2 SWAP1 PUSH2 0xA24 SWAP1 PUSH2 0xFDA JUMP JUMPDEST SWAP2 SWAP1 POP SSTORE POP DUP4 DUP2 PUSH0 ADD SWAP1 DUP2 PUSH2 0xA39 SWAP2 SWAP1 PUSH2 0x14BE JUMP JUMPDEST POP DUP3 DUP2 PUSH1 0x1 ADD PUSH0 PUSH2 0x100 EXP DUP2 SLOAD DUP2 PUSH20 0xFFFFFFFFFFFFFFFFFFFFFFFFFFFFFFFFFFFFFFFF MUL NOT AND SWAP1 DUP4 PUSH20 0xFFFFFFFFFFFFFFFFFFFFFFFFFFFFFFFFFFFFFFFF AND MUL OR SWAP1 SSTORE POP DUP2 DUP2 PUSH1 0x2 ADD DUP2 SWAP1 SSTORE POP PUSH0 DUP2 PUSH1 0x3 ADD DUP2 SWAP1 SSTORE POP PUSH0 DUP2 PUSH1 0x4 ADD PUSH0 PUSH2 0x100 EXP DUP2 SLOAD DUP2 PUSH1 0xFF MUL NOT AND SWAP1 DUP4 ISZERO ISZERO MUL OR SWAP1 SSTORE POP POP POP POP POP JUMP JUMPDEST PUSH1 0x3 SLOAD DUP2 JUMP JUMPDEST PUSH1 0x5 SLOAD DUP2 JUMP JUMPDEST PUSH1 0x4 SLOAD DUP2 JUMP JUMPDEST PUSH0 PUSH1 0x20 MSTORE DUP1 PUSH0 MSTORE PUSH1 0x40 PUSH0 KECCAK256 PUSH0 SWAP2 POP SWAP1 POP SLOAD DUP2 JUMP JUMPDEST PUSH0 PUSH20 0xFFFFFFFFFFFFFFFFFFFFFFFFFFFFFFFFFFFFFFFF DUP3 AND SWAP1 POP SWAP2 SWAP1 POP JUMP JUMPDEST PUSH0 PUSH2 0xAFE DUP3 PUSH2 0xAD5 JUMP JUMPDEST SWAP1 POP SWAP2 SWAP1 POP JUMP JUMPDEST PUSH2 0xB0E DUP2 PUSH2 0xAF4 JUMP JUMPDEST DUP3 MSTORE POP POP JUMP JUMPDEST PUSH0 PUSH1 0x20 DUP3 ADD SWAP1 POP PUSH2 0xB27 PUSH0 DUP4 ADD DUP5 PUSH2 0xB05 JUMP JUMPDEST SWAP3 SWAP2 POP POP JUMP JUMPDEST PUSH0 PUSH1 0x40 MLOAD SWAP1 POP SWAP1 JUMP JUMPDEST PUSH0 DUP1 REVERT JUMPDEST PUSH0 DUP1 REVERT JUMPDEST PUSH0 DUP2 SWAP1 POP SWAP2 SWAP1 POP JUMP JUMPDEST PUSH2 0xB50 DUP2 PUSH2 0xB3E JUMP JUMPDEST DUP2 EQ PUSH2 0xB5A JUMPI PUSH0 DUP1 REVERT JUMPDEST POP JUMP JUMPDEST PUSH0 DUP2 CALLDATALOAD SWAP1 POP PUSH2 0xB6B DUP2 PUSH2 0xB47 JUMP JUMPDEST SWAP3 SWAP2 POP POP JUMP JUMPDEST PUSH0 PUSH1 0x20 DUP3 DUP5 SUB SLT ISZERO PUSH2 0xB86 JUMPI PUSH2 0xB85 PUSH2 0xB36 JUMP JUMPDEST JUMPDEST PUSH0 PUSH2 0xB93 DUP5 DUP3 DUP6 ADD PUSH2 0xB5D JUMP JUMPDEST SWAP2 POP POP SWAP3 SWAP2 POP POP JUMP JUMPDEST PUSH2 0xBA5 DUP2 PUSH2 0xB3E JUMP JUMPDEST DUP3 MSTORE POP POP JUMP JUMPDEST PUSH0 PUSH1 0x20 DUP3 ADD SWAP1 POP PUSH2 0xBBE PUSH0 DUP4 ADD DUP5 PUSH2 0xB9C JUMP JUMPDEST SWAP3 SWAP2 POP POP JUMP JUMPDEST PUSH0 DUP2 MLOAD SWAP1 POP SWAP2 SWAP1 POP JUMP JUMPDEST PUSH0 DUP3 DUP3 MSTORE PUSH1 0x20 DUP3 ADD SWAP1 POP SWAP3 SWAP2 POP POP JUMP JUMPDEST DUP3 DUP2 DUP4 MCOPY PUSH0 DUP4 DUP4 ADD MSTORE POP POP POP JUMP JUMPDEST PUSH0 PUSH1 0x1F NOT PUSH1 0x1F DUP4 ADD AND SWAP1 POP SWAP2 SWAP1 POP JUMP JUMPDEST PUSH0 PUSH2 0xC06 DUP3 PUSH2 0xBC4 JUMP JUMPDEST PUSH2 0xC10 DUP2 DUP6 PUSH2 0xBCE JUMP JUMPDEST SWAP4 POP PUSH2 0xC20 DUP2 DUP6 PUSH1 0x20 DUP7 ADD PUSH2 0xBDE JUMP JUMPDEST PUSH2 0xC29 DUP2 PUSH2 0xBEC JUMP JUMPDEST DUP5 ADD SWAP2 POP POP SWAP3 SWAP2 POP POP JUMP JUMPDEST PUSH0 PUSH2 0xC3E DUP3 PUSH2 0xAD5 JUMP JUMPDEST SWAP1 POP SWAP2 SWAP1 POP JUMP JUMPDEST PUSH2 0xC4E DUP2 PUSH2 0xC34 JUMP JUMPDEST DUP3 MSTORE POP POP JUMP JUMPDEST PUSH0 DUP2 ISZERO ISZERO SWAP1 POP SWAP2 SWAP1 POP JUMP JUMPDEST PUSH2 0xC68 DUP2 PUSH2 0xC54 JUMP JUMPDEST DUP3 MSTORE POP POP JUMP JUMPDEST PUSH0 PUSH1 0xA0 DUP3 ADD SWAP1 POP DUP2 DUP2 SUB PUSH0 DUP4 ADD MSTORE PUSH2 0xC86 DUP2 DUP9 PUSH2 0xBFC JUMP JUMPDEST SWAP1 POP PUSH2 0xC95 PUSH1 0x20 DUP4 ADD DUP8 PUSH2 0xC45 JUMP JUMPDEST PUSH2 0xCA2 PUSH1 0x40 DUP4 ADD DUP7 PUSH2 0xB9C JUMP JUMPDEST PUSH2 0xCAF PUSH1 0x60 DUP4 ADD DUP6 PUSH2 0xB9C JUMP JUMPDEST PUSH2 0xCBC PUSH1 0x80 DUP4 ADD DUP5 PUSH2 0xC5F JUMP JUMPDEST SWAP7 SWAP6 POP POP POP POP POP POP JUMP JUMPDEST PUSH0 DUP1 REVERT JUMPDEST PUSH0 DUP1 REVERT JUMPDEST PUSH32 0x4E487B7100000000000000000000000000000000000000000000000000000000 PUSH0 MSTORE PUSH1 0x41 PUSH1 0x4 MSTORE PUSH1 0x24 PUSH0 REVERT JUMPDEST PUSH2 0xD04 DUP3 PUSH2 0xBEC JUMP JUMPDEST DUP2 ADD DUP2 DUP2 LT PUSH8 0xFFFFFFFFFFFFFFFF DUP3 GT OR ISZERO PUSH2 0xD23 JUMPI PUSH2 0xD22 PUSH2 0xCCE JUMP JUMPDEST JUMPDEST DUP1 PUSH1 0x40 MSTORE POP POP POP JUMP JUMPDEST PUSH0 PUSH2 0xD35 PUSH2 0xB2D JUMP JUMPDEST SWAP1 POP PUSH2 0xD41 DUP3 DUP3 PUSH2 0xCFB JUMP JUMPDEST SWAP2 SWAP1 POP JUMP JUMPDEST PUSH0 PUSH8 0xFFFFFFFFFFFFFFFF DUP3 GT ISZERO PUSH2 0xD60 JUMPI PUSH2 0xD5F PUSH2 0xCCE JUMP JUMPDEST JUMPDEST PUSH2 0xD69 DUP3 PUSH2 0xBEC JUMP JUMPDEST SWAP1 POP PUSH1 0x20 DUP2 ADD SWAP1 POP SWAP2 SWAP1 POP JUMP JUMPDEST DUP3 DUP2 DUP4 CALLDATACOPY PUSH0 DUP4 DUP4 ADD MSTORE POP POP POP JUMP JUMPDEST PUSH0 PUSH2 0xD96 PUSH2 0xD91 DUP5 PUSH2 0xD46 JUMP JUMPDEST PUSH2 0xD2C JUMP JUMPDEST SWAP1 POP DUP3 DUP2 MSTORE PUSH1 0x20 DUP2 ADD DUP5 DUP5 DUP5 ADD GT ISZERO PUSH2 0xDB2 JUMPI PUSH2 0xDB1 PUSH2 0xCCA JUMP JUMPDEST JUMPDEST PUSH2 0xDBD DUP5 DUP3 DUP6 PUSH2 0xD76 JUMP JUMPDEST POP SWAP4 SWAP3 POP POP POP JUMP JUMPDEST PUSH0 DUP3 PUSH1 0x1F DUP4 ADD SLT PUSH2 0xDD9 JUMPI PUSH2 0xDD8 PUSH2 0xCC6 JUMP JUMPDEST JUMPDEST DUP2 CALLDATALOAD PUSH2 0xDE9 DUP5 DUP3 PUSH1 0x20 DUP7 ADD PUSH2 0xD84 JUMP JUMPDEST SWAP2 POP POP SWAP3 SWAP2 POP POP JUMP JUMPDEST PUSH2 0xDFB DUP2 PUSH2 0xC34 JUMP JUMPDEST DUP2 EQ PUSH2 0xE05 JUMPI PUSH0 DUP1 REVERT JUMPDEST POP JUMP JUMPDEST PUSH0 DUP2 CALLDATALOAD SWAP1 POP PUSH2 0xE16 DUP2 PUSH2 0xDF2 JUMP JUMPDEST SWAP3 SWAP2 POP POP JUMP JUMPDEST PUSH0 DUP1 PUSH0 PUSH1 0x60 DUP5 DUP7 SUB SLT ISZERO PUSH2 0xE33 JUMPI PUSH2 0xE32 PUSH2 0xB36 JUMP JUMPDEST JUMPDEST PUSH0 DUP5 ADD CALLDATALOAD PUSH8 0xFFFFFFFFFFFFFFFF DUP2 GT ISZERO PUSH2 0xE50 JUMPI PUSH2 0xE4F PUSH2 0xB3A JUMP JUMPDEST JUMPDEST PUSH2 0xE5C DUP7 DUP3 DUP8 ADD PUSH2 0xDC5 JUMP JUMPDEST SWAP4 POP POP PUSH1 0x20 PUSH2 0xE6D DUP7 DUP3 DUP8 ADD PUSH2 0xE08 JUMP JUMPDEST SWAP3 POP POP PUSH1 0x40 PUSH2 0xE7E DUP7 DUP3 DUP8 ADD PUSH2 0xB5D JUMP JUMPDEST SWAP2 POP POP SWAP3 POP SWAP3 POP SWAP3 JUMP JUMPDEST PUSH2 0xE91 DUP2 PUSH2 0xAF4 JUMP JUMPDEST DUP2 EQ PUSH2 0xE9B JUMPI PUSH0 DUP1 REVERT JUMPDEST POP JUMP JUMPDEST PUSH0 DUP2 CALLDATALOAD SWAP1 POP PUSH2 0xEAC DUP2 PUSH2 0xE88 JUMP JUMPDEST SWAP3 SWAP2 POP POP JUMP JUMPDEST PUSH0 PUSH1 0x20 DUP3 DUP5 SUB SLT ISZERO PUSH2 0xEC7 JUMPI PUSH2 0xEC6 PUSH2 0xB36 JUMP JUMPDEST JUMPDEST PUSH0 PUSH2 0xED4 DUP5 DUP3 DUP6 ADD PUSH2 0xE9E JUMP JUMPDEST SWAP2 POP POP SWAP3 SWAP2 POP POP JUMP JUMPDEST PUSH32 0x446561644C696E6520686173206265656E205061737365640000000000000000 PUSH0 DUP3 ADD MSTORE POP JUMP JUMPDEST PUSH0 PUSH2 0xF11 PUSH1 0x18 DUP4 PUSH2 0xBCE JUMP JUMPDEST SWAP2 POP PUSH2 0xF1C DUP3 PUSH2 0xEDD JUMP JUMPDEST PUSH1 0x20 DUP3 ADD SWAP1 POP SWAP2 SWAP1 POP JUMP JUMPDEST PUSH0 PUSH1 0x20 DUP3 ADD SWAP1 POP DUP2 DUP2 SUB PUSH0 DUP4 ADD MSTORE PUSH2 0xF3E DUP2 PUSH2 0xF05 JUMP JUMPDEST SWAP1 POP SWAP2 SWAP1 POP JUMP JUMPDEST PUSH32 0x596F75206E65656420746F2073656E64206174206C6561737420314574680000 PUSH0 DUP3 ADD MSTORE POP JUMP JUMPDEST PUSH0 PUSH2 0xF79 PUSH1 0x1E DUP4 PUSH2 0xBCE JUMP JUMPDEST SWAP2 POP PUSH2 0xF84 DUP3 PUSH2 0xF45 JUMP JUMPDEST PUSH1 0x20 DUP3 ADD SWAP1 POP SWAP2 SWAP1 POP JUMP JUMPDEST PUSH0 PUSH1 0x20 DUP3 ADD SWAP1 POP DUP2 DUP2 SUB PUSH0 DUP4 ADD MSTORE PUSH2 0xFA6 DUP2 PUSH2 0xF6D JUMP JUMPDEST SWAP1 POP SWAP2 SWAP1 POP JUMP JUMPDEST PUSH32 0x4E487B7100000000000000000000000000000000000000000000000000000000 PUSH0 MSTORE PUSH1 0x11 PUSH1 0x4 MSTORE PUSH1 0x24 PUSH0 REVERT JUMPDEST PUSH0 PUSH2 0xFE4 DUP3 PUSH2 0xB3E JUMP JUMPDEST SWAP2 POP PUSH32 0xFFFFFFFFFFFFFFFFFFFFFFFFFFFFFFFFFFFFFFFFFFFFFFFFFFFFFFFFFFFFFFFF DUP3 SUB PUSH2 0x1016 JUMPI PUSH2 0x1015 PUSH2 0xFAD JUMP JUMPDEST JUMPDEST PUSH1 0x1 DUP3 ADD SWAP1 POP SWAP2 SWAP1 POP JUMP JUMPDEST PUSH0 PUSH2 0x102B DUP3 PUSH2 0xB3E JUMP JUMPDEST SWAP2 POP PUSH2 0x1036 DUP4 PUSH2 0xB3E JUMP JUMPDEST SWAP3 POP DUP3 DUP3 ADD SWAP1 POP DUP1 DUP3 GT ISZERO PUSH2 0x104E JUMPI PUSH2 0x104D PUSH2 0xFAD JUMP JUMPDEST JUMPDEST SWAP3 SWAP2 POP POP JUMP JUMPDEST PUSH32 0x596F75277265206E6F7420656C696769626C6520746F20526546756E64000000 PUSH0 DUP3 ADD MSTORE POP JUMP JUMPDEST PUSH0 PUSH2 0x1088 PUSH1 0x1D DUP4 PUSH2 0xBCE JUMP JUMPDEST SWAP2 POP PUSH2 0x1093 DUP3 PUSH2 0x1054 JUMP JUMPDEST PUSH1 0x20 DUP3 ADD SWAP1 POP SWAP2 SWAP1 POP JUMP JUMPDEST PUSH0 PUSH1 0x20 DUP3 ADD SWAP1 POP DUP2 DUP2 SUB PUSH0 DUP4 ADD MSTORE PUSH2 0x10B5 DUP2 PUSH2 0x107C JUMP JUMPDEST SWAP1 POP SWAP2 SWAP1 POP JUMP JUMPDEST PUSH32 0x596F752068617665206E6F74206465706F73697420616E79204D6F6E65790000 PUSH0 DUP3 ADD MSTORE POP JUMP JUMPDEST PUSH0 PUSH2 0x10F0 PUSH1 0x1E DUP4 PUSH2 0xBCE JUMP JUMPDEST SWAP2 POP PUSH2 0x10FB DUP3 PUSH2 0x10BC JUMP JUMPDEST PUSH1 0x20 DUP3 ADD SWAP1 POP SWAP2 SWAP1 POP JUMP JUMPDEST PUSH0 PUSH1 0x20 DUP3 ADD SWAP1 POP DUP2 DUP2 SUB PUSH0 DUP4 ADD MSTORE PUSH2 0x111D DUP2 PUSH2 0x10E4 JUMP JUMPDEST SWAP1 POP SWAP2 SWAP1 POP JUMP JUMPDEST PUSH32 0x596F75206D757374206265206120436F6E7472696275746F7200000000000000 PUSH0 DUP3 ADD MSTORE POP JUMP JUMPDEST PUSH0 PUSH2 0x1158 PUSH1 0x19 DUP4 PUSH2 0xBCE JUMP JUMPDEST SWAP2 POP PUSH2 0x1163 DUP3 PUSH2 0x1124 JUMP JUMPDEST PUSH1 0x20 DUP3 ADD SWAP1 POP SWAP2 SWAP1 POP JUMP JUMPDEST PUSH0 PUSH1 0x20 DUP3 ADD SWAP1 POP DUP2 DUP2 SUB PUSH0 DUP4 ADD MSTORE PUSH2 0x1185 DUP2 PUSH2 0x114C JUMP JUMPDEST SWAP1 POP SWAP2 SWAP1 POP JUMP JUMPDEST PUSH32 0x596F75206861766520416C726561647920566F74650000000000000000000000 PUSH0 DUP3 ADD MSTORE POP JUMP JUMPDEST PUSH0 PUSH2 0x11C0 PUSH1 0x15 DUP4 PUSH2 0xBCE JUMP JUMPDEST SWAP2 POP PUSH2 0x11CB DUP3 PUSH2 0x118C JUMP JUMPDEST PUSH1 0x20 DUP3 ADD SWAP1 POP SWAP2 SWAP1 POP JUMP JUMPDEST PUSH0 PUSH1 0x20 DUP3 ADD SWAP1 POP DUP2 DUP2 SUB PUSH0 DUP4 ADD MSTORE PUSH2 0x11ED DUP2 PUSH2 0x11B4 JUMP JUMPDEST SWAP1 POP SWAP2 SWAP1 POP JUMP JUMPDEST PUSH32 0x546865205265717565737420686173206265656E20436F6D706C657465640000 PUSH0 DUP3 ADD MSTORE POP JUMP JUMPDEST PUSH0 PUSH2 0x1228 PUSH1 0x1E DUP4 PUSH2 0xBCE JUMP JUMPDEST SWAP2 POP PUSH2 0x1233 DUP3 PUSH2 0x11F4 JUMP JUMPDEST PUSH1 0x20 DUP3 ADD SWAP1 POP SWAP2 SWAP1 POP JUMP JUMPDEST PUSH0 PUSH1 0x20 DUP3 ADD SWAP1 POP DUP2 DUP2 SUB PUSH0 DUP4 ADD MSTORE PUSH2 0x1255 DUP2 PUSH2 0x121C JUMP JUMPDEST SWAP1 POP SWAP2 SWAP1 POP JUMP JUMPDEST PUSH32 0x4D616A6F7269747920646F6573277420537570706F7274000000000000000000 PUSH0 DUP3 ADD MSTORE POP JUMP JUMPDEST PUSH0 PUSH2 0x1290 PUSH1 0x17 DUP4 PUSH2 0xBCE JUMP JUMPDEST SWAP2 POP PUSH2 0x129B DUP3 PUSH2 0x125C JUMP JUMPDEST PUSH1 0x20 DUP3 ADD SWAP1 POP SWAP2 SWAP1 POP JUMP JUMPDEST PUSH0 PUSH1 0x20 DUP3 ADD SWAP1 POP DUP2 DUP2 SUB PUSH0 DUP4 ADD MSTORE PUSH2 0x12BD DUP2 PUSH2 0x1284 JUMP JUMPDEST SWAP1 POP SWAP2 SWAP1 POP JUMP JUMPDEST PUSH32 0x4E487B7100000000000000000000000000000000000000000000000000000000 PUSH0 MSTORE PUSH1 0x22 PUSH1 0x4 MSTORE PUSH1 0x24 PUSH0 REVERT JUMPDEST PUSH0 PUSH1 0x2 DUP3 DIV SWAP1 POP PUSH1 0x1 DUP3 AND DUP1 PUSH2 0x1308 JUMPI PUSH1 0x7F DUP3 AND SWAP2 POP JUMPDEST PUSH1 0x20 DUP3 LT DUP2 SUB PUSH2 0x131B JUMPI PUSH2 0x131A PUSH2 0x12C4 JUMP JUMPDEST JUMPDEST POP SWAP2 SWAP1 POP JUMP JUMPDEST PUSH0 DUP2 SWAP1 POP DUP2 PUSH0 MSTORE PUSH1 0x20 PUSH0 KECCAK256 SWAP1 POP SWAP2 SWAP1 POP JUMP JUMPDEST PUSH0 PUSH1 0x20 PUSH1 0x1F DUP4 ADD DIV SWAP1 POP SWAP2 SWAP1 POP JUMP JUMPDEST PUSH0 DUP3 DUP3 SHL SWAP1 POP SWAP3 SWAP2 POP POP JUMP JUMPDEST PUSH0 PUSH1 0x8 DUP4 MUL PUSH2 0x137D PUSH32 0xFFFFFFFFFFFFFFFFFFFFFFFFFFFFFFFFFFFFFFFFFFFFFFFFFFFFFFFFFFFFFFFF DUP3 PUSH2 0x1342 JUMP JUMPDEST PUSH2 0x1387 DUP7 DUP4 PUSH2 0x1342 JUMP JUMPDEST SWAP6 POP DUP1 NOT DUP5 AND SWAP4 POP DUP1 DUP7 AND DUP5 OR SWAP3 POP POP POP SWAP4 SWAP3 POP POP POP JUMP JUMPDEST PUSH0 DUP2 SWAP1 POP SWAP2 SWAP1 POP JUMP JUMPDEST PUSH0 PUSH2 0x13C2 PUSH2 0x13BD PUSH2 0x13B8 DUP5 PUSH2 0xB3E JUMP JUMPDEST PUSH2 0x139F JUMP JUMPDEST PUSH2 0xB3E JUMP JUMPDEST SWAP1 POP SWAP2 SWAP1 POP JUMP JUMPDEST PUSH0 DUP2 SWAP1 POP SWAP2 SWAP1 POP JUMP JUMPDEST PUSH2 0x13DB DUP4 PUSH2 0x13A8 JUMP JUMPDEST PUSH2 0x13EF PUSH2 0x13E7 DUP3 PUSH2 0x13C9 JUMP JUMPDEST DUP5 DUP5 SLOAD PUSH2 0x134E JUMP JUMPDEST DUP3 SSTORE POP POP POP POP JUMP JUMPDEST PUSH0 SWAP1 JUMP JUMPDEST PUSH2 0x1403 PUSH2 0x13F7 JUMP JUMPDEST PUSH2 0x140E DUP2 DUP5 DUP5 PUSH2 0x13D2 JUMP JUMPDEST POP POP POP JUMP JUMPDEST JUMPDEST DUP2 DUP2 LT ISZERO PUSH2 0x1431 JUMPI PUSH2 0x1426 PUSH0 DUP3 PUSH2 0x13FB JUMP JUMPDEST PUSH1 0x1 DUP2 ADD SWAP1 POP PUSH2 0x1414 JUMP JUMPDEST POP POP JUMP JUMPDEST PUSH1 0x1F DUP3 GT ISZERO PUSH2 0x1476 JUMPI PUSH2 0x1447 DUP2 PUSH2 0x1321 JUMP JUMPDEST PUSH2 0x1450 DUP5 PUSH2 0x1333 JUMP JUMPDEST DUP2 ADD PUSH1 0x20 DUP6 LT ISZERO PUSH2 0x145F JUMPI DUP2 SWAP1 POP JUMPDEST PUSH2 0x1473 PUSH2 0x146B DUP6 PUSH2 0x1333 JUMP JUMPDEST DUP4 ADD DUP3 PUSH2 0x1413 JUMP JUMPDEST POP POP JUMPDEST POP POP POP JUMP JUMPDEST PUSH0 DUP3 DUP3 SHR SWAP1 POP SWAP3 SWAP2 POP POP JUMP JUMPDEST PUSH0 PUSH2 0x1496 PUSH0 NOT DUP5 PUSH1 0x8 MUL PUSH2 0x147B JUMP JUMPDEST NOT DUP1 DUP4 AND SWAP2 POP POP SWAP3 SWAP2 POP POP JUMP JUMPDEST PUSH0 PUSH2 0x14AE DUP4 DUP4 PUSH2 0x1487 JUMP JUMPDEST SWAP2 POP DUP3 PUSH1 0x2 MUL DUP3 OR SWAP1 POP SWAP3 SWAP2 POP POP JUMP JUMPDEST PUSH2 0x14C7 DUP3 PUSH2 0xBC4 JUMP JUMPDEST PUSH8 0xFFFFFFFFFFFFFFFF DUP2 GT ISZERO PUSH2 0x14E0 JUMPI PUSH2 0x14DF PUSH2 0xCCE JUMP JUMPDEST JUMPDEST PUSH2 0x14EA DUP3 SLOAD PUSH2 0x12F1 JUMP JUMPDEST PUSH2 0x14F5 DUP3 DUP3 DUP6 PUSH2 0x1435 JUMP JUMPDEST PUSH0 PUSH1 0x20 SWAP1 POP PUSH1 0x1F DUP4 GT PUSH1 0x1 DUP2 EQ PUSH2 0x1526 JUMPI PUSH0 DUP5 ISZERO PUSH2 0x1514 JUMPI DUP3 DUP8 ADD MLOAD SWAP1 POP JUMPDEST PUSH2 0x151E DUP6 DUP3 PUSH2 0x14A3 JUMP JUMPDEST DUP7 SSTORE POP PUSH2 0x1585 JUMP JUMPDEST PUSH1 0x1F NOT DUP5 AND PUSH2 0x1534 DUP7 PUSH2 0x1321 JUMP JUMPDEST PUSH0 JUMPDEST DUP3 DUP2 LT ISZERO PUSH2 0x155B JUMPI DUP5 DUP10 ADD MLOAD DUP3 SSTORE PUSH1 0x1 DUP3 ADD SWAP2 POP PUSH1 0x20 DUP6 ADD SWAP5 POP PUSH1 0x20 DUP2 ADD SWAP1 POP PUSH2 0x1536 JUMP JUMPDEST DUP7 DUP4 LT ISZERO PUSH2 0x1578 JUMPI DUP5 DUP10 ADD MLOAD PUSH2 0x1574 PUSH1 0x1F DUP10 AND DUP3 PUSH2 0x1487 JUMP JUMPDEST DUP4 SSTORE POP JUMPDEST PUSH1 0x1 PUSH1 0x2 DUP9 MUL ADD DUP9 SSTORE POP POP POP JUMPDEST POP POP POP POP POP POP JUMP INVALID LOG2 PUSH5 0x6970667358 0x22 SLT KECCAK256 0xEB 0xCB 0xF6 0xBF 0xE2 0xC5 PUSH3 0xB74631 0xD6 0xCC PUSH3 0x93CEC0 BLOBBASEFEE 0xB6 DUP16 0xBC JUMP 0xF8 BALANCE CALLDATACOPY PUSH15 0xA881F2CC5561C264736F6C63430008 NOT STOP CALLER "
				},
				"gasEstimates": {
					"creation": {
						"codeDepositCost": "1114200",
						"executionCost": "infinite",
						"totalCost": "infinite"
					},
					"external": {
						"Contributors(address)": "2889",
						"createNewRequest(string,address,uint256)": "infinite",
						"deadLine()": "2447",
						"getContractBalance()": "423",
						"makePayment(uint256)": "infinite",
						"manager()": "2576",
						"minimumContribution()": "2470",
						"noOfContributors()": "2470",
						"numRequests()": "2492",
						"raisedAmount()": "2469",
						"reFund()": "infinite",
						"requests(uint256)": "infinite",
						"sendEther()": "infinite",
						"target()": "2491",
						"voteRequest(uint256)": "infinite"
					}
				},
				"methodIdentifiers": {
					"Contributors(address)": "dfe3832a",
					"createNewRequest(string,address,uint256)": "a7a594e4",
					"deadLine()": "bef3a083",
					"getContractBalance()": "6f9fb98a",
					"makePayment(uint256)": "5114cb52",
					"manager()": "481c6a75",
					"minimumContribution()": "937e09b1",
					"noOfContributors()": "4e260f6f",
					"numRequests()": "9fb42b1f",
					"raisedAmount()": "c59ee1dc",
					"reFund()": "0ff0a4df",
					"requests(uint256)": "81d12c58",
					"sendEther()": "0e29df22",
					"target()": "d4b83992",
					"voteRequest(uint256)": "4cb6f4a5"
				}
			},
			"storageLayout": {
				"storage": [
					{
						"astId": 5,
						"contract": "Decentralized CrowdFunding Application/CrowdFunding.sol:CrowdFunding",
						"label": "Contributors",
						"offset": 0,
						"slot": "0",
						"type": "t_mapping(t_address,t_uint256)"
					},
					{
						"astId": 7,
						"contract": "Decentralized CrowdFunding Application/CrowdFunding.sol:CrowdFunding",
						"label": "manager",
						"offset": 0,
						"slot": "1",
						"type": "t_address"
					},
					{
						"astId": 9,
						"contract": "Decentralized CrowdFunding Application/CrowdFunding.sol:CrowdFunding",
						"label": "minimumContribution",
						"offset": 0,
						"slot": "2",
						"type": "t_uint256"
					},
					{
						"astId": 11,
						"contract": "Decentralized CrowdFunding Application/CrowdFunding.sol:CrowdFunding",
						"label": "deadLine",
						"offset": 0,
						"slot": "3",
						"type": "t_uint256"
					},
					{
						"astId": 13,
						"contract": "Decentralized CrowdFunding Application/CrowdFunding.sol:CrowdFunding",
						"label": "target",
						"offset": 0,
						"slot": "4",
						"type": "t_uint256"
					},
					{
						"astId": 15,
						"contract": "Decentralized CrowdFunding Application/CrowdFunding.sol:CrowdFunding",
						"label": "raisedAmount",
						"offset": 0,
						"slot": "5",
						"type": "t_uint256"
					},
					{
						"astId": 17,
						"contract": "Decentralized CrowdFunding Application/CrowdFunding.sol:CrowdFunding",
						"label": "noOfContributors",
						"offset": 0,
						"slot": "6",
						"type": "t_uint256"
					},
					{
						"astId": 37,
						"contract": "Decentralized CrowdFunding Application/CrowdFunding.sol:CrowdFunding",
						"label": "requests",
						"offset": 0,
						"slot": "7",
						"type": "t_mapping(t_uint256,t_struct(Request)32_storage)"
					},
					{
						"astId": 39,
						"contract": "Decentralized CrowdFunding Application/CrowdFunding.sol:CrowdFunding",
						"label": "numRequests",
						"offset": 0,
						"slot": "8",
						"type": "t_uint256"
					}
				],
				"types": {
					"t_address": {
						"encoding": "inplace",
						"label": "address",
						"numberOfBytes": "20"
					},
					"t_address_payable": {
						"encoding": "inplace",
						"label": "address payable",
						"numberOfBytes": "20"
					},
					"t_bool": {
						"encoding": "inplace",
						"label": "bool",
						"numberOfBytes": "1"
					},
					"t_mapping(t_address,t_bool)": {
						"encoding": "mapping",
						"key": "t_address",
						"label": "mapping(address => bool)",
						"numberOfBytes": "32",
						"value": "t_bool"
					},
					"t_mapping(t_address,t_uint256)": {
						"encoding": "mapping",
						"key": "t_address",
						"label": "mapping(address => uint256)",
						"numberOfBytes": "32",
						"value": "t_uint256"
					},
					"t_mapping(t_uint256,t_struct(Request)32_storage)": {
						"encoding": "mapping",
						"key": "t_uint256",
						"label": "mapping(uint256 => struct CrowdFunding.Request)",
						"numberOfBytes": "32",
						"value": "t_struct(Request)32_storage"
					},
					"t_string_storage": {
						"encoding": "bytes",
						"label": "string",
						"numberOfBytes": "32"
					},
					"t_struct(Request)32_storage": {
						"encoding": "inplace",
						"label": "struct CrowdFunding.Request",
						"members": [
							{
								"astId": 19,
								"contract": "Decentralized CrowdFunding Application/CrowdFunding.sol:CrowdFunding",
								"label": "description",
								"offset": 0,
								"slot": "0",
								"type": "t_string_storage"
							},
							{
								"astId": 21,
								"contract": "Decentralized CrowdFunding Application/CrowdFunding.sol:CrowdFunding",
								"label": "recipent",
								"offset": 0,
								"slot": "1",
								"type": "t_address_payable"
							},
							{
								"astId": 23,
								"contract": "Decentralized CrowdFunding Application/CrowdFunding.sol:CrowdFunding",
								"label": "value",
								"offset": 0,
								"slot": "2",
								"type": "t_uint256"
							},
							{
								"astId": 25,
								"contract": "Decentralized CrowdFunding Application/CrowdFunding.sol:CrowdFunding",
								"label": "noOfVoters",
								"offset": 0,
								"slot": "3",
								"type": "t_uint256"
							},
							{
								"astId": 27,
								"contract": "Decentralized CrowdFunding Application/CrowdFunding.sol:CrowdFunding",
								"label": "completed",
								"offset": 0,
								"slot": "4",
								"type": "t_bool"
							},
							{
								"astId": 31,
								"contract": "Decentralized CrowdFunding Application/CrowdFunding.sol:CrowdFunding",
								"label": "validators",
								"offset": 0,
								"slot": "5",
								"type": "t_mapping(t_address,t_bool)"
							}
						],
						"numberOfBytes": "192"
					},
					"t_uint256": {
						"encoding": "inplace",
						"label": "uint256",
						"numberOfBytes": "32"
					}
				}
			},
			"userdoc": {
				"kind": "user",
				"methods": {},
				"version": 1
			}
		}
	}
}